
lab_1.elf:     file format elf32-littlearm

Sections:
Idx Name          Size      VMA       LMA       File off  Algn
  0 .isr_vector   000001c4  08000000  08000000  00010000  2**0
                  CONTENTS, ALLOC, LOAD, READONLY, DATA
  1 .text         0000374c  080001d0  080001d0  000101d0  2**4
                  CONTENTS, ALLOC, LOAD, READONLY, CODE
  2 .rodata       00000140  0800391c  0800391c  0001391c  2**2
                  CONTENTS, ALLOC, LOAD, READONLY, DATA
  3 .ARM          00000008  08003a5c  08003a5c  00013a5c  2**2
                  CONTENTS, ALLOC, LOAD, READONLY, DATA
  4 .init_array   00000004  08003a64  08003a64  00013a64  2**2
                  CONTENTS, ALLOC, LOAD, DATA
  5 .fini_array   00000004  08003a68  08003a68  00013a68  2**2
                  CONTENTS, ALLOC, LOAD, DATA
  6 .data         000000ec  20000000  08003a6c  00020000  2**2
                  CONTENTS, ALLOC, LOAD, DATA
  7 .bss          000003bc  200000ec  08003b58  000200ec  2**2
                  ALLOC
  8 ._user_heap_stack 00000600  200004a8  08003b58  000204a8  2**0
                  ALLOC
  9 .ARM.attributes 00000030  00000000  00000000  000200ec  2**0
                  CONTENTS, READONLY
 10 .debug_info   0001114d  00000000  00000000  0002011c  2**0
                  CONTENTS, READONLY, DEBUGGING
 11 .debug_abbrev 000029a9  00000000  00000000  00031269  2**0
                  CONTENTS, READONLY, DEBUGGING
 12 .debug_loc    0000773f  00000000  00000000  00033c12  2**0
                  CONTENTS, READONLY, DEBUGGING
 13 .debug_aranges 00000ae0  00000000  00000000  0003b358  2**3
                  CONTENTS, READONLY, DEBUGGING
 14 .debug_ranges 00000de0  00000000  00000000  0003be38  2**3
                  CONTENTS, READONLY, DEBUGGING
 15 .debug_macro  0002314c  00000000  00000000  0003cc18  2**0
                  CONTENTS, READONLY, DEBUGGING
 16 .debug_line   0000ab2c  00000000  00000000  0005fd64  2**0
                  CONTENTS, READONLY, DEBUGGING
 17 .debug_str    000d529a  00000000  00000000  0006a890  2**0
                  CONTENTS, READONLY, DEBUGGING
 18 .comment      0000007b  00000000  00000000  0013fb2a  2**0
                  CONTENTS, READONLY
 19 .debug_frame  000029c4  00000000  00000000  0013fba8  2**2
                  CONTENTS, READONLY, DEBUGGING
 20 .stab         0000009c  00000000  00000000  0014256c  2**2
                  CONTENTS, READONLY, DEBUGGING
 21 .stabstr      0000014d  00000000  00000000  00142608  2**0
                  CONTENTS, READONLY, DEBUGGING

Disassembly of section .text:

080001d0 <__do_global_dtors_aux>:
 80001d0:	b510      	push	{r4, lr}
 80001d2:	4c05      	ldr	r4, [pc, #20]	; (80001e8 <__do_global_dtors_aux+0x18>)
 80001d4:	7823      	ldrb	r3, [r4, #0]
 80001d6:	b933      	cbnz	r3, 80001e6 <__do_global_dtors_aux+0x16>
 80001d8:	4b04      	ldr	r3, [pc, #16]	; (80001ec <__do_global_dtors_aux+0x1c>)
 80001da:	b113      	cbz	r3, 80001e2 <__do_global_dtors_aux+0x12>
 80001dc:	4804      	ldr	r0, [pc, #16]	; (80001f0 <__do_global_dtors_aux+0x20>)
 80001de:	f3af 8000 	nop.w
 80001e2:	2301      	movs	r3, #1
 80001e4:	7023      	strb	r3, [r4, #0]
 80001e6:	bd10      	pop	{r4, pc}
 80001e8:	200000ec 	.word	0x200000ec
 80001ec:	00000000 	.word	0x00000000
 80001f0:	08003904 	.word	0x08003904

080001f4 <frame_dummy>:
 80001f4:	b508      	push	{r3, lr}
 80001f6:	4b03      	ldr	r3, [pc, #12]	; (8000204 <frame_dummy+0x10>)
 80001f8:	b11b      	cbz	r3, 8000202 <frame_dummy+0xe>
 80001fa:	4903      	ldr	r1, [pc, #12]	; (8000208 <frame_dummy+0x14>)
 80001fc:	4803      	ldr	r0, [pc, #12]	; (800020c <frame_dummy+0x18>)
 80001fe:	f3af 8000 	nop.w
 8000202:	bd08      	pop	{r3, pc}
 8000204:	00000000 	.word	0x00000000
 8000208:	200000f0 	.word	0x200000f0
 800020c:	08003904 	.word	0x08003904

08000210 <strlen>:
 8000210:	4603      	mov	r3, r0
 8000212:	f813 2b01 	ldrb.w	r2, [r3], #1
 8000216:	2a00      	cmp	r2, #0
 8000218:	d1fb      	bne.n	8000212 <strlen+0x2>
 800021a:	1a18      	subs	r0, r3, r0
 800021c:	3801      	subs	r0, #1
 800021e:	4770      	bx	lr

08000220 <memchr>:
 8000220:	f001 01ff 	and.w	r1, r1, #255	; 0xff
 8000224:	2a10      	cmp	r2, #16
 8000226:	db2b      	blt.n	8000280 <memchr+0x60>
 8000228:	f010 0f07 	tst.w	r0, #7
 800022c:	d008      	beq.n	8000240 <memchr+0x20>
 800022e:	f810 3b01 	ldrb.w	r3, [r0], #1
 8000232:	3a01      	subs	r2, #1
 8000234:	428b      	cmp	r3, r1
 8000236:	d02d      	beq.n	8000294 <memchr+0x74>
 8000238:	f010 0f07 	tst.w	r0, #7
 800023c:	b342      	cbz	r2, 8000290 <memchr+0x70>
 800023e:	d1f6      	bne.n	800022e <memchr+0xe>
 8000240:	b4f0      	push	{r4, r5, r6, r7}
 8000242:	ea41 2101 	orr.w	r1, r1, r1, lsl #8
 8000246:	ea41 4101 	orr.w	r1, r1, r1, lsl #16
 800024a:	f022 0407 	bic.w	r4, r2, #7
 800024e:	f07f 0700 	mvns.w	r7, #0
 8000252:	2300      	movs	r3, #0
 8000254:	e8f0 5602 	ldrd	r5, r6, [r0], #8
 8000258:	3c08      	subs	r4, #8
 800025a:	ea85 0501 	eor.w	r5, r5, r1
 800025e:	ea86 0601 	eor.w	r6, r6, r1
 8000262:	fa85 f547 	uadd8	r5, r5, r7
 8000266:	faa3 f587 	sel	r5, r3, r7
 800026a:	fa86 f647 	uadd8	r6, r6, r7
 800026e:	faa5 f687 	sel	r6, r5, r7
 8000272:	b98e      	cbnz	r6, 8000298 <memchr+0x78>
 8000274:	d1ee      	bne.n	8000254 <memchr+0x34>
 8000276:	bcf0      	pop	{r4, r5, r6, r7}
 8000278:	f001 01ff 	and.w	r1, r1, #255	; 0xff
 800027c:	f002 0207 	and.w	r2, r2, #7
 8000280:	b132      	cbz	r2, 8000290 <memchr+0x70>
 8000282:	f810 3b01 	ldrb.w	r3, [r0], #1
 8000286:	3a01      	subs	r2, #1
 8000288:	ea83 0301 	eor.w	r3, r3, r1
 800028c:	b113      	cbz	r3, 8000294 <memchr+0x74>
 800028e:	d1f8      	bne.n	8000282 <memchr+0x62>
 8000290:	2000      	movs	r0, #0
 8000292:	4770      	bx	lr
 8000294:	3801      	subs	r0, #1
 8000296:	4770      	bx	lr
 8000298:	2d00      	cmp	r5, #0
 800029a:	bf06      	itte	eq
 800029c:	4635      	moveq	r5, r6
 800029e:	3803      	subeq	r0, #3
 80002a0:	3807      	subne	r0, #7
 80002a2:	f015 0f01 	tst.w	r5, #1
 80002a6:	d107      	bne.n	80002b8 <memchr+0x98>
 80002a8:	3001      	adds	r0, #1
 80002aa:	f415 7f80 	tst.w	r5, #256	; 0x100
 80002ae:	bf02      	ittt	eq
 80002b0:	3001      	addeq	r0, #1
 80002b2:	f415 3fc0 	tsteq.w	r5, #98304	; 0x18000
 80002b6:	3001      	addeq	r0, #1
 80002b8:	bcf0      	pop	{r4, r5, r6, r7}
 80002ba:	3801      	subs	r0, #1
 80002bc:	4770      	bx	lr
 80002be:	bf00      	nop

080002c0 <__aeabi_uldivmod>:
 80002c0:	b953      	cbnz	r3, 80002d8 <__aeabi_uldivmod+0x18>
 80002c2:	b94a      	cbnz	r2, 80002d8 <__aeabi_uldivmod+0x18>
 80002c4:	2900      	cmp	r1, #0
 80002c6:	bf08      	it	eq
 80002c8:	2800      	cmpeq	r0, #0
 80002ca:	bf1c      	itt	ne
 80002cc:	f04f 31ff 	movne.w	r1, #4294967295
 80002d0:	f04f 30ff 	movne.w	r0, #4294967295
 80002d4:	f000 b972 	b.w	80005bc <__aeabi_idiv0>
 80002d8:	f1ad 0c08 	sub.w	ip, sp, #8
 80002dc:	e96d ce04 	strd	ip, lr, [sp, #-16]!
 80002e0:	f000 f806 	bl	80002f0 <__udivmoddi4>
 80002e4:	f8dd e004 	ldr.w	lr, [sp, #4]
 80002e8:	e9dd 2302 	ldrd	r2, r3, [sp, #8]
 80002ec:	b004      	add	sp, #16
 80002ee:	4770      	bx	lr

080002f0 <__udivmoddi4>:
 80002f0:	e92d 47f0 	stmdb	sp!, {r4, r5, r6, r7, r8, r9, sl, lr}
 80002f4:	9e08      	ldr	r6, [sp, #32]
 80002f6:	4604      	mov	r4, r0
 80002f8:	4688      	mov	r8, r1
 80002fa:	2b00      	cmp	r3, #0
 80002fc:	d14b      	bne.n	8000396 <__udivmoddi4+0xa6>
 80002fe:	428a      	cmp	r2, r1
 8000300:	4615      	mov	r5, r2
 8000302:	d967      	bls.n	80003d4 <__udivmoddi4+0xe4>
 8000304:	fab2 f282 	clz	r2, r2
 8000308:	b14a      	cbz	r2, 800031e <__udivmoddi4+0x2e>
 800030a:	f1c2 0720 	rsb	r7, r2, #32
 800030e:	fa01 f302 	lsl.w	r3, r1, r2
 8000312:	fa20 f707 	lsr.w	r7, r0, r7
 8000316:	4095      	lsls	r5, r2
 8000318:	ea47 0803 	orr.w	r8, r7, r3
 800031c:	4094      	lsls	r4, r2
 800031e:	ea4f 4e15 	mov.w	lr, r5, lsr #16
 8000322:	0c23      	lsrs	r3, r4, #16
 8000324:	fbb8 f7fe 	udiv	r7, r8, lr
 8000328:	fa1f fc85 	uxth.w	ip, r5
 800032c:	fb0e 8817 	mls	r8, lr, r7, r8
 8000330:	ea43 4308 	orr.w	r3, r3, r8, lsl #16
 8000334:	fb07 f10c 	mul.w	r1, r7, ip
 8000338:	4299      	cmp	r1, r3
 800033a:	d909      	bls.n	8000350 <__udivmoddi4+0x60>
 800033c:	18eb      	adds	r3, r5, r3
 800033e:	f107 30ff 	add.w	r0, r7, #4294967295
 8000342:	f080 811b 	bcs.w	800057c <__udivmoddi4+0x28c>
 8000346:	4299      	cmp	r1, r3
 8000348:	f240 8118 	bls.w	800057c <__udivmoddi4+0x28c>
 800034c:	3f02      	subs	r7, #2
 800034e:	442b      	add	r3, r5
 8000350:	1a5b      	subs	r3, r3, r1
 8000352:	b2a4      	uxth	r4, r4
 8000354:	fbb3 f0fe 	udiv	r0, r3, lr
 8000358:	fb0e 3310 	mls	r3, lr, r0, r3
 800035c:	ea44 4403 	orr.w	r4, r4, r3, lsl #16
 8000360:	fb00 fc0c 	mul.w	ip, r0, ip
 8000364:	45a4      	cmp	ip, r4
 8000366:	d909      	bls.n	800037c <__udivmoddi4+0x8c>
 8000368:	192c      	adds	r4, r5, r4
 800036a:	f100 33ff 	add.w	r3, r0, #4294967295
 800036e:	f080 8107 	bcs.w	8000580 <__udivmoddi4+0x290>
 8000372:	45a4      	cmp	ip, r4
 8000374:	f240 8104 	bls.w	8000580 <__udivmoddi4+0x290>
 8000378:	3802      	subs	r0, #2
 800037a:	442c      	add	r4, r5
 800037c:	ea40 4007 	orr.w	r0, r0, r7, lsl #16
 8000380:	eba4 040c 	sub.w	r4, r4, ip
 8000384:	2700      	movs	r7, #0
 8000386:	b11e      	cbz	r6, 8000390 <__udivmoddi4+0xa0>
 8000388:	40d4      	lsrs	r4, r2
 800038a:	2300      	movs	r3, #0
 800038c:	e9c6 4300 	strd	r4, r3, [r6]
 8000390:	4639      	mov	r1, r7
 8000392:	e8bd 87f0 	ldmia.w	sp!, {r4, r5, r6, r7, r8, r9, sl, pc}
 8000396:	428b      	cmp	r3, r1
 8000398:	d909      	bls.n	80003ae <__udivmoddi4+0xbe>
 800039a:	2e00      	cmp	r6, #0
 800039c:	f000 80eb 	beq.w	8000576 <__udivmoddi4+0x286>
 80003a0:	2700      	movs	r7, #0
 80003a2:	e9c6 0100 	strd	r0, r1, [r6]
 80003a6:	4638      	mov	r0, r7
 80003a8:	4639      	mov	r1, r7
 80003aa:	e8bd 87f0 	ldmia.w	sp!, {r4, r5, r6, r7, r8, r9, sl, pc}
 80003ae:	fab3 f783 	clz	r7, r3
 80003b2:	2f00      	cmp	r7, #0
 80003b4:	d147      	bne.n	8000446 <__udivmoddi4+0x156>
 80003b6:	428b      	cmp	r3, r1
 80003b8:	d302      	bcc.n	80003c0 <__udivmoddi4+0xd0>
 80003ba:	4282      	cmp	r2, r0
 80003bc:	f200 80fa 	bhi.w	80005b4 <__udivmoddi4+0x2c4>
 80003c0:	1a84      	subs	r4, r0, r2
 80003c2:	eb61 0303 	sbc.w	r3, r1, r3
 80003c6:	2001      	movs	r0, #1
 80003c8:	4698      	mov	r8, r3
 80003ca:	2e00      	cmp	r6, #0
 80003cc:	d0e0      	beq.n	8000390 <__udivmoddi4+0xa0>
 80003ce:	e9c6 4800 	strd	r4, r8, [r6]
 80003d2:	e7dd      	b.n	8000390 <__udivmoddi4+0xa0>
 80003d4:	b902      	cbnz	r2, 80003d8 <__udivmoddi4+0xe8>
 80003d6:	deff      	udf	#255	; 0xff
 80003d8:	fab2 f282 	clz	r2, r2
 80003dc:	2a00      	cmp	r2, #0
 80003de:	f040 808f 	bne.w	8000500 <__udivmoddi4+0x210>
 80003e2:	1b49      	subs	r1, r1, r5
 80003e4:	ea4f 4e15 	mov.w	lr, r5, lsr #16
 80003e8:	fa1f f885 	uxth.w	r8, r5
 80003ec:	2701      	movs	r7, #1
 80003ee:	fbb1 fcfe 	udiv	ip, r1, lr
 80003f2:	0c23      	lsrs	r3, r4, #16
 80003f4:	fb0e 111c 	mls	r1, lr, ip, r1
 80003f8:	ea43 4301 	orr.w	r3, r3, r1, lsl #16
 80003fc:	fb08 f10c 	mul.w	r1, r8, ip
 8000400:	4299      	cmp	r1, r3
 8000402:	d907      	bls.n	8000414 <__udivmoddi4+0x124>
 8000404:	18eb      	adds	r3, r5, r3
 8000406:	f10c 30ff 	add.w	r0, ip, #4294967295
 800040a:	d202      	bcs.n	8000412 <__udivmoddi4+0x122>
 800040c:	4299      	cmp	r1, r3
 800040e:	f200 80cd 	bhi.w	80005ac <__udivmoddi4+0x2bc>
 8000412:	4684      	mov	ip, r0
 8000414:	1a59      	subs	r1, r3, r1
 8000416:	b2a3      	uxth	r3, r4
 8000418:	fbb1 f0fe 	udiv	r0, r1, lr
 800041c:	fb0e 1410 	mls	r4, lr, r0, r1
 8000420:	ea43 4404 	orr.w	r4, r3, r4, lsl #16
 8000424:	fb08 f800 	mul.w	r8, r8, r0
 8000428:	45a0      	cmp	r8, r4
 800042a:	d907      	bls.n	800043c <__udivmoddi4+0x14c>
 800042c:	192c      	adds	r4, r5, r4
 800042e:	f100 33ff 	add.w	r3, r0, #4294967295
 8000432:	d202      	bcs.n	800043a <__udivmoddi4+0x14a>
 8000434:	45a0      	cmp	r8, r4
 8000436:	f200 80b6 	bhi.w	80005a6 <__udivmoddi4+0x2b6>
 800043a:	4618      	mov	r0, r3
 800043c:	eba4 0408 	sub.w	r4, r4, r8
 8000440:	ea40 400c 	orr.w	r0, r0, ip, lsl #16
 8000444:	e79f      	b.n	8000386 <__udivmoddi4+0x96>
 8000446:	f1c7 0c20 	rsb	ip, r7, #32
 800044a:	40bb      	lsls	r3, r7
 800044c:	fa22 fe0c 	lsr.w	lr, r2, ip
 8000450:	ea4e 0e03 	orr.w	lr, lr, r3
 8000454:	fa01 f407 	lsl.w	r4, r1, r7
 8000458:	fa20 f50c 	lsr.w	r5, r0, ip
 800045c:	fa21 f30c 	lsr.w	r3, r1, ip
 8000460:	ea4f 481e 	mov.w	r8, lr, lsr #16
 8000464:	4325      	orrs	r5, r4
 8000466:	fbb3 f9f8 	udiv	r9, r3, r8
 800046a:	0c2c      	lsrs	r4, r5, #16
 800046c:	fb08 3319 	mls	r3, r8, r9, r3
 8000470:	fa1f fa8e 	uxth.w	sl, lr
 8000474:	ea44 4303 	orr.w	r3, r4, r3, lsl #16
 8000478:	fb09 f40a 	mul.w	r4, r9, sl
 800047c:	429c      	cmp	r4, r3
 800047e:	fa02 f207 	lsl.w	r2, r2, r7
 8000482:	fa00 f107 	lsl.w	r1, r0, r7
 8000486:	d90b      	bls.n	80004a0 <__udivmoddi4+0x1b0>
 8000488:	eb1e 0303 	adds.w	r3, lr, r3
 800048c:	f109 30ff 	add.w	r0, r9, #4294967295
 8000490:	f080 8087 	bcs.w	80005a2 <__udivmoddi4+0x2b2>
 8000494:	429c      	cmp	r4, r3
 8000496:	f240 8084 	bls.w	80005a2 <__udivmoddi4+0x2b2>
 800049a:	f1a9 0902 	sub.w	r9, r9, #2
 800049e:	4473      	add	r3, lr
 80004a0:	1b1b      	subs	r3, r3, r4
 80004a2:	b2ad      	uxth	r5, r5
 80004a4:	fbb3 f0f8 	udiv	r0, r3, r8
 80004a8:	fb08 3310 	mls	r3, r8, r0, r3
 80004ac:	ea45 4403 	orr.w	r4, r5, r3, lsl #16
 80004b0:	fb00 fa0a 	mul.w	sl, r0, sl
 80004b4:	45a2      	cmp	sl, r4
 80004b6:	d908      	bls.n	80004ca <__udivmoddi4+0x1da>
 80004b8:	eb1e 0404 	adds.w	r4, lr, r4
 80004bc:	f100 33ff 	add.w	r3, r0, #4294967295
 80004c0:	d26b      	bcs.n	800059a <__udivmoddi4+0x2aa>
 80004c2:	45a2      	cmp	sl, r4
 80004c4:	d969      	bls.n	800059a <__udivmoddi4+0x2aa>
 80004c6:	3802      	subs	r0, #2
 80004c8:	4474      	add	r4, lr
 80004ca:	ea40 4009 	orr.w	r0, r0, r9, lsl #16
 80004ce:	fba0 8902 	umull	r8, r9, r0, r2
 80004d2:	eba4 040a 	sub.w	r4, r4, sl
 80004d6:	454c      	cmp	r4, r9
 80004d8:	46c2      	mov	sl, r8
 80004da:	464b      	mov	r3, r9
 80004dc:	d354      	bcc.n	8000588 <__udivmoddi4+0x298>
 80004de:	d051      	beq.n	8000584 <__udivmoddi4+0x294>
 80004e0:	2e00      	cmp	r6, #0
 80004e2:	d069      	beq.n	80005b8 <__udivmoddi4+0x2c8>
 80004e4:	ebb1 050a 	subs.w	r5, r1, sl
 80004e8:	eb64 0403 	sbc.w	r4, r4, r3
 80004ec:	fa04 fc0c 	lsl.w	ip, r4, ip
 80004f0:	40fd      	lsrs	r5, r7
 80004f2:	40fc      	lsrs	r4, r7
 80004f4:	ea4c 0505 	orr.w	r5, ip, r5
 80004f8:	e9c6 5400 	strd	r5, r4, [r6]
 80004fc:	2700      	movs	r7, #0
 80004fe:	e747      	b.n	8000390 <__udivmoddi4+0xa0>
 8000500:	f1c2 0320 	rsb	r3, r2, #32
 8000504:	fa20 f703 	lsr.w	r7, r0, r3
 8000508:	4095      	lsls	r5, r2
 800050a:	fa01 f002 	lsl.w	r0, r1, r2
 800050e:	fa21 f303 	lsr.w	r3, r1, r3
 8000512:	ea4f 4e15 	mov.w	lr, r5, lsr #16
 8000516:	4338      	orrs	r0, r7
 8000518:	0c01      	lsrs	r1, r0, #16
 800051a:	fbb3 f7fe 	udiv	r7, r3, lr
 800051e:	fa1f f885 	uxth.w	r8, r5
 8000522:	fb0e 3317 	mls	r3, lr, r7, r3
 8000526:	ea41 4103 	orr.w	r1, r1, r3, lsl #16
 800052a:	fb07 f308 	mul.w	r3, r7, r8
 800052e:	428b      	cmp	r3, r1
 8000530:	fa04 f402 	lsl.w	r4, r4, r2
 8000534:	d907      	bls.n	8000546 <__udivmoddi4+0x256>
 8000536:	1869      	adds	r1, r5, r1
 8000538:	f107 3cff 	add.w	ip, r7, #4294967295
 800053c:	d22f      	bcs.n	800059e <__udivmoddi4+0x2ae>
 800053e:	428b      	cmp	r3, r1
 8000540:	d92d      	bls.n	800059e <__udivmoddi4+0x2ae>
 8000542:	3f02      	subs	r7, #2
 8000544:	4429      	add	r1, r5
 8000546:	1acb      	subs	r3, r1, r3
 8000548:	b281      	uxth	r1, r0
 800054a:	fbb3 f0fe 	udiv	r0, r3, lr
 800054e:	fb0e 3310 	mls	r3, lr, r0, r3
 8000552:	ea41 4103 	orr.w	r1, r1, r3, lsl #16
 8000556:	fb00 f308 	mul.w	r3, r0, r8
 800055a:	428b      	cmp	r3, r1
 800055c:	d907      	bls.n	800056e <__udivmoddi4+0x27e>
 800055e:	1869      	adds	r1, r5, r1
 8000560:	f100 3cff 	add.w	ip, r0, #4294967295
 8000564:	d217      	bcs.n	8000596 <__udivmoddi4+0x2a6>
 8000566:	428b      	cmp	r3, r1
 8000568:	d915      	bls.n	8000596 <__udivmoddi4+0x2a6>
 800056a:	3802      	subs	r0, #2
 800056c:	4429      	add	r1, r5
 800056e:	1ac9      	subs	r1, r1, r3
 8000570:	ea40 4707 	orr.w	r7, r0, r7, lsl #16
 8000574:	e73b      	b.n	80003ee <__udivmoddi4+0xfe>
 8000576:	4637      	mov	r7, r6
 8000578:	4630      	mov	r0, r6
 800057a:	e709      	b.n	8000390 <__udivmoddi4+0xa0>
 800057c:	4607      	mov	r7, r0
 800057e:	e6e7      	b.n	8000350 <__udivmoddi4+0x60>
 8000580:	4618      	mov	r0, r3
 8000582:	e6fb      	b.n	800037c <__udivmoddi4+0x8c>
 8000584:	4541      	cmp	r1, r8
 8000586:	d2ab      	bcs.n	80004e0 <__udivmoddi4+0x1f0>
 8000588:	ebb8 0a02 	subs.w	sl, r8, r2
 800058c:	eb69 020e 	sbc.w	r2, r9, lr
 8000590:	3801      	subs	r0, #1
 8000592:	4613      	mov	r3, r2
 8000594:	e7a4      	b.n	80004e0 <__udivmoddi4+0x1f0>
 8000596:	4660      	mov	r0, ip
 8000598:	e7e9      	b.n	800056e <__udivmoddi4+0x27e>
 800059a:	4618      	mov	r0, r3
 800059c:	e795      	b.n	80004ca <__udivmoddi4+0x1da>
 800059e:	4667      	mov	r7, ip
 80005a0:	e7d1      	b.n	8000546 <__udivmoddi4+0x256>
 80005a2:	4681      	mov	r9, r0
 80005a4:	e77c      	b.n	80004a0 <__udivmoddi4+0x1b0>
 80005a6:	3802      	subs	r0, #2
 80005a8:	442c      	add	r4, r5
 80005aa:	e747      	b.n	800043c <__udivmoddi4+0x14c>
 80005ac:	f1ac 0c02 	sub.w	ip, ip, #2
 80005b0:	442b      	add	r3, r5
 80005b2:	e72f      	b.n	8000414 <__udivmoddi4+0x124>
 80005b4:	4638      	mov	r0, r7
 80005b6:	e708      	b.n	80003ca <__udivmoddi4+0xda>
 80005b8:	4637      	mov	r7, r6
 80005ba:	e6e9      	b.n	8000390 <__udivmoddi4+0xa0>

080005bc <__aeabi_idiv0>:
 80005bc:	4770      	bx	lr
 80005be:	bf00      	nop

080005c0 <min>:
	return 	SCH_NO_TIMEOUT_ID;
}

int min(int x, int y){
	return y ^ ((x ^ y) & -(x < y));
}
 80005c0:	4288      	cmp	r0, r1
 80005c2:	bfa8      	it	ge
 80005c4:	4608      	movge	r0, r1
 80005c6:	4770      	bx	lr

080005c8 <maximum>:

int maximum(int arr[], int n){
 80005c8:	b510      	push	{r4, lr}
	int max;
	max = arr[0];
 80005ca:	6802      	ldr	r2, [r0, #0]
	for(int i = 1; i < n; i++){
 80005cc:	2301      	movs	r3, #1
 80005ce:	428b      	cmp	r3, r1
 80005d0:	db01      	blt.n	80005d6 <maximum+0xe>
			max = arr[i];
		}
	}
	return max;

}
 80005d2:	4610      	mov	r0, r2
 80005d4:	bd10      	pop	{r4, pc}
 80005d6:	f850 4023 	ldr.w	r4, [r0, r3, lsl #2]
 80005da:	42a2      	cmp	r2, r4
 80005dc:	bfb8      	it	lt
 80005de:	4622      	movlt	r2, r4
	for(int i = 1; i < n; i++){
 80005e0:	3301      	adds	r3, #1
 80005e2:	e7f4      	b.n	80005ce <maximum+0x6>

080005e4 <gcd>:
		}
	}
    return 1;
}

int gcd(int a, int b){
 80005e4:	b510      	push	{r4, lr}
 80005e6:	4602      	mov	r2, r0
 80005e8:	460c      	mov	r4, r1
	int limit;
	limit = min(a,b);
 80005ea:	f7ff ffe9 	bl	80005c0 <min>
	for(int n = (int)limit; n >= 2; n--)
 80005ee:	2801      	cmp	r0, #1
 80005f0:	dc01      	bgt.n	80005f6 <gcd+0x12>
	{
		if ( (a % n == 0) && (b % n == 0)) {
			return n;
		}
	}
    return 1;
 80005f2:	2001      	movs	r0, #1
}
 80005f4:	bd10      	pop	{r4, pc}
		if ( (a % n == 0) && (b % n == 0)) {
 80005f6:	fb92 f3f0 	sdiv	r3, r2, r0
 80005fa:	fb00 2313 	mls	r3, r0, r3, r2
 80005fe:	b92b      	cbnz	r3, 800060c <gcd+0x28>
 8000600:	fb94 f3f0 	sdiv	r3, r4, r0
 8000604:	fb00 4313 	mls	r3, r0, r3, r4
 8000608:	2b00      	cmp	r3, #0
 800060a:	d0f3      	beq.n	80005f4 <gcd+0x10>
	for(int n = (int)limit; n >= 2; n--)
 800060c:	3801      	subs	r0, #1
 800060e:	e7ee      	b.n	80005ee <gcd+0xa>

08000610 <lcm>:

int lcm(int a, int b, int c){
 8000610:	b538      	push	{r3, r4, r5, lr}
 8000612:	4615      	mov	r5, r2
	int ans;
	ans = a;
	ans = (ans*b)/(gcd(ans, b));
 8000614:	fb01 f400 	mul.w	r4, r1, r0
 8000618:	f7ff ffe4 	bl	80005e4 <gcd>
	ans = (ans*c)/(gcd(ans, c));
 800061c:	4629      	mov	r1, r5
	ans = (ans*b)/(gcd(ans, b));
 800061e:	fb94 f0f0 	sdiv	r0, r4, r0
	ans = (ans*c)/(gcd(ans, c));
 8000622:	fb05 f400 	mul.w	r4, r5, r0
 8000626:	f7ff ffdd 	bl	80005e4 <gcd>
	return ans;
}
 800062a:	fb94 f0f0 	sdiv	r0, r4, r0
 800062e:	bd38      	pop	{r3, r4, r5, pc}

08000630 <five_point_three>:
		new_f+=1;
	}
	return new_f;
}

int five_point_three(int f, int p[], int D[]){
 8000630:	e92d 41f0 	stmdb	sp!, {r4, r5, r6, r7, r8, lr}
 8000634:	4604      	mov	r4, r0
	for (int i =0; i < 3; i++){
		if (!(2*(f)-gcd(p[i], f) <= D[i])){
 8000636:	ea4f 0840 	mov.w	r8, r0, lsl #1
 800063a:	1f0e      	subs	r6, r1, #4
 800063c:	1f17      	subs	r7, r2, #4
 800063e:	f101 0508 	add.w	r5, r1, #8
 8000642:	4621      	mov	r1, r4
 8000644:	f856 0f04 	ldr.w	r0, [r6, #4]!
 8000648:	f7ff ffcc 	bl	80005e4 <gcd>
 800064c:	f857 3f04 	ldr.w	r3, [r7, #4]!
 8000650:	eba8 0000 	sub.w	r0, r8, r0
 8000654:	4298      	cmp	r0, r3
 8000656:	dc04      	bgt.n	8000662 <five_point_three+0x32>
	for (int i =0; i < 3; i++){
 8000658:	42ae      	cmp	r6, r5
 800065a:	d1f2      	bne.n	8000642 <five_point_three+0x12>
			return -1;
		}
		else{}
	}
	return f;
}
 800065c:	4620      	mov	r0, r4
 800065e:	e8bd 81f0 	ldmia.w	sp!, {r4, r5, r6, r7, r8, pc}
			return -1;
 8000662:	f04f 34ff 	mov.w	r4, #4294967295
 8000666:	e7f9      	b.n	800065c <five_point_three+0x2c>

08000668 <find_frame_size>:

int find_frame_size( int p[], int e[], int D[] ){
 8000668:	b5f8      	push	{r3, r4, r5, r6, r7, lr}
 800066a:	460f      	mov	r7, r1
 800066c:	4604      	mov	r4, r0
 800066e:	4616      	mov	r6, r2
	int f;
	int H;
	H = lcm(p[0], p[1], p[2]);
 8000670:	e9d0 1201 	ldrd	r1, r2, [r0, #4]
 8000674:	6800      	ldr	r0, [r0, #0]
 8000676:	f7ff ffcb 	bl	8000610 <lcm>
	frame_size = maximum(e,n);
 800067a:	2103      	movs	r1, #3
	H = lcm(p[0], p[1], p[2]);
 800067c:	4605      	mov	r5, r0
	frame_size = maximum(e,n);
 800067e:	4638      	mov	r0, r7
 8000680:	f7ff ffa2 	bl	80005c8 <maximum>
	while((H % new_f) != 0){
 8000684:	fb95 f3f0 	sdiv	r3, r5, r0
 8000688:	fb00 5313 	mls	r3, r0, r3, r5
 800068c:	b92b      	cbnz	r3, 800069a <find_frame_size+0x32>
	f = five_point_one(e,3);
	f = five_point_two(f,H);
	f = five_point_three(f,p, D);
 800068e:	4632      	mov	r2, r6
 8000690:	4621      	mov	r1, r4
	if (f == -1){
		//means that optimal frame size not found. Need to split job(s) into smaller execution
		return -1;
	}
	return f;
}
 8000692:	e8bd 40f8 	ldmia.w	sp!, {r3, r4, r5, r6, r7, lr}
	f = five_point_three(f,p, D);
 8000696:	f7ff bfcb 	b.w	8000630 <five_point_three>
		new_f+=1;
 800069a:	3001      	adds	r0, #1
 800069c:	e7f2      	b.n	8000684 <find_frame_size+0x1c>
	...

080006a0 <sch_power_up>:

/**
  * sch_power_up () - power up (tasks/system) SCHEDULING module
  */
void sch_power_up ( void )
{
 80006a0:	b5f0      	push	{r4, r5, r6, r7, lr}
 80006a2:	2300      	movs	r3, #0
	uint8_t i;
	//sch_timeout_ticks[MAX_TIMEOUTS];
	for(i=0; i< MAX_TIMEOUTS; i++)
	{
		sch_timeout_state[i] = SCH_STATE_IDLE;
 80006a4:	f8df e074 	ldr.w	lr, [pc, #116]	; 800071c <sch_power_up+0x7c>
		sch_timeout_order[i] = (i+1)%MAX_TIMEOUTS;
 80006a8:	4c14      	ldr	r4, [pc, #80]	; (80006fc <sch_power_up+0x5c>)
		sch_callback_funcs[i] = (sch_cb_func_t)NULL; //sch_default_callback;
 80006aa:	f8df c074 	ldr.w	ip, [pc, #116]	; 8000720 <sch_power_up+0x80>
		sch_callback_name[i] = str_NONE;
 80006ae:	4e14      	ldr	r6, [pc, #80]	; (8000700 <sch_power_up+0x60>)
 80006b0:	4f14      	ldr	r7, [pc, #80]	; (8000704 <sch_power_up+0x64>)
		sch_timeout_state[i] = SCH_STATE_IDLE;
 80006b2:	461a      	mov	r2, r3
		sch_timeout_order[i] = (i+1)%MAX_TIMEOUTS;
 80006b4:	251e      	movs	r5, #30
 80006b6:	1c59      	adds	r1, r3, #1
	for(i=0; i< MAX_TIMEOUTS; i++)
 80006b8:	291e      	cmp	r1, #30
		sch_timeout_order[i] = (i+1)%MAX_TIMEOUTS;
 80006ba:	fb91 f0f5 	sdiv	r0, r1, r5
 80006be:	fb05 1010 	mls	r0, r5, r0, r1
		sch_timeout_state[i] = SCH_STATE_IDLE;
 80006c2:	f803 200e 	strb.w	r2, [r3, lr]
		sch_timeout_order[i] = (i+1)%MAX_TIMEOUTS;
 80006c6:	5518      	strb	r0, [r3, r4]
		sch_callback_funcs[i] = (sch_cb_func_t)NULL; //sch_default_callback;
 80006c8:	f84c 2023 	str.w	r2, [ip, r3, lsl #2]
		sch_callback_name[i] = str_NONE;
 80006cc:	f846 7023 	str.w	r7, [r6, r3, lsl #2]
 80006d0:	460b      	mov	r3, r1
	for(i=0; i< MAX_TIMEOUTS; i++)
 80006d2:	d1f0      	bne.n	80006b6 <sch_power_up+0x16>
	}
	sch_timeout_order[MAX_TIMEOUTS - 1] = SCH_NO_TIMEOUT_ID; // last points to nothing
	sch_timeout_count = MAX_TIMEOUTS; // initially all empty
	sch_tout_head = SCH_NO_TIMEOUT_ID; // empty
 80006d4:	490c      	ldr	r1, [pc, #48]	; (8000708 <sch_power_up+0x68>)



	for(i=0; i< MAX_LOOPS; i++)
	{
		sch_loop_funcs[i] = SCH_NO_FUNC_ID;
 80006d6:	480d      	ldr	r0, [pc, #52]	; (800070c <sch_power_up+0x6c>)
	sch_timeout_order[MAX_TIMEOUTS - 1] = SCH_NO_TIMEOUT_ID; // last points to nothing
 80006d8:	23ff      	movs	r3, #255	; 0xff
	sch_tout_head = SCH_NO_TIMEOUT_ID; // empty
 80006da:	700b      	strb	r3, [r1, #0]
	sch_timeout_order[MAX_TIMEOUTS - 1] = SCH_NO_TIMEOUT_ID; // last points to nothing
 80006dc:	7763      	strb	r3, [r4, #29]
	sch_tout_free = 0; // first empty ID
 80006de:	4b0c      	ldr	r3, [pc, #48]	; (8000710 <sch_power_up+0x70>)
		sch_loop_funcs_on[i] = SCH_FUNC_OFF;
 80006e0:	490c      	ldr	r1, [pc, #48]	; (8000714 <sch_power_up+0x74>)
	sch_tout_free = 0; // first empty ID
 80006e2:	701a      	strb	r2, [r3, #0]
 80006e4:	2300      	movs	r3, #0
		sch_loop_funcs[i] = SCH_NO_FUNC_ID;
 80006e6:	461a      	mov	r2, r3
 80006e8:	f840 2023 	str.w	r2, [r0, r3, lsl #2]
		sch_loop_funcs_on[i] = SCH_FUNC_OFF;
 80006ec:	545a      	strb	r2, [r3, r1]
 80006ee:	3301      	adds	r3, #1
	for(i=0; i< MAX_LOOPS; i++)
 80006f0:	2b0a      	cmp	r3, #10
 80006f2:	d1f9      	bne.n	80006e8 <sch_power_up+0x48>
	}
	sch_timeout_count = 0; // empty
 80006f4:	4b08      	ldr	r3, [pc, #32]	; (8000718 <sch_power_up+0x78>)
 80006f6:	701a      	strb	r2, [r3, #0]

}
 80006f8:	bdf0      	pop	{r4, r5, r6, r7, pc}
 80006fa:	bf00      	nop
 80006fc:	200002f0 	.word	0x200002f0
 8000700:	20000310 	.word	0x20000310
 8000704:	20000004 	.word	0x20000004
 8000708:	200001ec 	.word	0x200001ec
 800070c:	20000120 	.word	0x20000120
 8000710:	200001c0 	.word	0x200001c0
 8000714:	20000269 	.word	0x20000269
 8000718:	200001c1 	.word	0x200001c1
 800071c:	200001c2 	.word	0x200001c2
 8000720:	200001f0 	.word	0x200001f0

08000724 <sch_init>:
  */
void sch_init ( void )
{
	// Any initializations - e.g. periodic scheduler job/task

}
 8000724:	4770      	bx	lr
	...

08000728 <sch_loop>:

/**
  * sch_loop() - executes main loop block (BUT DOES NOT LOOP ITSELF!!!)
  */
void sch_loop( void )
{
 8000728:	e92d 41f0 	stmdb	sp!, {r4, r5, r6, r7, r8, lr}
	GPIO_PinState flag = HAL_GPIO_ReadPin(GPIOC, GPIO_PIN_8);
 800072c:	f44f 7180 	mov.w	r1, #256	; 0x100
{
 8000730:	b088      	sub	sp, #32
	GPIO_PinState flag = HAL_GPIO_ReadPin(GPIOC, GPIO_PIN_8);
 8000732:	4853      	ldr	r0, [pc, #332]	; (8000880 <sch_loop+0x158>)
	HAL_GPIO_WritePin(GPIOC, GPIO_PIN_6, 1); // Pin PC6=1 before FOR loop

	pin1state = (uint8_t)HAL_GPIO_ReadPin(GPIOA, GPIO_PIN_1);
	HAL_GPIO_TogglePin(GPIOA, GPIO_PIN_1); // Task 4 toggle inside FOR loop

	start_time = rtc_get_ticks();
 8000734:	4e53      	ldr	r6, [pc, #332]	; (8000884 <sch_loop+0x15c>)
	for(current_loop_idx=0; current_loop_idx< MAX_LOOPS; current_loop_idx++)
 8000736:	4c54      	ldr	r4, [pc, #336]	; (8000888 <sch_loop+0x160>)
	{
		HAL_GPIO_WritePin(GPIOC, GPIO_PIN_8, 1); // Pin PC8=1 before each loop iteration
 8000738:	4d51      	ldr	r5, [pc, #324]	; (8000880 <sch_loop+0x158>)
		if (sch_loop_funcs_on[current_loop_idx] == SCH_FUNC_ON)
 800073a:	4f54      	ldr	r7, [pc, #336]	; (800088c <sch_loop+0x164>)
		{
			(sch_loop_funcs[current_loop_idx])();			
 800073c:	f8df 8198 	ldr.w	r8, [pc, #408]	; 80008d8 <sch_loop+0x1b0>
	GPIO_PinState flag = HAL_GPIO_ReadPin(GPIOC, GPIO_PIN_8);
 8000740:	f000 fcf2 	bl	8001128 <HAL_GPIO_ReadPin>
	HAL_GPIO_WritePin(GPIOC, GPIO_PIN_6, 1); // Pin PC6=1 before FOR loop
 8000744:	2201      	movs	r2, #1
 8000746:	2140      	movs	r1, #64	; 0x40
 8000748:	484d      	ldr	r0, [pc, #308]	; (8000880 <sch_loop+0x158>)
 800074a:	f000 fcf3 	bl	8001134 <HAL_GPIO_WritePin>
	pin1state = (uint8_t)HAL_GPIO_ReadPin(GPIOA, GPIO_PIN_1);
 800074e:	2102      	movs	r1, #2
 8000750:	484f      	ldr	r0, [pc, #316]	; (8000890 <sch_loop+0x168>)
 8000752:	f000 fce9 	bl	8001128 <HAL_GPIO_ReadPin>
 8000756:	4b4f      	ldr	r3, [pc, #316]	; (8000894 <sch_loop+0x16c>)
	HAL_GPIO_TogglePin(GPIOA, GPIO_PIN_1); // Task 4 toggle inside FOR loop
 8000758:	2102      	movs	r1, #2
	pin1state = (uint8_t)HAL_GPIO_ReadPin(GPIOA, GPIO_PIN_1);
 800075a:	7018      	strb	r0, [r3, #0]
	HAL_GPIO_TogglePin(GPIOA, GPIO_PIN_1); // Task 4 toggle inside FOR loop
 800075c:	484c      	ldr	r0, [pc, #304]	; (8000890 <sch_loop+0x168>)
 800075e:	f000 fcee 	bl	800113e <HAL_GPIO_TogglePin>
	start_time = rtc_get_ticks();
 8000762:	f000 f989 	bl	8000a78 <HAL_GetTick>
	for(current_loop_idx=0; current_loop_idx< MAX_LOOPS; current_loop_idx++)
 8000766:	2200      	movs	r2, #0
	start_time = rtc_get_ticks();
 8000768:	6030      	str	r0, [r6, #0]
	for(current_loop_idx=0; current_loop_idx< MAX_LOOPS; current_loop_idx++)
 800076a:	7022      	strb	r2, [r4, #0]
 800076c:	7823      	ldrb	r3, [r4, #0]
 800076e:	2b09      	cmp	r3, #9
 8000770:	d930      	bls.n	80007d4 <sch_loop+0xac>
		}
		HAL_GPIO_WritePin(GPIOC, GPIO_PIN_8, 0);// Pin PC8=0 et the end of each loop iteration
	}
	HAL_GPIO_WritePin(GPIOC, GPIO_PIN_6, 0); // Pin PC6=1 after FOR loop ends
 8000772:	2200      	movs	r2, #0
 8000774:	2140      	movs	r1, #64	; 0x40
 8000776:	4842      	ldr	r0, [pc, #264]	; (8000880 <sch_loop+0x158>)
	elapsed_time = end_time-start_time;
	total_elapsed_time+= elapsed_time;
	average_time = (float)total_elapsed_time/for_loop_count;
	for_loop_count++;

	while ( (SCH_NO_TIMEOUT_ID != sch_tout_head )
 8000778:	4c47      	ldr	r4, [pc, #284]	; (8000898 <sch_loop+0x170>)
		&& (sch_timeout_ticks[sch_tout_head ] < rtc_get_ticks()) )
 800077a:	4d48      	ldr	r5, [pc, #288]	; (800089c <sch_loop+0x174>)
	HAL_GPIO_WritePin(GPIOC, GPIO_PIN_6, 0); // Pin PC6=1 after FOR loop ends
 800077c:	f000 fcda 	bl	8001134 <HAL_GPIO_WritePin>
	end_time = rtc_get_ticks();
 8000780:	f000 f97a 	bl	8000a78 <HAL_GetTick>
 8000784:	4b46      	ldr	r3, [pc, #280]	; (80008a0 <sch_loop+0x178>)
 8000786:	6018      	str	r0, [r3, #0]
	elapsed_time = end_time-start_time;
 8000788:	6833      	ldr	r3, [r6, #0]
 800078a:	1ac0      	subs	r0, r0, r3
 800078c:	4b45      	ldr	r3, [pc, #276]	; (80008a4 <sch_loop+0x17c>)
 800078e:	6018      	str	r0, [r3, #0]
	total_elapsed_time+= elapsed_time;
 8000790:	4b45      	ldr	r3, [pc, #276]	; (80008a8 <sch_loop+0x180>)
 8000792:	681a      	ldr	r2, [r3, #0]
 8000794:	4410      	add	r0, r2
	average_time = (float)total_elapsed_time/for_loop_count;
 8000796:	4a45      	ldr	r2, [pc, #276]	; (80008ac <sch_loop+0x184>)
	total_elapsed_time+= elapsed_time;
 8000798:	6018      	str	r0, [r3, #0]
	average_time = (float)total_elapsed_time/for_loop_count;
 800079a:	ed92 7a00 	vldr	s14, [r2]
 800079e:	4b44      	ldr	r3, [pc, #272]	; (80008b0 <sch_loop+0x188>)
 80007a0:	ee07 0a90 	vmov	s15, r0
 80007a4:	eef8 6a47 	vcvt.f32.u32	s13, s14
 80007a8:	eef8 7a67 	vcvt.f32.u32	s15, s15
 80007ac:	4626      	mov	r6, r4
 80007ae:	ee87 7aa6 	vdiv.f32	s14, s15, s13
 80007b2:	ed83 7a00 	vstr	s14, [r3]
	for_loop_count++;
 80007b6:	6813      	ldr	r3, [r2, #0]
 80007b8:	3301      	adds	r3, #1
 80007ba:	6013      	str	r3, [r2, #0]
	while ( (SCH_NO_TIMEOUT_ID != sch_tout_head )
 80007bc:	7823      	ldrb	r3, [r4, #0]
 80007be:	2bff      	cmp	r3, #255	; 0xff
 80007c0:	d005      	beq.n	80007ce <sch_loop+0xa6>
		&& (sch_timeout_ticks[sch_tout_head ] < rtc_get_ticks()) )
 80007c2:	f855 7023 	ldr.w	r7, [r5, r3, lsl #2]
 80007c6:	f000 f957 	bl	8000a78 <HAL_GetTick>
 80007ca:	4287      	cmp	r7, r0
 80007cc:	d319      	bcc.n	8000802 <sch_loop+0xda>
		// Execute
		(sch_callback_funcs[timeout_idx ])(sch_callback_context[timeout_idx] );
		// Free the Timer slot for others to use
		sch_timeout_state[timeout_idx] = SCH_STATE_IDLE;
	}
}
 80007ce:	b008      	add	sp, #32
 80007d0:	e8bd 81f0 	ldmia.w	sp!, {r4, r5, r6, r7, r8, pc}
		HAL_GPIO_WritePin(GPIOC, GPIO_PIN_8, 1); // Pin PC8=1 before each loop iteration
 80007d4:	2201      	movs	r2, #1
 80007d6:	f44f 7180 	mov.w	r1, #256	; 0x100
 80007da:	4628      	mov	r0, r5
 80007dc:	f000 fcaa 	bl	8001134 <HAL_GPIO_WritePin>
		if (sch_loop_funcs_on[current_loop_idx] == SCH_FUNC_ON)
 80007e0:	7823      	ldrb	r3, [r4, #0]
 80007e2:	5cfa      	ldrb	r2, [r7, r3]
 80007e4:	2a01      	cmp	r2, #1
 80007e6:	d102      	bne.n	80007ee <sch_loop+0xc6>
			(sch_loop_funcs[current_loop_idx])();			
 80007e8:	f858 3023 	ldr.w	r3, [r8, r3, lsl #2]
 80007ec:	4798      	blx	r3
		HAL_GPIO_WritePin(GPIOC, GPIO_PIN_8, 0);// Pin PC8=0 et the end of each loop iteration
 80007ee:	2200      	movs	r2, #0
 80007f0:	f44f 7180 	mov.w	r1, #256	; 0x100
 80007f4:	4628      	mov	r0, r5
 80007f6:	f000 fc9d 	bl	8001134 <HAL_GPIO_WritePin>
	for(current_loop_idx=0; current_loop_idx< MAX_LOOPS; current_loop_idx++)
 80007fa:	7823      	ldrb	r3, [r4, #0]
 80007fc:	3301      	adds	r3, #1
 80007fe:	7023      	strb	r3, [r4, #0]
 8000800:	e7b4      	b.n	800076c <sch_loop+0x44>
				t4 = __HAL_TIM_GET_COUNTER(&htim4);
 8000802:	4b2c      	ldr	r3, [pc, #176]	; (80008b4 <sch_loop+0x18c>)
 8000804:	681b      	ldr	r3, [r3, #0]
 8000806:	6a5a      	ldr	r2, [r3, #36]	; 0x24
				int32_t expected = ( (1000* (sch_timeout_ticks[sch_tout_head] % 10) ) - (sch_timeout_ticks[sch_tout_head]/CAL_DIV) );
 8000808:	7823      	ldrb	r3, [r4, #0]
 800080a:	f855 0023 	ldr.w	r0, [r5, r3, lsl #2]
 800080e:	230a      	movs	r3, #10
 8000810:	fbb0 f7f3 	udiv	r7, r0, r3
 8000814:	fb03 0017 	mls	r0, r3, r7, r0
 8000818:	f44f 737a 	mov.w	r3, #1000	; 0x3e8
				t4_diff = 10000 - t4;//
 800081c:	f242 7110 	movw	r1, #10000	; 0x2710
				int32_t expected = ( (1000* (sch_timeout_ticks[sch_tout_head] % 10) ) - (sch_timeout_ticks[sch_tout_head]/CAL_DIV) );
 8000820:	4343      	muls	r3, r0
				t4_diff = 10000 - t4;//
 8000822:	1a8a      	subs	r2, r1, r2
				int32_t expected = ( (1000* (sch_timeout_ticks[sch_tout_head] % 10) ) - (sch_timeout_ticks[sch_tout_head]/CAL_DIV) );
 8000824:	1bdb      	subs	r3, r3, r7
					while(expected<0) expected+=10000;
 8000826:	2b00      	cmp	r3, #0
 8000828:	db28      	blt.n	800087c <sch_loop+0x154>
				sprintf(temp_str, "D=%d us\n", diff);
 800082a:	1ad2      	subs	r2, r2, r3
 800082c:	4922      	ldr	r1, [pc, #136]	; (80008b8 <sch_loop+0x190>)
 800082e:	4668      	mov	r0, sp
 8000830:	f001 ff9a 	bl	8002768 <siprintf>
				HAL_UART_Transmit(&huart2, (uint8_t*)temp_str, strlen((char*)temp_str),30);
 8000834:	4668      	mov	r0, sp
 8000836:	f7ff fceb 	bl	8000210 <strlen>
 800083a:	231e      	movs	r3, #30
 800083c:	b282      	uxth	r2, r0
 800083e:	4669      	mov	r1, sp
 8000840:	481e      	ldr	r0, [pc, #120]	; (80008bc <sch_loop+0x194>)
 8000842:	f001 fa9f 	bl	8001d84 <HAL_UART_Transmit>
  \details Disables IRQ interrupts by setting the I-bit in the CPSR.
           Can only be executed in Privileged modes.
 */
__STATIC_FORCEINLINE void __disable_irq(void)
{
  __ASM volatile ("cpsid i" : : : "memory");
 8000846:	b672      	cpsid	i
		ATOMIC(
 8000848:	4a1d      	ldr	r2, [pc, #116]	; (80008c0 <sch_loop+0x198>)
 800084a:	7833      	ldrb	r3, [r6, #0]
 800084c:	4f1d      	ldr	r7, [pc, #116]	; (80008c4 <sch_loop+0x19c>)
 800084e:	5cd1      	ldrb	r1, [r2, r3]
 8000850:	7031      	strb	r1, [r6, #0]
 8000852:	21ee      	movs	r1, #238	; 0xee
 8000854:	54d1      	strb	r1, [r2, r3]
 8000856:	4a1c      	ldr	r2, [pc, #112]	; (80008c8 <sch_loop+0x1a0>)
 8000858:	703b      	strb	r3, [r7, #0]
 800085a:	7813      	ldrb	r3, [r2, #0]
 800085c:	3b01      	subs	r3, #1
 800085e:	7013      	strb	r3, [r2, #0]
  __ASM volatile ("cpsie i" : : : "memory");
 8000860:	b662      	cpsie	i
		(sch_callback_funcs[timeout_idx ])(sch_callback_context[timeout_idx] );
 8000862:	491a      	ldr	r1, [pc, #104]	; (80008cc <sch_loop+0x1a4>)
 8000864:	783b      	ldrb	r3, [r7, #0]
 8000866:	4a1a      	ldr	r2, [pc, #104]	; (80008d0 <sch_loop+0x1a8>)
 8000868:	f851 0023 	ldr.w	r0, [r1, r3, lsl #2]
 800086c:	f852 2023 	ldr.w	r2, [r2, r3, lsl #2]
 8000870:	4790      	blx	r2
		sch_timeout_state[timeout_idx] = SCH_STATE_IDLE;
 8000872:	783b      	ldrb	r3, [r7, #0]
 8000874:	4a17      	ldr	r2, [pc, #92]	; (80008d4 <sch_loop+0x1ac>)
 8000876:	2100      	movs	r1, #0
 8000878:	54d1      	strb	r1, [r2, r3]
 800087a:	e79f      	b.n	80007bc <sch_loop+0x94>
					while(expected<0) expected+=10000;
 800087c:	440b      	add	r3, r1
 800087e:	e7d2      	b.n	8000826 <sch_loop+0xfe>
 8000880:	40020800 	.word	0x40020800
 8000884:	200001e8 	.word	0x200001e8
 8000888:	20000273 	.word	0x20000273
 800088c:	20000269 	.word	0x20000269
 8000890:	40020000 	.word	0x40020000
 8000894:	20000268 	.word	0x20000268
 8000898:	200001ec 	.word	0x200001ec
 800089c:	20000148 	.word	0x20000148
 80008a0:	200001e4 	.word	0x200001e4
 80008a4:	2000011c 	.word	0x2000011c
 80008a8:	20000108 	.word	0x20000108
 80008ac:	20000000 	.word	0x20000000
 80008b0:	20000274 	.word	0x20000274
 80008b4:	2000038c 	.word	0x2000038c
 80008b8:	08003978 	.word	0x08003978
 80008bc:	20000454 	.word	0x20000454
 80008c0:	200002f0 	.word	0x200002f0
 80008c4:	200001e0 	.word	0x200001e0
 80008c8:	200001c1 	.word	0x200001c1
 80008cc:	20000278 	.word	0x20000278
 80008d0:	200001f0 	.word	0x200001f0
 80008d4:	200001c2 	.word	0x200001c2
 80008d8:	20000120 	.word	0x20000120

080008dc <sch_add_loop>:
  * sch_add_loop( sch_loop_func_t loop_func) - sets a new loop function to
  *		be executed every time in the main loop
  *	RETURNS: loop function ID or "SCH_NO_FUNC_ID" if unsuccesful
  */
uint8_t sch_add_loop( sch_loop_func_t loop_func)
{
 80008dc:	b510      	push	{r4, lr}
	uint8_t i = SCH_NO_TIMEOUT_ID;
	for( i= 0; i < MAX_LOOPS; i++)
	{
		if (sch_loop_funcs_on[i] == SCH_FUNC_OFF)
 80008de:	4908      	ldr	r1, [pc, #32]	; (8000900 <sch_add_loop+0x24>)
{
 80008e0:	2300      	movs	r3, #0
		if (sch_loop_funcs_on[i] == SCH_FUNC_OFF)
 80008e2:	5c5c      	ldrb	r4, [r3, r1]
 80008e4:	b2da      	uxtb	r2, r3
 80008e6:	b12c      	cbz	r4, 80008f4 <sch_add_loop+0x18>
 80008e8:	3301      	adds	r3, #1
	for( i= 0; i < MAX_LOOPS; i++)
 80008ea:	2b0a      	cmp	r3, #10
 80008ec:	d1f9      	bne.n	80008e2 <sch_add_loop+0x6>
		sch_loop_funcs[i] = loop_func;
		sch_loop_funcs_on[i] = SCH_FUNC_ON;
		return i;
	}
	// else not found free space
	return 	SCH_NO_TIMEOUT_ID;
 80008ee:	22ff      	movs	r2, #255	; 0xff
}
 80008f0:	4610      	mov	r0, r2
 80008f2:	bd10      	pop	{r4, pc}
		sch_loop_funcs[i] = loop_func;
 80008f4:	4c03      	ldr	r4, [pc, #12]	; (8000904 <sch_add_loop+0x28>)
 80008f6:	f844 0023 	str.w	r0, [r4, r3, lsl #2]
		sch_loop_funcs_on[i] = SCH_FUNC_ON;
 80008fa:	2001      	movs	r0, #1
 80008fc:	54c8      	strb	r0, [r1, r3]
		return i;
 80008fe:	e7f7      	b.n	80008f0 <sch_add_loop+0x14>
 8000900:	20000269 	.word	0x20000269
 8000904:	20000120 	.word	0x20000120

08000908 <get_free_timeout>:
list_index_t get_free_timeout()
{
	list_index_t i;
	for(i=0; i < MAX_TIMEOUTS; i++)
	{
		if ( SCH_STATE_IDLE == sch_timeout_state[i] )
 8000908:	4a09      	ldr	r2, [pc, #36]	; (8000930 <get_free_timeout+0x28>)
{
 800090a:	b508      	push	{r3, lr}
 800090c:	2300      	movs	r3, #0
		if ( SCH_STATE_IDLE == sch_timeout_state[i] )
 800090e:	5c99      	ldrb	r1, [r3, r2]
 8000910:	b2d8      	uxtb	r0, r3
 8000912:	b911      	cbnz	r1, 800091a <get_free_timeout+0x12>
		{
			sch_timeout_state[i]= SCH_STATE_BUSY;
 8000914:	2103      	movs	r1, #3
 8000916:	54d1      	strb	r1, [r2, r3]
			return i;
		}
	}
	printf("NO TIMEOUTS LEFT = %d\n", sch_timeout_count);
	return SCH_NO_TIMEOUT_ID;
}
 8000918:	bd08      	pop	{r3, pc}
 800091a:	3301      	adds	r3, #1
	for(i=0; i < MAX_TIMEOUTS; i++)
 800091c:	2b1e      	cmp	r3, #30
 800091e:	d1f6      	bne.n	800090e <get_free_timeout+0x6>
	printf("NO TIMEOUTS LEFT = %d\n", sch_timeout_count);
 8000920:	4b04      	ldr	r3, [pc, #16]	; (8000934 <get_free_timeout+0x2c>)
 8000922:	4805      	ldr	r0, [pc, #20]	; (8000938 <get_free_timeout+0x30>)
 8000924:	7819      	ldrb	r1, [r3, #0]
 8000926:	f001 ff07 	bl	8002738 <iprintf>
 800092a:	20ff      	movs	r0, #255	; 0xff
 800092c:	e7f4      	b.n	8000918 <get_free_timeout+0x10>
 800092e:	bf00      	nop
 8000930:	200001c2 	.word	0x200001c2
 8000934:	200001c1 	.word	0x200001c1
 8000938:	0800394c 	.word	0x0800394c

0800093c <sch_create_timeout>:
{
 800093c:	e92d 47f0 	stmdb	sp!, {r4, r5, r6, r7, r8, r9, sl, lr}
	list_index_t order_idx = sch_tout_head;
 8000940:	f8df a09c 	ldr.w	sl, [pc, #156]	; 80009e0 <sch_create_timeout+0xa4>
{
 8000944:	461f      	mov	r7, r3
 8000946:	4689      	mov	r9, r1
 8000948:	4690      	mov	r8, r2
 800094a:	4606      	mov	r6, r0
	list_index_t order_idx = sch_tout_head;
 800094c:	f89a 5000 	ldrb.w	r5, [sl]
	tidx = get_free_timeout();
 8000950:	f7ff ffda 	bl	8000908 <get_free_timeout>
	printf("SCH_TO_SET= %d,%s #\n", tidx, name);
 8000954:	463a      	mov	r2, r7
	tidx = get_free_timeout();
 8000956:	4604      	mov	r4, r0
	printf("SCH_TO_SET= %d,%s #\n", tidx, name);
 8000958:	4601      	mov	r1, r0
 800095a:	4819      	ldr	r0, [pc, #100]	; (80009c0 <sch_create_timeout+0x84>)
 800095c:	f001 feec 	bl	8002738 <iprintf>
	if (SCH_NO_TIMEOUT_ID == tidx)
 8000960:	2cff      	cmp	r4, #255	; 0xff
 8000962:	d01e      	beq.n	80009a2 <sch_create_timeout+0x66>
	sch_timeout_count++;
 8000964:	4a17      	ldr	r2, [pc, #92]	; (80009c4 <sch_create_timeout+0x88>)
 8000966:	7813      	ldrb	r3, [r2, #0]
 8000968:	3301      	adds	r3, #1
 800096a:	7013      	strb	r3, [r2, #0]
	sch_timeout_state[tidx] = SCH_STATE_PENDING;
 800096c:	4a16      	ldr	r2, [pc, #88]	; (80009c8 <sch_create_timeout+0x8c>)
	sch_timeout_ticks[tidx] = timeout;
 800096e:	4b17      	ldr	r3, [pc, #92]	; (80009cc <sch_create_timeout+0x90>)
	sch_timeout_state[tidx] = SCH_STATE_PENDING;
 8000970:	2101      	movs	r1, #1
 8000972:	5511      	strb	r1, [r2, r4]
	sch_callback_funcs[tidx] = callback_func;
 8000974:	4a16      	ldr	r2, [pc, #88]	; (80009d0 <sch_create_timeout+0x94>)
	if ((SCH_NO_TIMEOUT_ID == sch_tout_head) || (timeout < sch_timeout_ticks[sch_tout_head]))
 8000976:	f89a 1000 	ldrb.w	r1, [sl]
	sch_callback_funcs[tidx] = callback_func;
 800097a:	f842 9024 	str.w	r9, [r2, r4, lsl #2]
	sch_callback_context[tidx] = t_context;
 800097e:	4a15      	ldr	r2, [pc, #84]	; (80009d4 <sch_create_timeout+0x98>)
	sch_timeout_ticks[tidx] = timeout;
 8000980:	f843 6024 	str.w	r6, [r3, r4, lsl #2]
	sch_callback_context[tidx] = t_context;
 8000984:	f842 8024 	str.w	r8, [r2, r4, lsl #2]
	sch_callback_name[tidx] = name;
 8000988:	4a13      	ldr	r2, [pc, #76]	; (80009d8 <sch_create_timeout+0x9c>)
	if ((SCH_NO_TIMEOUT_ID == sch_tout_head) || (timeout < sch_timeout_ticks[sch_tout_head]))
 800098a:	29ff      	cmp	r1, #255	; 0xff
	sch_callback_name[tidx] = name;
 800098c:	f842 7024 	str.w	r7, [r2, r4, lsl #2]
 8000990:	4a12      	ldr	r2, [pc, #72]	; (80009dc <sch_create_timeout+0xa0>)
	if ((SCH_NO_TIMEOUT_ID == sch_tout_head) || (timeout < sch_timeout_ticks[sch_tout_head]))
 8000992:	d003      	beq.n	800099c <sch_create_timeout+0x60>
 8000994:	f853 0021 	ldr.w	r0, [r3, r1, lsl #2]
 8000998:	42b0      	cmp	r0, r6
 800099a:	d905      	bls.n	80009a8 <sch_create_timeout+0x6c>
		sch_timeout_order[tidx] = sch_tout_head; // put as first
 800099c:	5511      	strb	r1, [r2, r4]
		sch_tout_head = tidx;
 800099e:	f88a 4000 	strb.w	r4, [sl]
}
 80009a2:	4620      	mov	r0, r4
 80009a4:	e8bd 87f0 	ldmia.w	sp!, {r4, r5, r6, r7, r8, r9, sl, pc}
		while ((SCH_NO_TIMEOUT_ID != sch_timeout_order[order_idx])
 80009a8:	4629      	mov	r1, r5
 80009aa:	5d55      	ldrb	r5, [r2, r5]
 80009ac:	2dff      	cmp	r5, #255	; 0xff
 80009ae:	d003      	beq.n	80009b8 <sch_create_timeout+0x7c>
			   && (timeout > sch_timeout_ticks[sch_timeout_order[order_idx]]))
 80009b0:	f853 0025 	ldr.w	r0, [r3, r5, lsl #2]
 80009b4:	42b0      	cmp	r0, r6
 80009b6:	d3f7      	bcc.n	80009a8 <sch_create_timeout+0x6c>
		sch_timeout_order[tidx] = sch_timeout_order[order_idx]; // inherit the next in list
 80009b8:	5515      	strb	r5, [r2, r4]
		sch_timeout_order[order_idx] = tidx; // connect to the previous item (earlier event)
 80009ba:	5454      	strb	r4, [r2, r1]
 80009bc:	e7f1      	b.n	80009a2 <sch_create_timeout+0x66>
 80009be:	bf00      	nop
 80009c0:	08003963 	.word	0x08003963
 80009c4:	200001c1 	.word	0x200001c1
 80009c8:	200001c2 	.word	0x200001c2
 80009cc:	20000148 	.word	0x20000148
 80009d0:	200001f0 	.word	0x200001f0
 80009d4:	20000278 	.word	0x20000278
 80009d8:	20000310 	.word	0x20000310
 80009dc:	200002f0 	.word	0x200002f0
 80009e0:	200001ec 	.word	0x200001ec

080009e4 <HAL_InitTick>:
  *       implementation  in user file.
  * @param TickPriority Tick interrupt priority.
  * @retval HAL status
  */
__weak HAL_StatusTypeDef HAL_InitTick(uint32_t TickPriority)
{
 80009e4:	b538      	push	{r3, r4, r5, lr}
  /* Configure the SysTick to have interrupt in 1ms time basis*/
  if (HAL_SYSTICK_Config(SystemCoreClock / (1000U / uwTickFreq)) > 0U)
 80009e6:	4a0e      	ldr	r2, [pc, #56]	; (8000a20 <HAL_InitTick+0x3c>)
 80009e8:	4b0e      	ldr	r3, [pc, #56]	; (8000a24 <HAL_InitTick+0x40>)
{
 80009ea:	4605      	mov	r5, r0
  if (HAL_SYSTICK_Config(SystemCoreClock / (1000U / uwTickFreq)) > 0U)
 80009ec:	7818      	ldrb	r0, [r3, #0]
 80009ee:	f44f 737a 	mov.w	r3, #1000	; 0x3e8
 80009f2:	fbb3 f3f0 	udiv	r3, r3, r0
 80009f6:	6810      	ldr	r0, [r2, #0]
 80009f8:	fbb0 f0f3 	udiv	r0, r0, r3
 80009fc:	f000 faa4 	bl	8000f48 <HAL_SYSTICK_Config>
 8000a00:	4604      	mov	r4, r0
 8000a02:	b958      	cbnz	r0, 8000a1c <HAL_InitTick+0x38>
  {
    return HAL_ERROR;
  }

  /* Configure the SysTick IRQ priority */
  if (TickPriority < (1UL << __NVIC_PRIO_BITS))
 8000a04:	2d0f      	cmp	r5, #15
 8000a06:	d809      	bhi.n	8000a1c <HAL_InitTick+0x38>
  {
    HAL_NVIC_SetPriority(SysTick_IRQn, TickPriority, 0U);
 8000a08:	4602      	mov	r2, r0
 8000a0a:	4629      	mov	r1, r5
 8000a0c:	f04f 30ff 	mov.w	r0, #4294967295
 8000a10:	f000 fa58 	bl	8000ec4 <HAL_NVIC_SetPriority>
    uwTickPrio = TickPriority;
 8000a14:	4b04      	ldr	r3, [pc, #16]	; (8000a28 <HAL_InitTick+0x44>)
 8000a16:	4620      	mov	r0, r4
 8000a18:	601d      	str	r5, [r3, #0]
    return HAL_ERROR;
  }

  /* Return function status */
  return HAL_OK;
}
 8000a1a:	bd38      	pop	{r3, r4, r5, pc}
    return HAL_ERROR;
 8000a1c:	2001      	movs	r0, #1
 8000a1e:	e7fc      	b.n	8000a1a <HAL_InitTick+0x36>
 8000a20:	20000010 	.word	0x20000010
 8000a24:	20000009 	.word	0x20000009
 8000a28:	2000000c 	.word	0x2000000c

08000a2c <HAL_Init>:
{
 8000a2c:	b508      	push	{r3, lr}
  __HAL_FLASH_INSTRUCTION_CACHE_ENABLE();
 8000a2e:	4b0b      	ldr	r3, [pc, #44]	; (8000a5c <HAL_Init+0x30>)
 8000a30:	681a      	ldr	r2, [r3, #0]
 8000a32:	f442 7200 	orr.w	r2, r2, #512	; 0x200
 8000a36:	601a      	str	r2, [r3, #0]
  __HAL_FLASH_DATA_CACHE_ENABLE();
 8000a38:	681a      	ldr	r2, [r3, #0]
 8000a3a:	f442 6280 	orr.w	r2, r2, #1024	; 0x400
 8000a3e:	601a      	str	r2, [r3, #0]
  __HAL_FLASH_PREFETCH_BUFFER_ENABLE();
 8000a40:	681a      	ldr	r2, [r3, #0]
 8000a42:	f442 7280 	orr.w	r2, r2, #256	; 0x100
 8000a46:	601a      	str	r2, [r3, #0]
  HAL_NVIC_SetPriorityGrouping(NVIC_PRIORITYGROUP_4);
 8000a48:	2003      	movs	r0, #3
 8000a4a:	f000 fa29 	bl	8000ea0 <HAL_NVIC_SetPriorityGrouping>
  HAL_InitTick(TICK_INT_PRIORITY);
 8000a4e:	2000      	movs	r0, #0
 8000a50:	f7ff ffc8 	bl	80009e4 <HAL_InitTick>
  HAL_MspInit();
 8000a54:	f001 fbe6 	bl	8002224 <HAL_MspInit>
}
 8000a58:	2000      	movs	r0, #0
 8000a5a:	bd08      	pop	{r3, pc}
 8000a5c:	40023c00 	.word	0x40023c00

08000a60 <HAL_IncTick>:
  *      implementations in user file.
  * @retval None
  */
__weak void HAL_IncTick(void)
{
  uwTick += uwTickFreq;
 8000a60:	4a03      	ldr	r2, [pc, #12]	; (8000a70 <HAL_IncTick+0x10>)
 8000a62:	4b04      	ldr	r3, [pc, #16]	; (8000a74 <HAL_IncTick+0x14>)
 8000a64:	6811      	ldr	r1, [r2, #0]
 8000a66:	781b      	ldrb	r3, [r3, #0]
 8000a68:	440b      	add	r3, r1
 8000a6a:	6013      	str	r3, [r2, #0]
}
 8000a6c:	4770      	bx	lr
 8000a6e:	bf00      	nop
 8000a70:	20000388 	.word	0x20000388
 8000a74:	20000009 	.word	0x20000009

08000a78 <HAL_GetTick>:
  *       implementations in user file.
  * @retval tick value
  */
__weak uint32_t HAL_GetTick(void)
{
  return uwTick;
 8000a78:	4b01      	ldr	r3, [pc, #4]	; (8000a80 <HAL_GetTick+0x8>)
 8000a7a:	6818      	ldr	r0, [r3, #0]
}
 8000a7c:	4770      	bx	lr
 8000a7e:	bf00      	nop
 8000a80:	20000388 	.word	0x20000388

08000a84 <HAL_ADC_Init>:
  * @param  hadc pointer to a ADC_HandleTypeDef structure that contains
  *         the configuration information for the specified ADC.  
  * @retval HAL status
  */
HAL_StatusTypeDef HAL_ADC_Init(ADC_HandleTypeDef* hadc)
{
 8000a84:	b538      	push	{r3, r4, r5, lr}
  HAL_StatusTypeDef tmp_hal_status = HAL_OK;
  
  /* Check ADC handle */
  if(hadc == NULL)
 8000a86:	4604      	mov	r4, r0
 8000a88:	2800      	cmp	r0, #0
 8000a8a:	f000 809b 	beq.w	8000bc4 <HAL_ADC_Init+0x140>
  if(hadc->Init.ExternalTrigConv != ADC_SOFTWARE_START)
  {
    assert_param(IS_ADC_EXT_TRIG_EDGE(hadc->Init.ExternalTrigConvEdge));
  }
  
  if(hadc->State == HAL_ADC_STATE_RESET)
 8000a8e:	6c05      	ldr	r5, [r0, #64]	; 0x40
 8000a90:	b925      	cbnz	r5, 8000a9c <HAL_ADC_Init+0x18>

    /* Init the low level hardware */
    hadc->MspInitCallback(hadc);
#else
    /* Init the low level hardware */
    HAL_ADC_MspInit(hadc);
 8000a92:	f001 fbe5 	bl	8002260 <HAL_ADC_MspInit>
#endif /* USE_HAL_ADC_REGISTER_CALLBACKS */

    /* Initialize ADC error code */
    ADC_CLEAR_ERRORCODE(hadc);
 8000a96:	6465      	str	r5, [r4, #68]	; 0x44
    
    /* Allocate lock resource and initialize it */
    hadc->Lock = HAL_UNLOCKED;
 8000a98:	f884 503c 	strb.w	r5, [r4, #60]	; 0x3c
  }
  
  /* Configuration of ADC parameters if previous preliminary actions are      */ 
  /* correctly completed.                                                     */
  if (HAL_IS_BIT_CLR(hadc->State, HAL_ADC_STATE_ERROR_INTERNAL))
 8000a9c:	6c23      	ldr	r3, [r4, #64]	; 0x40
 8000a9e:	06db      	lsls	r3, r3, #27
 8000aa0:	f100 808e 	bmi.w	8000bc0 <HAL_ADC_Init+0x13c>
  {
    /* Set ADC state */
    ADC_STATE_CLR_SET(hadc->State,
 8000aa4:	6c23      	ldr	r3, [r4, #64]	; 0x40
 8000aa6:	f423 5388 	bic.w	r3, r3, #4352	; 0x1100
 8000aaa:	f023 0302 	bic.w	r3, r3, #2
 8000aae:	f043 0302 	orr.w	r3, r3, #2
 8000ab2:	6423      	str	r3, [r4, #64]	; 0x40
  /* (Depending on STM32F4 product, there may be up to 3 ADCs and 1 common */
  /* control register)                                                    */
  tmpADC_Common = ADC_COMMON_REGISTER(hadc);
  
  /* Set the ADC clock prescaler */
  tmpADC_Common->CCR &= ~(ADC_CCR_ADCPRE);
 8000ab4:	4b44      	ldr	r3, [pc, #272]	; (8000bc8 <HAL_ADC_Init+0x144>)
 8000ab6:	685a      	ldr	r2, [r3, #4]
 8000ab8:	f422 3240 	bic.w	r2, r2, #196608	; 0x30000
 8000abc:	605a      	str	r2, [r3, #4]
  tmpADC_Common->CCR |=  hadc->Init.ClockPrescaler;
 8000abe:	685a      	ldr	r2, [r3, #4]
 8000ac0:	6861      	ldr	r1, [r4, #4]
 8000ac2:	430a      	orrs	r2, r1
 8000ac4:	605a      	str	r2, [r3, #4]
  
  /* Set ADC scan mode */
  hadc->Instance->CR1 &= ~(ADC_CR1_SCAN);
 8000ac6:	6823      	ldr	r3, [r4, #0]
  hadc->Instance->CR1 |=  ADC_CR1_SCANCONV(hadc->Init.ScanConvMode);
 8000ac8:	6921      	ldr	r1, [r4, #16]
  hadc->Instance->CR1 &= ~(ADC_CR1_SCAN);
 8000aca:	685a      	ldr	r2, [r3, #4]
 8000acc:	f422 7280 	bic.w	r2, r2, #256	; 0x100
 8000ad0:	605a      	str	r2, [r3, #4]
  hadc->Instance->CR1 |=  ADC_CR1_SCANCONV(hadc->Init.ScanConvMode);
 8000ad2:	685a      	ldr	r2, [r3, #4]
 8000ad4:	ea42 2201 	orr.w	r2, r2, r1, lsl #8
 8000ad8:	605a      	str	r2, [r3, #4]
  
  /* Set ADC resolution */
  hadc->Instance->CR1 &= ~(ADC_CR1_RES);
 8000ada:	685a      	ldr	r2, [r3, #4]
  hadc->Instance->CR1 |=  hadc->Init.Resolution;
 8000adc:	68a1      	ldr	r1, [r4, #8]
  hadc->Instance->CR1 &= ~(ADC_CR1_RES);
 8000ade:	f022 7240 	bic.w	r2, r2, #50331648	; 0x3000000
 8000ae2:	605a      	str	r2, [r3, #4]
  hadc->Instance->CR1 |=  hadc->Init.Resolution;
 8000ae4:	685a      	ldr	r2, [r3, #4]
 8000ae6:	430a      	orrs	r2, r1
 8000ae8:	605a      	str	r2, [r3, #4]
  
  /* Set ADC data alignment */
  hadc->Instance->CR2 &= ~(ADC_CR2_ALIGN);
 8000aea:	689a      	ldr	r2, [r3, #8]
  hadc->Instance->CR2 |= hadc->Init.DataAlign;
 8000aec:	68e1      	ldr	r1, [r4, #12]
  hadc->Instance->CR2 &= ~(ADC_CR2_ALIGN);
 8000aee:	f422 6200 	bic.w	r2, r2, #2048	; 0x800
 8000af2:	609a      	str	r2, [r3, #8]
  hadc->Instance->CR2 |= hadc->Init.DataAlign;
 8000af4:	689a      	ldr	r2, [r3, #8]
 8000af6:	430a      	orrs	r2, r1
 8000af8:	609a      	str	r2, [r3, #8]
  /* Enable external trigger if trigger selection is different of software  */
  /* start.                                                                 */
  /* Note: This configuration keeps the hardware feature of parameter       */
  /*       ExternalTrigConvEdge "trigger edge none" equivalent to           */
  /*       software start.                                                  */
  if(hadc->Init.ExternalTrigConv != ADC_SOFTWARE_START)
 8000afa:	4934      	ldr	r1, [pc, #208]	; (8000bcc <HAL_ADC_Init+0x148>)
 8000afc:	6aa2      	ldr	r2, [r4, #40]	; 0x28
 8000afe:	428a      	cmp	r2, r1
 8000b00:	d052      	beq.n	8000ba8 <HAL_ADC_Init+0x124>
  {
    /* Select external trigger to start conversion */
    hadc->Instance->CR2 &= ~(ADC_CR2_EXTSEL);
 8000b02:	6899      	ldr	r1, [r3, #8]
 8000b04:	f021 6170 	bic.w	r1, r1, #251658240	; 0xf000000
 8000b08:	6099      	str	r1, [r3, #8]
    hadc->Instance->CR2 |= hadc->Init.ExternalTrigConv;
 8000b0a:	6899      	ldr	r1, [r3, #8]
 8000b0c:	430a      	orrs	r2, r1
 8000b0e:	609a      	str	r2, [r3, #8]
    
    /* Select external trigger polarity */
    hadc->Instance->CR2 &= ~(ADC_CR2_EXTEN);
 8000b10:	689a      	ldr	r2, [r3, #8]
    hadc->Instance->CR2 |= hadc->Init.ExternalTrigConvEdge;
 8000b12:	6ae1      	ldr	r1, [r4, #44]	; 0x2c
    hadc->Instance->CR2 &= ~(ADC_CR2_EXTEN);
 8000b14:	f022 5240 	bic.w	r2, r2, #805306368	; 0x30000000
 8000b18:	609a      	str	r2, [r3, #8]
    hadc->Instance->CR2 |= hadc->Init.ExternalTrigConvEdge;
 8000b1a:	689a      	ldr	r2, [r3, #8]
 8000b1c:	430a      	orrs	r2, r1
  }
  else
  {
    /* Reset the external trigger */
    hadc->Instance->CR2 &= ~(ADC_CR2_EXTSEL);
    hadc->Instance->CR2 &= ~(ADC_CR2_EXTEN);
 8000b1e:	609a      	str	r2, [r3, #8]
  }
  
  /* Enable or disable ADC continuous conversion mode */
  hadc->Instance->CR2 &= ~(ADC_CR2_CONT);
 8000b20:	689a      	ldr	r2, [r3, #8]
  hadc->Instance->CR2 |= ADC_CR2_CONTINUOUS((uint32_t)hadc->Init.ContinuousConvMode);
 8000b22:	7e21      	ldrb	r1, [r4, #24]
  hadc->Instance->CR2 &= ~(ADC_CR2_CONT);
 8000b24:	f022 0202 	bic.w	r2, r2, #2
 8000b28:	609a      	str	r2, [r3, #8]
  hadc->Instance->CR2 |= ADC_CR2_CONTINUOUS((uint32_t)hadc->Init.ContinuousConvMode);
 8000b2a:	689a      	ldr	r2, [r3, #8]
 8000b2c:	ea42 0241 	orr.w	r2, r2, r1, lsl #1
 8000b30:	609a      	str	r2, [r3, #8]
  
  if(hadc->Init.DiscontinuousConvMode != DISABLE)
 8000b32:	f894 2020 	ldrb.w	r2, [r4, #32]
 8000b36:	2a00      	cmp	r2, #0
 8000b38:	d03e      	beq.n	8000bb8 <HAL_ADC_Init+0x134>
  {
    assert_param(IS_ADC_REGULAR_DISC_NUMBER(hadc->Init.NbrOfDiscConversion));
  
    /* Enable the selected ADC regular discontinuous mode */
    hadc->Instance->CR1 |= (uint32_t)ADC_CR1_DISCEN;
 8000b3a:	685a      	ldr	r2, [r3, #4]
    
    /* Set the number of channels to be converted in discontinuous mode */
    hadc->Instance->CR1 &= ~(ADC_CR1_DISCNUM);
    hadc->Instance->CR1 |=  ADC_CR1_DISCONTINUOUS(hadc->Init.NbrOfDiscConversion);
 8000b3c:	6a61      	ldr	r1, [r4, #36]	; 0x24
    hadc->Instance->CR1 |= (uint32_t)ADC_CR1_DISCEN;
 8000b3e:	f442 6200 	orr.w	r2, r2, #2048	; 0x800
 8000b42:	605a      	str	r2, [r3, #4]
    hadc->Instance->CR1 &= ~(ADC_CR1_DISCNUM);
 8000b44:	685a      	ldr	r2, [r3, #4]
 8000b46:	f422 4260 	bic.w	r2, r2, #57344	; 0xe000
 8000b4a:	605a      	str	r2, [r3, #4]
    hadc->Instance->CR1 |=  ADC_CR1_DISCONTINUOUS(hadc->Init.NbrOfDiscConversion);
 8000b4c:	685a      	ldr	r2, [r3, #4]
 8000b4e:	3901      	subs	r1, #1
 8000b50:	ea42 3241 	orr.w	r2, r2, r1, lsl #13
  }
  else
  {
    /* Disable the selected ADC regular discontinuous mode */
    hadc->Instance->CR1 &= ~(ADC_CR1_DISCEN);
 8000b54:	605a      	str	r2, [r3, #4]
  }
  
  /* Set ADC number of conversion */
  hadc->Instance->SQR1 &= ~(ADC_SQR1_L);
 8000b56:	6ada      	ldr	r2, [r3, #44]	; 0x2c
  hadc->Instance->SQR1 |=  ADC_SQR1(hadc->Init.NbrOfConversion);
 8000b58:	69e1      	ldr	r1, [r4, #28]
  hadc->Instance->SQR1 &= ~(ADC_SQR1_L);
 8000b5a:	f422 0270 	bic.w	r2, r2, #15728640	; 0xf00000
 8000b5e:	62da      	str	r2, [r3, #44]	; 0x2c
  hadc->Instance->SQR1 |=  ADC_SQR1(hadc->Init.NbrOfConversion);
 8000b60:	6ada      	ldr	r2, [r3, #44]	; 0x2c
 8000b62:	3901      	subs	r1, #1
 8000b64:	ea42 5201 	orr.w	r2, r2, r1, lsl #20
 8000b68:	62da      	str	r2, [r3, #44]	; 0x2c
  
  /* Enable or disable ADC DMA continuous request */
  hadc->Instance->CR2 &= ~(ADC_CR2_DDS);
 8000b6a:	689a      	ldr	r2, [r3, #8]
  hadc->Instance->CR2 |= ADC_CR2_DMAContReq((uint32_t)hadc->Init.DMAContinuousRequests);
 8000b6c:	f894 1030 	ldrb.w	r1, [r4, #48]	; 0x30
  hadc->Instance->CR2 &= ~(ADC_CR2_DDS);
 8000b70:	f422 7200 	bic.w	r2, r2, #512	; 0x200
 8000b74:	609a      	str	r2, [r3, #8]
  hadc->Instance->CR2 |= ADC_CR2_DMAContReq((uint32_t)hadc->Init.DMAContinuousRequests);
 8000b76:	689a      	ldr	r2, [r3, #8]
 8000b78:	ea42 2241 	orr.w	r2, r2, r1, lsl #9
 8000b7c:	609a      	str	r2, [r3, #8]
  
  /* Enable or disable ADC end of conversion selection */
  hadc->Instance->CR2 &= ~(ADC_CR2_EOCS);
 8000b7e:	689a      	ldr	r2, [r3, #8]
  hadc->Instance->CR2 |= ADC_CR2_EOCSelection(hadc->Init.EOCSelection);
 8000b80:	6961      	ldr	r1, [r4, #20]
  hadc->Instance->CR2 &= ~(ADC_CR2_EOCS);
 8000b82:	f422 6280 	bic.w	r2, r2, #1024	; 0x400
 8000b86:	609a      	str	r2, [r3, #8]
  hadc->Instance->CR2 |= ADC_CR2_EOCSelection(hadc->Init.EOCSelection);
 8000b88:	689a      	ldr	r2, [r3, #8]
    ADC_CLEAR_ERRORCODE(hadc);
 8000b8a:	2000      	movs	r0, #0
  hadc->Instance->CR2 |= ADC_CR2_EOCSelection(hadc->Init.EOCSelection);
 8000b8c:	ea42 2281 	orr.w	r2, r2, r1, lsl #10
 8000b90:	609a      	str	r2, [r3, #8]
    ADC_CLEAR_ERRORCODE(hadc);
 8000b92:	6460      	str	r0, [r4, #68]	; 0x44
    ADC_STATE_CLR_SET(hadc->State,
 8000b94:	6c23      	ldr	r3, [r4, #64]	; 0x40
 8000b96:	f023 0303 	bic.w	r3, r3, #3
 8000b9a:	f043 0301 	orr.w	r3, r3, #1
 8000b9e:	6423      	str	r3, [r4, #64]	; 0x40
  __HAL_UNLOCK(hadc);
 8000ba0:	2300      	movs	r3, #0
 8000ba2:	f884 303c 	strb.w	r3, [r4, #60]	; 0x3c
}
 8000ba6:	bd38      	pop	{r3, r4, r5, pc}
    hadc->Instance->CR2 &= ~(ADC_CR2_EXTSEL);
 8000ba8:	689a      	ldr	r2, [r3, #8]
 8000baa:	f022 6270 	bic.w	r2, r2, #251658240	; 0xf000000
 8000bae:	609a      	str	r2, [r3, #8]
    hadc->Instance->CR2 &= ~(ADC_CR2_EXTEN);
 8000bb0:	689a      	ldr	r2, [r3, #8]
 8000bb2:	f022 5240 	bic.w	r2, r2, #805306368	; 0x30000000
 8000bb6:	e7b2      	b.n	8000b1e <HAL_ADC_Init+0x9a>
    hadc->Instance->CR1 &= ~(ADC_CR1_DISCEN);
 8000bb8:	685a      	ldr	r2, [r3, #4]
 8000bba:	f422 6200 	bic.w	r2, r2, #2048	; 0x800
 8000bbe:	e7c9      	b.n	8000b54 <HAL_ADC_Init+0xd0>
    tmp_hal_status = HAL_ERROR;
 8000bc0:	2001      	movs	r0, #1
 8000bc2:	e7ed      	b.n	8000ba0 <HAL_ADC_Init+0x11c>
    return HAL_ERROR;
 8000bc4:	2001      	movs	r0, #1
 8000bc6:	e7ee      	b.n	8000ba6 <HAL_ADC_Init+0x122>
 8000bc8:	40012300 	.word	0x40012300
 8000bcc:	0f000001 	.word	0x0f000001

08000bd0 <HAL_ADC_Start>:
{
 8000bd0:	b082      	sub	sp, #8
  __IO uint32_t counter = 0U;
 8000bd2:	2300      	movs	r3, #0
 8000bd4:	9301      	str	r3, [sp, #4]
  __HAL_LOCK(hadc);
 8000bd6:	f890 303c 	ldrb.w	r3, [r0, #60]	; 0x3c
 8000bda:	2b01      	cmp	r3, #1
 8000bdc:	d061      	beq.n	8000ca2 <HAL_ADC_Start+0xd2>
 8000bde:	2301      	movs	r3, #1
 8000be0:	f880 303c 	strb.w	r3, [r0, #60]	; 0x3c
  if((hadc->Instance->CR2 & ADC_CR2_ADON) != ADC_CR2_ADON)
 8000be4:	6803      	ldr	r3, [r0, #0]
 8000be6:	689a      	ldr	r2, [r3, #8]
 8000be8:	07d1      	lsls	r1, r2, #31
 8000bea:	d505      	bpl.n	8000bf8 <HAL_ADC_Start+0x28>
  if(HAL_IS_BIT_SET(hadc->Instance->CR2, ADC_CR2_ADON))
 8000bec:	689a      	ldr	r2, [r3, #8]
 8000bee:	07d2      	lsls	r2, r2, #31
 8000bf0:	d414      	bmi.n	8000c1c <HAL_ADC_Start+0x4c>
  return HAL_OK;
 8000bf2:	2000      	movs	r0, #0
}
 8000bf4:	b002      	add	sp, #8
 8000bf6:	4770      	bx	lr
    __HAL_ADC_ENABLE(hadc);
 8000bf8:	689a      	ldr	r2, [r3, #8]
    counter = (ADC_STAB_DELAY_US * (SystemCoreClock / 1000000U));
 8000bfa:	492b      	ldr	r1, [pc, #172]	; (8000ca8 <HAL_ADC_Start+0xd8>)
    __HAL_ADC_ENABLE(hadc);
 8000bfc:	f042 0201 	orr.w	r2, r2, #1
 8000c00:	609a      	str	r2, [r3, #8]
    counter = (ADC_STAB_DELAY_US * (SystemCoreClock / 1000000U));
 8000c02:	4a2a      	ldr	r2, [pc, #168]	; (8000cac <HAL_ADC_Start+0xdc>)
 8000c04:	6812      	ldr	r2, [r2, #0]
 8000c06:	fbb2 f2f1 	udiv	r2, r2, r1
 8000c0a:	eb02 0242 	add.w	r2, r2, r2, lsl #1
      counter--;
 8000c0e:	9201      	str	r2, [sp, #4]
    while(counter != 0U)
 8000c10:	9a01      	ldr	r2, [sp, #4]
 8000c12:	2a00      	cmp	r2, #0
 8000c14:	d0ea      	beq.n	8000bec <HAL_ADC_Start+0x1c>
      counter--;
 8000c16:	9a01      	ldr	r2, [sp, #4]
 8000c18:	3a01      	subs	r2, #1
 8000c1a:	e7f8      	b.n	8000c0e <HAL_ADC_Start+0x3e>
    ADC_STATE_CLR_SET(hadc->State,
 8000c1c:	6c02      	ldr	r2, [r0, #64]	; 0x40
 8000c1e:	f422 62e0 	bic.w	r2, r2, #1792	; 0x700
 8000c22:	f022 0201 	bic.w	r2, r2, #1
 8000c26:	f442 7280 	orr.w	r2, r2, #256	; 0x100
 8000c2a:	6402      	str	r2, [r0, #64]	; 0x40
    if (READ_BIT(hadc->Instance->CR1, ADC_CR1_JAUTO) != RESET)
 8000c2c:	685a      	ldr	r2, [r3, #4]
 8000c2e:	0551      	lsls	r1, r2, #21
      ADC_STATE_CLR_SET(hadc->State, HAL_ADC_STATE_INJ_EOC, HAL_ADC_STATE_INJ_BUSY);  
 8000c30:	bf41      	itttt	mi
 8000c32:	6c02      	ldrmi	r2, [r0, #64]	; 0x40
 8000c34:	f422 5240 	bicmi.w	r2, r2, #12288	; 0x3000
 8000c38:	f442 5280 	orrmi.w	r2, r2, #4096	; 0x1000
 8000c3c:	6402      	strmi	r2, [r0, #64]	; 0x40
    if (HAL_IS_BIT_SET(hadc->State, HAL_ADC_STATE_INJ_BUSY))
 8000c3e:	6c02      	ldr	r2, [r0, #64]	; 0x40
 8000c40:	f412 5280 	ands.w	r2, r2, #4096	; 0x1000
      CLEAR_BIT(hadc->ErrorCode, (HAL_ADC_ERROR_OVR | HAL_ADC_ERROR_DMA));         
 8000c44:	bf1c      	itt	ne
 8000c46:	6c42      	ldrne	r2, [r0, #68]	; 0x44
 8000c48:	f022 0206 	bicne.w	r2, r2, #6
      ADC_CLEAR_ERRORCODE(hadc);
 8000c4c:	6442      	str	r2, [r0, #68]	; 0x44
    __HAL_UNLOCK(hadc);
 8000c4e:	2200      	movs	r2, #0
 8000c50:	f880 203c 	strb.w	r2, [r0, #60]	; 0x3c
    __HAL_ADC_CLEAR_FLAG(hadc, ADC_FLAG_EOC | ADC_FLAG_OVR);
 8000c54:	f06f 0222 	mvn.w	r2, #34	; 0x22
 8000c58:	601a      	str	r2, [r3, #0]
    if(HAL_IS_BIT_CLR(tmpADC_Common->CCR, ADC_CCR_MULTI))
 8000c5a:	4a15      	ldr	r2, [pc, #84]	; (8000cb0 <HAL_ADC_Start+0xe0>)
 8000c5c:	6851      	ldr	r1, [r2, #4]
 8000c5e:	f011 0f1f 	tst.w	r1, #31
 8000c62:	4914      	ldr	r1, [pc, #80]	; (8000cb4 <HAL_ADC_Start+0xe4>)
 8000c64:	d11a      	bne.n	8000c9c <HAL_ADC_Start+0xcc>
      if((hadc->Instance == ADC1) || ((hadc->Instance == ADC2) && ((ADC->CCR & ADC_CCR_MULTI_Msk) < ADC_CCR_MULTI_0)) \
 8000c66:	428b      	cmp	r3, r1
 8000c68:	d006      	beq.n	8000c78 <HAL_ADC_Start+0xa8>
 8000c6a:	f501 7180 	add.w	r1, r1, #256	; 0x100
 8000c6e:	428b      	cmp	r3, r1
 8000c70:	d10b      	bne.n	8000c8a <HAL_ADC_Start+0xba>
 8000c72:	6852      	ldr	r2, [r2, #4]
 8000c74:	06d2      	lsls	r2, r2, #27
 8000c76:	d1bc      	bne.n	8000bf2 <HAL_ADC_Start+0x22>
      if((hadc->Instance == ADC1) && ((hadc->Instance->CR2 & ADC_CR2_EXTEN) == RESET))
 8000c78:	6898      	ldr	r0, [r3, #8]
 8000c7a:	f010 5040 	ands.w	r0, r0, #805306368	; 0x30000000
 8000c7e:	d1b8      	bne.n	8000bf2 <HAL_ADC_Start+0x22>
          hadc->Instance->CR2 |= (uint32_t)ADC_CR2_SWSTART;
 8000c80:	689a      	ldr	r2, [r3, #8]
 8000c82:	f042 4280 	orr.w	r2, r2, #1073741824	; 0x40000000
 8000c86:	609a      	str	r2, [r3, #8]
 8000c88:	e7b4      	b.n	8000bf4 <HAL_ADC_Start+0x24>
                                  || ((hadc->Instance == ADC3) && ((ADC->CCR & ADC_CCR_MULTI_Msk) < ADC_CCR_MULTI_4)))
 8000c8a:	490b      	ldr	r1, [pc, #44]	; (8000cb8 <HAL_ADC_Start+0xe8>)
 8000c8c:	428b      	cmp	r3, r1
 8000c8e:	d1b0      	bne.n	8000bf2 <HAL_ADC_Start+0x22>
 8000c90:	6852      	ldr	r2, [r2, #4]
 8000c92:	f002 021f 	and.w	r2, r2, #31
 8000c96:	2a0f      	cmp	r2, #15
 8000c98:	d9ee      	bls.n	8000c78 <HAL_ADC_Start+0xa8>
 8000c9a:	e7aa      	b.n	8000bf2 <HAL_ADC_Start+0x22>
      if((hadc->Instance == ADC1) && ((hadc->Instance->CR2 & ADC_CR2_EXTEN) == RESET))
 8000c9c:	428b      	cmp	r3, r1
 8000c9e:	d1a8      	bne.n	8000bf2 <HAL_ADC_Start+0x22>
 8000ca0:	e7ea      	b.n	8000c78 <HAL_ADC_Start+0xa8>
  __HAL_LOCK(hadc);
 8000ca2:	2002      	movs	r0, #2
 8000ca4:	e7a6      	b.n	8000bf4 <HAL_ADC_Start+0x24>
 8000ca6:	bf00      	nop
 8000ca8:	000f4240 	.word	0x000f4240
 8000cac:	20000010 	.word	0x20000010
 8000cb0:	40012300 	.word	0x40012300
 8000cb4:	40012000 	.word	0x40012000
 8000cb8:	40012200 	.word	0x40012200

08000cbc <HAL_ADC_PollForConversion>:
  if (HAL_IS_BIT_SET(hadc->Instance->CR2, ADC_CR2_EOCS) &&
 8000cbc:	6803      	ldr	r3, [r0, #0]
 8000cbe:	689a      	ldr	r2, [r3, #8]
{
 8000cc0:	b570      	push	{r4, r5, r6, lr}
  if (HAL_IS_BIT_SET(hadc->Instance->CR2, ADC_CR2_EOCS) &&
 8000cc2:	0556      	lsls	r6, r2, #21
{
 8000cc4:	4604      	mov	r4, r0
 8000cc6:	460d      	mov	r5, r1
  if (HAL_IS_BIT_SET(hadc->Instance->CR2, ADC_CR2_EOCS) &&
 8000cc8:	d50b      	bpl.n	8000ce2 <HAL_ADC_PollForConversion+0x26>
      HAL_IS_BIT_SET(hadc->Instance->CR2, ADC_CR2_DMA)    )
 8000cca:	689b      	ldr	r3, [r3, #8]
  if (HAL_IS_BIT_SET(hadc->Instance->CR2, ADC_CR2_EOCS) &&
 8000ccc:	05d8      	lsls	r0, r3, #23
 8000cce:	d508      	bpl.n	8000ce2 <HAL_ADC_PollForConversion+0x26>
    SET_BIT(hadc->State, HAL_ADC_STATE_ERROR_CONFIG);
 8000cd0:	6c23      	ldr	r3, [r4, #64]	; 0x40
 8000cd2:	f043 0320 	orr.w	r3, r3, #32
 8000cd6:	6423      	str	r3, [r4, #64]	; 0x40
    __HAL_UNLOCK(hadc);
 8000cd8:	2300      	movs	r3, #0
 8000cda:	f884 303c 	strb.w	r3, [r4, #60]	; 0x3c
    return HAL_ERROR;
 8000cde:	2001      	movs	r0, #1
}
 8000ce0:	bd70      	pop	{r4, r5, r6, pc}
  tickstart = HAL_GetTick();
 8000ce2:	f7ff fec9 	bl	8000a78 <HAL_GetTick>
 8000ce6:	4606      	mov	r6, r0
  while(!(__HAL_ADC_GET_FLAG(hadc, ADC_FLAG_EOC)))
 8000ce8:	6823      	ldr	r3, [r4, #0]
 8000cea:	681a      	ldr	r2, [r3, #0]
 8000cec:	0792      	lsls	r2, r2, #30
 8000cee:	d50c      	bpl.n	8000d0a <HAL_ADC_PollForConversion+0x4e>
  __HAL_ADC_CLEAR_FLAG(hadc, ADC_FLAG_STRT | ADC_FLAG_EOC);
 8000cf0:	f06f 0212 	mvn.w	r2, #18
 8000cf4:	601a      	str	r2, [r3, #0]
  SET_BIT(hadc->State, HAL_ADC_STATE_REG_EOC);
 8000cf6:	6c22      	ldr	r2, [r4, #64]	; 0x40
 8000cf8:	f442 7200 	orr.w	r2, r2, #512	; 0x200
 8000cfc:	6422      	str	r2, [r4, #64]	; 0x40
  if(ADC_IS_SOFTWARE_START_REGULAR(hadc)                   &&
 8000cfe:	689a      	ldr	r2, [r3, #8]
 8000d00:	f012 5f40 	tst.w	r2, #805306368	; 0x30000000
 8000d04:	d013      	beq.n	8000d2e <HAL_ADC_PollForConversion+0x72>
  return HAL_OK;
 8000d06:	2000      	movs	r0, #0
 8000d08:	e7ea      	b.n	8000ce0 <HAL_ADC_PollForConversion+0x24>
    if(Timeout != HAL_MAX_DELAY)
 8000d0a:	1c69      	adds	r1, r5, #1
 8000d0c:	d0ed      	beq.n	8000cea <HAL_ADC_PollForConversion+0x2e>
      if((Timeout == 0U) || ((HAL_GetTick() - tickstart ) > Timeout))
 8000d0e:	b945      	cbnz	r5, 8000d22 <HAL_ADC_PollForConversion+0x66>
        SET_BIT(hadc->State, HAL_ADC_STATE_TIMEOUT);
 8000d10:	6c23      	ldr	r3, [r4, #64]	; 0x40
 8000d12:	f043 0304 	orr.w	r3, r3, #4
 8000d16:	6423      	str	r3, [r4, #64]	; 0x40
        __HAL_UNLOCK(hadc);
 8000d18:	2300      	movs	r3, #0
 8000d1a:	f884 303c 	strb.w	r3, [r4, #60]	; 0x3c
        return HAL_TIMEOUT;
 8000d1e:	2003      	movs	r0, #3
 8000d20:	e7de      	b.n	8000ce0 <HAL_ADC_PollForConversion+0x24>
      if((Timeout == 0U) || ((HAL_GetTick() - tickstart ) > Timeout))
 8000d22:	f7ff fea9 	bl	8000a78 <HAL_GetTick>
 8000d26:	1b80      	subs	r0, r0, r6
 8000d28:	42a8      	cmp	r0, r5
 8000d2a:	d9dd      	bls.n	8000ce8 <HAL_ADC_PollForConversion+0x2c>
 8000d2c:	e7f0      	b.n	8000d10 <HAL_ADC_PollForConversion+0x54>
  if(ADC_IS_SOFTWARE_START_REGULAR(hadc)                   &&
 8000d2e:	7e22      	ldrb	r2, [r4, #24]
 8000d30:	2a00      	cmp	r2, #0
 8000d32:	d1e8      	bne.n	8000d06 <HAL_ADC_PollForConversion+0x4a>
     (HAL_IS_BIT_CLR(hadc->Instance->SQR1, ADC_SQR1_L) ||
 8000d34:	6ada      	ldr	r2, [r3, #44]	; 0x2c
     (hadc->Init.ContinuousConvMode == DISABLE)            &&
 8000d36:	f412 0f70 	tst.w	r2, #15728640	; 0xf00000
 8000d3a:	d002      	beq.n	8000d42 <HAL_ADC_PollForConversion+0x86>
      HAL_IS_BIT_CLR(hadc->Instance->CR2, ADC_CR2_EOCS)  )   )
 8000d3c:	689b      	ldr	r3, [r3, #8]
     (HAL_IS_BIT_CLR(hadc->Instance->SQR1, ADC_SQR1_L) ||
 8000d3e:	055b      	lsls	r3, r3, #21
 8000d40:	d4e1      	bmi.n	8000d06 <HAL_ADC_PollForConversion+0x4a>
    CLEAR_BIT(hadc->State, HAL_ADC_STATE_REG_BUSY);   
 8000d42:	6c23      	ldr	r3, [r4, #64]	; 0x40
 8000d44:	f423 7380 	bic.w	r3, r3, #256	; 0x100
 8000d48:	6423      	str	r3, [r4, #64]	; 0x40
    if (HAL_IS_BIT_CLR(hadc->State, HAL_ADC_STATE_INJ_BUSY))
 8000d4a:	6c20      	ldr	r0, [r4, #64]	; 0x40
 8000d4c:	f410 5080 	ands.w	r0, r0, #4096	; 0x1000
 8000d50:	d1d9      	bne.n	8000d06 <HAL_ADC_PollForConversion+0x4a>
      SET_BIT(hadc->State, HAL_ADC_STATE_READY);
 8000d52:	6c23      	ldr	r3, [r4, #64]	; 0x40
 8000d54:	f043 0301 	orr.w	r3, r3, #1
 8000d58:	6423      	str	r3, [r4, #64]	; 0x40
 8000d5a:	e7c1      	b.n	8000ce0 <HAL_ADC_PollForConversion+0x24>

08000d5c <HAL_ADC_GetValue>:
  return hadc->Instance->DR;
 8000d5c:	6803      	ldr	r3, [r0, #0]
 8000d5e:	6cd8      	ldr	r0, [r3, #76]	; 0x4c
}
 8000d60:	4770      	bx	lr
	...

08000d64 <HAL_ADC_ConfigChannel>:
{
 8000d64:	b5f7      	push	{r0, r1, r2, r4, r5, r6, r7, lr}
  __IO uint32_t counter = 0U;
 8000d66:	2300      	movs	r3, #0
 8000d68:	9301      	str	r3, [sp, #4]
  __HAL_LOCK(hadc);
 8000d6a:	f890 303c 	ldrb.w	r3, [r0, #60]	; 0x3c
 8000d6e:	2b01      	cmp	r3, #1
 8000d70:	d06a      	beq.n	8000e48 <HAL_ADC_ConfigChannel+0xe4>
  if (sConfig->Channel > ADC_CHANNEL_9)
 8000d72:	680d      	ldr	r5, [r1, #0]
 8000d74:	688e      	ldr	r6, [r1, #8]
  __HAL_LOCK(hadc);
 8000d76:	2301      	movs	r3, #1
  if (sConfig->Channel > ADC_CHANNEL_9)
 8000d78:	2d09      	cmp	r5, #9
  __HAL_LOCK(hadc);
 8000d7a:	f880 303c 	strb.w	r3, [r0, #60]	; 0x3c
 8000d7e:	b2ac      	uxth	r4, r5
 8000d80:	6803      	ldr	r3, [r0, #0]
  if (sConfig->Channel > ADC_CHANNEL_9)
 8000d82:	d929      	bls.n	8000dd8 <HAL_ADC_ConfigChannel+0x74>
    hadc->Instance->SMPR1 &= ~ADC_SMPR1(ADC_SMPR1_SMP10, sConfig->Channel);
 8000d84:	eb04 0244 	add.w	r2, r4, r4, lsl #1
 8000d88:	68df      	ldr	r7, [r3, #12]
 8000d8a:	3a1e      	subs	r2, #30
 8000d8c:	f04f 0c07 	mov.w	ip, #7
 8000d90:	fa0c fc02 	lsl.w	ip, ip, r2
 8000d94:	ea27 070c 	bic.w	r7, r7, ip
 8000d98:	60df      	str	r7, [r3, #12]
    hadc->Instance->SMPR1 |= ADC_SMPR1(sConfig->SamplingTime, sConfig->Channel);
 8000d9a:	68df      	ldr	r7, [r3, #12]
 8000d9c:	fa06 f202 	lsl.w	r2, r6, r2
 8000da0:	433a      	orrs	r2, r7
 8000da2:	60da      	str	r2, [r3, #12]
  if (sConfig->Rank < 7U)
 8000da4:	6849      	ldr	r1, [r1, #4]
 8000da6:	2906      	cmp	r1, #6
 8000da8:	eb01 0281 	add.w	r2, r1, r1, lsl #2
 8000dac:	d824      	bhi.n	8000df8 <HAL_ADC_ConfigChannel+0x94>
    hadc->Instance->SQR3 &= ~ADC_SQR3_RK(ADC_SQR3_SQ1, sConfig->Rank);
 8000dae:	6b59      	ldr	r1, [r3, #52]	; 0x34
 8000db0:	3a05      	subs	r2, #5
 8000db2:	261f      	movs	r6, #31
 8000db4:	4096      	lsls	r6, r2
 8000db6:	ea21 0106 	bic.w	r1, r1, r6
 8000dba:	6359      	str	r1, [r3, #52]	; 0x34
    hadc->Instance->SQR3 |= ADC_SQR3_RK(sConfig->Channel, sConfig->Rank);
 8000dbc:	6b59      	ldr	r1, [r3, #52]	; 0x34
 8000dbe:	fa04 f202 	lsl.w	r2, r4, r2
 8000dc2:	430a      	orrs	r2, r1
 8000dc4:	635a      	str	r2, [r3, #52]	; 0x34
  if ((hadc->Instance == ADC1) && (sConfig->Channel == ADC_CHANNEL_VBAT))
 8000dc6:	4a31      	ldr	r2, [pc, #196]	; (8000e8c <HAL_ADC_ConfigChannel+0x128>)
 8000dc8:	4293      	cmp	r3, r2
 8000dca:	d031      	beq.n	8000e30 <HAL_ADC_ConfigChannel+0xcc>
  __HAL_UNLOCK(hadc);
 8000dcc:	2300      	movs	r3, #0
 8000dce:	f880 303c 	strb.w	r3, [r0, #60]	; 0x3c
  return HAL_OK;
 8000dd2:	4618      	mov	r0, r3
}
 8000dd4:	b003      	add	sp, #12
 8000dd6:	bdf0      	pop	{r4, r5, r6, r7, pc}
    hadc->Instance->SMPR2 &= ~ADC_SMPR2(ADC_SMPR2_SMP0, sConfig->Channel);
 8000dd8:	691f      	ldr	r7, [r3, #16]
 8000dda:	eb05 0245 	add.w	r2, r5, r5, lsl #1
 8000dde:	f04f 0c07 	mov.w	ip, #7
 8000de2:	fa0c fc02 	lsl.w	ip, ip, r2
 8000de6:	ea27 070c 	bic.w	r7, r7, ip
 8000dea:	611f      	str	r7, [r3, #16]
    hadc->Instance->SMPR2 |= ADC_SMPR2(sConfig->SamplingTime, sConfig->Channel);
 8000dec:	691f      	ldr	r7, [r3, #16]
 8000dee:	fa06 f202 	lsl.w	r2, r6, r2
 8000df2:	433a      	orrs	r2, r7
 8000df4:	611a      	str	r2, [r3, #16]
 8000df6:	e7d5      	b.n	8000da4 <HAL_ADC_ConfigChannel+0x40>
  else if (sConfig->Rank < 13U)
 8000df8:	290c      	cmp	r1, #12
 8000dfa:	f04f 011f 	mov.w	r1, #31
 8000dfe:	d80b      	bhi.n	8000e18 <HAL_ADC_ConfigChannel+0xb4>
    hadc->Instance->SQR2 &= ~ADC_SQR2_RK(ADC_SQR2_SQ7, sConfig->Rank);
 8000e00:	6b1e      	ldr	r6, [r3, #48]	; 0x30
 8000e02:	3a23      	subs	r2, #35	; 0x23
 8000e04:	4091      	lsls	r1, r2
 8000e06:	ea26 0101 	bic.w	r1, r6, r1
 8000e0a:	6319      	str	r1, [r3, #48]	; 0x30
    hadc->Instance->SQR2 |= ADC_SQR2_RK(sConfig->Channel, sConfig->Rank);
 8000e0c:	6b19      	ldr	r1, [r3, #48]	; 0x30
 8000e0e:	fa04 f202 	lsl.w	r2, r4, r2
 8000e12:	430a      	orrs	r2, r1
 8000e14:	631a      	str	r2, [r3, #48]	; 0x30
 8000e16:	e7d6      	b.n	8000dc6 <HAL_ADC_ConfigChannel+0x62>
    hadc->Instance->SQR1 &= ~ADC_SQR1_RK(ADC_SQR1_SQ13, sConfig->Rank);
 8000e18:	6ade      	ldr	r6, [r3, #44]	; 0x2c
 8000e1a:	3a41      	subs	r2, #65	; 0x41
 8000e1c:	4091      	lsls	r1, r2
 8000e1e:	ea26 0101 	bic.w	r1, r6, r1
 8000e22:	62d9      	str	r1, [r3, #44]	; 0x2c
    hadc->Instance->SQR1 |= ADC_SQR1_RK(sConfig->Channel, sConfig->Rank);
 8000e24:	6ad9      	ldr	r1, [r3, #44]	; 0x2c
 8000e26:	fa04 f202 	lsl.w	r2, r4, r2
 8000e2a:	430a      	orrs	r2, r1
 8000e2c:	62da      	str	r2, [r3, #44]	; 0x2c
 8000e2e:	e7ca      	b.n	8000dc6 <HAL_ADC_ConfigChannel+0x62>
  if ((hadc->Instance == ADC1) && (sConfig->Channel == ADC_CHANNEL_VBAT))
 8000e30:	2d12      	cmp	r5, #18
 8000e32:	d10b      	bne.n	8000e4c <HAL_ADC_ConfigChannel+0xe8>
      tmpADC_Common->CCR &= ~ADC_CCR_TSVREFE;
 8000e34:	4b16      	ldr	r3, [pc, #88]	; (8000e90 <HAL_ADC_ConfigChannel+0x12c>)
 8000e36:	685a      	ldr	r2, [r3, #4]
 8000e38:	f422 0200 	bic.w	r2, r2, #8388608	; 0x800000
 8000e3c:	605a      	str	r2, [r3, #4]
    tmpADC_Common->CCR |= ADC_CCR_VBATE;
 8000e3e:	685a      	ldr	r2, [r3, #4]
 8000e40:	f442 0280 	orr.w	r2, r2, #4194304	; 0x400000
 8000e44:	605a      	str	r2, [r3, #4]
 8000e46:	e7c1      	b.n	8000dcc <HAL_ADC_ConfigChannel+0x68>
  __HAL_LOCK(hadc);
 8000e48:	2002      	movs	r0, #2
 8000e4a:	e7c3      	b.n	8000dd4 <HAL_ADC_ConfigChannel+0x70>
  if ((hadc->Instance == ADC1) && ((sConfig->Channel == ADC_CHANNEL_TEMPSENSOR) || (sConfig->Channel == ADC_CHANNEL_VREFINT)))
 8000e4c:	4b11      	ldr	r3, [pc, #68]	; (8000e94 <HAL_ADC_ConfigChannel+0x130>)
 8000e4e:	429d      	cmp	r5, r3
 8000e50:	d001      	beq.n	8000e56 <HAL_ADC_ConfigChannel+0xf2>
 8000e52:	2d11      	cmp	r5, #17
 8000e54:	d1ba      	bne.n	8000dcc <HAL_ADC_ConfigChannel+0x68>
      tmpADC_Common->CCR &= ~ADC_CCR_VBATE;
 8000e56:	4b0e      	ldr	r3, [pc, #56]	; (8000e90 <HAL_ADC_ConfigChannel+0x12c>)
 8000e58:	685a      	ldr	r2, [r3, #4]
 8000e5a:	f422 0280 	bic.w	r2, r2, #4194304	; 0x400000
 8000e5e:	605a      	str	r2, [r3, #4]
    tmpADC_Common->CCR |= ADC_CCR_TSVREFE;
 8000e60:	685a      	ldr	r2, [r3, #4]
 8000e62:	f442 0200 	orr.w	r2, r2, #8388608	; 0x800000
 8000e66:	605a      	str	r2, [r3, #4]
    if((sConfig->Channel == ADC_CHANNEL_TEMPSENSOR))
 8000e68:	4b0a      	ldr	r3, [pc, #40]	; (8000e94 <HAL_ADC_ConfigChannel+0x130>)
 8000e6a:	429d      	cmp	r5, r3
 8000e6c:	d1ae      	bne.n	8000dcc <HAL_ADC_ConfigChannel+0x68>
      counter = (ADC_TEMPSENSOR_DELAY_US * (SystemCoreClock / 1000000U));
 8000e6e:	4b0a      	ldr	r3, [pc, #40]	; (8000e98 <HAL_ADC_ConfigChannel+0x134>)
 8000e70:	4a0a      	ldr	r2, [pc, #40]	; (8000e9c <HAL_ADC_ConfigChannel+0x138>)
 8000e72:	681b      	ldr	r3, [r3, #0]
 8000e74:	fbb3 f2f2 	udiv	r2, r3, r2
 8000e78:	230a      	movs	r3, #10
 8000e7a:	4353      	muls	r3, r2
        counter--;
 8000e7c:	9301      	str	r3, [sp, #4]
      while(counter != 0U)
 8000e7e:	9b01      	ldr	r3, [sp, #4]
 8000e80:	2b00      	cmp	r3, #0
 8000e82:	d0a3      	beq.n	8000dcc <HAL_ADC_ConfigChannel+0x68>
        counter--;
 8000e84:	9b01      	ldr	r3, [sp, #4]
 8000e86:	3b01      	subs	r3, #1
 8000e88:	e7f8      	b.n	8000e7c <HAL_ADC_ConfigChannel+0x118>
 8000e8a:	bf00      	nop
 8000e8c:	40012000 	.word	0x40012000
 8000e90:	40012300 	.word	0x40012300
 8000e94:	10000012 	.word	0x10000012
 8000e98:	20000010 	.word	0x20000010
 8000e9c:	000f4240 	.word	0x000f4240

08000ea0 <HAL_NVIC_SetPriorityGrouping>:
__STATIC_INLINE void __NVIC_SetPriorityGrouping(uint32_t PriorityGroup)
{
  uint32_t reg_value;
  uint32_t PriorityGroupTmp = (PriorityGroup & (uint32_t)0x07UL);             /* only values 0..7 are used          */

  reg_value  =  SCB->AIRCR;                                                   /* read old register configuration    */
 8000ea0:	4a07      	ldr	r2, [pc, #28]	; (8000ec0 <HAL_NVIC_SetPriorityGrouping+0x20>)
 8000ea2:	68d3      	ldr	r3, [r2, #12]
  reg_value &= ~((uint32_t)(SCB_AIRCR_VECTKEY_Msk | SCB_AIRCR_PRIGROUP_Msk)); /* clear bits to change               */
 8000ea4:	f423 63e0 	bic.w	r3, r3, #1792	; 0x700
 8000ea8:	041b      	lsls	r3, r3, #16
 8000eaa:	0c1b      	lsrs	r3, r3, #16
 8000eac:	f043 63bf 	orr.w	r3, r3, #100139008	; 0x5f80000
  reg_value  =  (reg_value                                   |
                ((uint32_t)0x5FAUL << SCB_AIRCR_VECTKEY_Pos) |
                (PriorityGroupTmp << SCB_AIRCR_PRIGROUP_Pos)  );              /* Insert write key and priority group */
 8000eb0:	0200      	lsls	r0, r0, #8
 8000eb2:	f443 3300 	orr.w	r3, r3, #131072	; 0x20000
 8000eb6:	f400 60e0 	and.w	r0, r0, #1792	; 0x700
  reg_value  =  (reg_value                                   |
 8000eba:	4303      	orrs	r3, r0
  SCB->AIRCR =  reg_value;
 8000ebc:	60d3      	str	r3, [r2, #12]
  /* Check the parameters */
  assert_param(IS_NVIC_PRIORITY_GROUP(PriorityGroup));
  
  /* Set the PRIGROUP[10:8] bits according to the PriorityGroup parameter value */
  NVIC_SetPriorityGrouping(PriorityGroup);
}
 8000ebe:	4770      	bx	lr
 8000ec0:	e000ed00 	.word	0xe000ed00

08000ec4 <HAL_NVIC_SetPriority>:
  \details Reads the priority grouping field from the NVIC Interrupt Controller.
  \return                Priority grouping field (SCB->AIRCR [10:8] PRIGROUP field).
 */
__STATIC_INLINE uint32_t __NVIC_GetPriorityGrouping(void)
{
  return ((uint32_t)((SCB->AIRCR & SCB_AIRCR_PRIGROUP_Msk) >> SCB_AIRCR_PRIGROUP_Pos));
 8000ec4:	4b17      	ldr	r3, [pc, #92]	; (8000f24 <HAL_NVIC_SetPriority+0x60>)
  *         This parameter can be a value between 0 and 15
  *         A lower priority value indicates a higher priority.          
  * @retval None
  */
void HAL_NVIC_SetPriority(IRQn_Type IRQn, uint32_t PreemptPriority, uint32_t SubPriority)
{ 
 8000ec6:	b570      	push	{r4, r5, r6, lr}
 8000ec8:	68dc      	ldr	r4, [r3, #12]
 8000eca:	f3c4 2402 	ubfx	r4, r4, #8, #3
{
  uint32_t PriorityGroupTmp = (PriorityGroup & (uint32_t)0x07UL);   /* only values 0..7 are used          */
  uint32_t PreemptPriorityBits;
  uint32_t SubPriorityBits;

  PreemptPriorityBits = ((7UL - PriorityGroupTmp) > (uint32_t)(__NVIC_PRIO_BITS)) ? (uint32_t)(__NVIC_PRIO_BITS) : (uint32_t)(7UL - PriorityGroupTmp);
 8000ece:	f1c4 0507 	rsb	r5, r4, #7
 8000ed2:	2d04      	cmp	r5, #4
  SubPriorityBits     = ((PriorityGroupTmp + (uint32_t)(__NVIC_PRIO_BITS)) < (uint32_t)7UL) ? (uint32_t)0UL : (uint32_t)((PriorityGroupTmp - 7UL) + (uint32_t)(__NVIC_PRIO_BITS));
 8000ed4:	f104 0304 	add.w	r3, r4, #4
  PreemptPriorityBits = ((7UL - PriorityGroupTmp) > (uint32_t)(__NVIC_PRIO_BITS)) ? (uint32_t)(__NVIC_PRIO_BITS) : (uint32_t)(7UL - PriorityGroupTmp);
 8000ed8:	bf28      	it	cs
 8000eda:	2504      	movcs	r5, #4

  return (
           ((PreemptPriority & (uint32_t)((1UL << (PreemptPriorityBits)) - 1UL)) << SubPriorityBits) |
 8000edc:	f04f 36ff 	mov.w	r6, #4294967295
  SubPriorityBits     = ((PriorityGroupTmp + (uint32_t)(__NVIC_PRIO_BITS)) < (uint32_t)7UL) ? (uint32_t)0UL : (uint32_t)((PriorityGroupTmp - 7UL) + (uint32_t)(__NVIC_PRIO_BITS));
 8000ee0:	2b06      	cmp	r3, #6
           ((PreemptPriority & (uint32_t)((1UL << (PreemptPriorityBits)) - 1UL)) << SubPriorityBits) |
 8000ee2:	fa06 f305 	lsl.w	r3, r6, r5
  SubPriorityBits     = ((PriorityGroupTmp + (uint32_t)(__NVIC_PRIO_BITS)) < (uint32_t)7UL) ? (uint32_t)0UL : (uint32_t)((PriorityGroupTmp - 7UL) + (uint32_t)(__NVIC_PRIO_BITS));
 8000ee6:	bf8c      	ite	hi
 8000ee8:	3c03      	subhi	r4, #3
 8000eea:	2400      	movls	r4, #0
           ((PreemptPriority & (uint32_t)((1UL << (PreemptPriorityBits)) - 1UL)) << SubPriorityBits) |
 8000eec:	ea21 0303 	bic.w	r3, r1, r3
 8000ef0:	40a3      	lsls	r3, r4
           ((SubPriority     & (uint32_t)((1UL << (SubPriorityBits    )) - 1UL)))
 8000ef2:	fa06 f404 	lsl.w	r4, r6, r4
 8000ef6:	ea22 0404 	bic.w	r4, r2, r4
  if ((int32_t)(IRQn) >= 0)
 8000efa:	2800      	cmp	r0, #0
           ((PreemptPriority & (uint32_t)((1UL << (PreemptPriorityBits)) - 1UL)) << SubPriorityBits) |
 8000efc:	ea43 0304 	orr.w	r3, r3, r4
    NVIC->IP[((uint32_t)IRQn)]               = (uint8_t)((priority << (8U - __NVIC_PRIO_BITS)) & (uint32_t)0xFFUL);
 8000f00:	bfa8      	it	ge
 8000f02:	f100 4060 	addge.w	r0, r0, #3758096384	; 0xe0000000
 8000f06:	ea4f 1303 	mov.w	r3, r3, lsl #4
    SCB->SHP[(((uint32_t)IRQn) & 0xFUL)-4UL] = (uint8_t)((priority << (8U - __NVIC_PRIO_BITS)) & (uint32_t)0xFFUL);
 8000f0a:	bfbc      	itt	lt
 8000f0c:	f000 000f 	andlt.w	r0, r0, #15
 8000f10:	4a05      	ldrlt	r2, [pc, #20]	; (8000f28 <HAL_NVIC_SetPriority+0x64>)
 8000f12:	b2db      	uxtb	r3, r3
    NVIC->IP[((uint32_t)IRQn)]               = (uint8_t)((priority << (8U - __NVIC_PRIO_BITS)) & (uint32_t)0xFFUL);
 8000f14:	bfaa      	itet	ge
 8000f16:	f500 4061 	addge.w	r0, r0, #57600	; 0xe100
    SCB->SHP[(((uint32_t)IRQn) & 0xFUL)-4UL] = (uint8_t)((priority << (8U - __NVIC_PRIO_BITS)) & (uint32_t)0xFFUL);
 8000f1a:	5413      	strblt	r3, [r2, r0]
    NVIC->IP[((uint32_t)IRQn)]               = (uint8_t)((priority << (8U - __NVIC_PRIO_BITS)) & (uint32_t)0xFFUL);
 8000f1c:	f880 3300 	strbge.w	r3, [r0, #768]	; 0x300
  assert_param(IS_NVIC_PREEMPTION_PRIORITY(PreemptPriority));
  
  prioritygroup = NVIC_GetPriorityGrouping();
  
  NVIC_SetPriority(IRQn, NVIC_EncodePriority(prioritygroup, PreemptPriority, SubPriority));
}
 8000f20:	bd70      	pop	{r4, r5, r6, pc}
 8000f22:	bf00      	nop
 8000f24:	e000ed00 	.word	0xe000ed00
 8000f28:	e000ed14 	.word	0xe000ed14

08000f2c <HAL_NVIC_EnableIRQ>:
  if ((int32_t)(IRQn) >= 0)
 8000f2c:	2800      	cmp	r0, #0
 8000f2e:	db08      	blt.n	8000f42 <HAL_NVIC_EnableIRQ+0x16>
    NVIC->ISER[(((uint32_t)IRQn) >> 5UL)] = (uint32_t)(1UL << (((uint32_t)IRQn) & 0x1FUL));
 8000f30:	0942      	lsrs	r2, r0, #5
 8000f32:	2301      	movs	r3, #1
 8000f34:	f000 001f 	and.w	r0, r0, #31
 8000f38:	fa03 f000 	lsl.w	r0, r3, r0
 8000f3c:	4b01      	ldr	r3, [pc, #4]	; (8000f44 <HAL_NVIC_EnableIRQ+0x18>)
 8000f3e:	f843 0022 	str.w	r0, [r3, r2, lsl #2]
  /* Check the parameters */
  assert_param(IS_NVIC_DEVICE_IRQ(IRQn));
  
  /* Enable interrupt */
  NVIC_EnableIRQ(IRQn);
}
 8000f42:	4770      	bx	lr
 8000f44:	e000e100 	.word	0xe000e100

08000f48 <HAL_SYSTICK_Config>:
           function <b>SysTick_Config</b> is not included. In this case, the file <b><i>device</i>.h</b>
           must contain a vendor-specific implementation of this function.
 */
__STATIC_INLINE uint32_t SysTick_Config(uint32_t ticks)
{
  if ((ticks - 1UL) > SysTick_LOAD_RELOAD_Msk)
 8000f48:	3801      	subs	r0, #1
 8000f4a:	f1b0 7f80 	cmp.w	r0, #16777216	; 0x1000000
 8000f4e:	d20a      	bcs.n	8000f66 <HAL_SYSTICK_Config+0x1e>
  {
    return (1UL);                                                   /* Reload value impossible */
  }

  SysTick->LOAD  = (uint32_t)(ticks - 1UL);                         /* set reload register */
 8000f50:	4b06      	ldr	r3, [pc, #24]	; (8000f6c <HAL_SYSTICK_Config+0x24>)
    SCB->SHP[(((uint32_t)IRQn) & 0xFUL)-4UL] = (uint8_t)((priority << (8U - __NVIC_PRIO_BITS)) & (uint32_t)0xFFUL);
 8000f52:	4a07      	ldr	r2, [pc, #28]	; (8000f70 <HAL_SYSTICK_Config+0x28>)
  SysTick->LOAD  = (uint32_t)(ticks - 1UL);                         /* set reload register */
 8000f54:	6058      	str	r0, [r3, #4]
    SCB->SHP[(((uint32_t)IRQn) & 0xFUL)-4UL] = (uint8_t)((priority << (8U - __NVIC_PRIO_BITS)) & (uint32_t)0xFFUL);
 8000f56:	21f0      	movs	r1, #240	; 0xf0
 8000f58:	f882 1023 	strb.w	r1, [r2, #35]	; 0x23
  NVIC_SetPriority (SysTick_IRQn, (1UL << __NVIC_PRIO_BITS) - 1UL); /* set Priority for Systick Interrupt */
  SysTick->VAL   = 0UL;                                             /* Load the SysTick Counter Value */
 8000f5c:	2000      	movs	r0, #0
  SysTick->CTRL  = SysTick_CTRL_CLKSOURCE_Msk |
 8000f5e:	2207      	movs	r2, #7
  SysTick->VAL   = 0UL;                                             /* Load the SysTick Counter Value */
 8000f60:	6098      	str	r0, [r3, #8]
  SysTick->CTRL  = SysTick_CTRL_CLKSOURCE_Msk |
 8000f62:	601a      	str	r2, [r3, #0]
 8000f64:	4770      	bx	lr
    return (1UL);                                                   /* Reload value impossible */
 8000f66:	2001      	movs	r0, #1
  *                  - 1  Function failed.
  */
uint32_t HAL_SYSTICK_Config(uint32_t TicksNumb)
{
   return SysTick_Config(TicksNumb);
}
 8000f68:	4770      	bx	lr
 8000f6a:	bf00      	nop
 8000f6c:	e000e010 	.word	0xe000e010
 8000f70:	e000ed00 	.word	0xe000ed00

08000f74 <HAL_GPIO_Init>:
  * @param  GPIO_Init pointer to a GPIO_InitTypeDef structure that contains
  *         the configuration information for the specified GPIO peripheral.
  * @retval None
  */
void HAL_GPIO_Init(GPIO_TypeDef  *GPIOx, GPIO_InitTypeDef *GPIO_Init)
{
 8000f74:	e92d 4ff0 	stmdb	sp!, {r4, r5, r6, r7, r8, r9, sl, fp, lr}
 8000f78:	b085      	sub	sp, #20
  for(position = 0U; position < GPIO_NUMBER; position++)
  {
    /* Get the IO position */
    ioposition = 0x01U << position;
    /* Get the current IO position */
    iocurrent = (uint32_t)(GPIO_Init->Pin) & ioposition;
 8000f7a:	680b      	ldr	r3, [r1, #0]
      /*--------------------- EXTI Mode Configuration ------------------------*/
      /* Configure the External Interrupt or event for the current IO */
      if((GPIO_Init->Mode & EXTI_MODE) == EXTI_MODE)
      {
        /* Enable SYSCFG Clock */
        __HAL_RCC_SYSCFG_CLK_ENABLE();
 8000f7c:	f8df 81a0 	ldr.w	r8, [pc, #416]	; 8001120 <HAL_GPIO_Init+0x1ac>
        temp &= ~(0x0FU << (4U * (position & 0x03U)));
        temp |= ((uint32_t)(GPIO_GET_INDEX(GPIOx)) << (4U * (position & 0x03U)));
        SYSCFG->EXTICR[position >> 2U] = temp;

        /* Clear EXTI line configuration */
        temp = EXTI->IMR;
 8000f80:	4a65      	ldr	r2, [pc, #404]	; (8001118 <HAL_GPIO_Init+0x1a4>)
        temp |= ((uint32_t)(GPIO_GET_INDEX(GPIOx)) << (4U * (position & 0x03U)));
 8000f82:	f8df 91a0 	ldr.w	r9, [pc, #416]	; 8001124 <HAL_GPIO_Init+0x1b0>
    iocurrent = (uint32_t)(GPIO_Init->Pin) & ioposition;
 8000f86:	9301      	str	r3, [sp, #4]
  for(position = 0U; position < GPIO_NUMBER; position++)
 8000f88:	2300      	movs	r3, #0
    ioposition = 0x01U << position;
 8000f8a:	2401      	movs	r4, #1
    iocurrent = (uint32_t)(GPIO_Init->Pin) & ioposition;
 8000f8c:	9d01      	ldr	r5, [sp, #4]
    ioposition = 0x01U << position;
 8000f8e:	409c      	lsls	r4, r3
    iocurrent = (uint32_t)(GPIO_Init->Pin) & ioposition;
 8000f90:	4025      	ands	r5, r4
    if(iocurrent == ioposition)
 8000f92:	42ac      	cmp	r4, r5
 8000f94:	f040 80ac 	bne.w	80010f0 <HAL_GPIO_Init+0x17c>
      if((GPIO_Init->Mode == GPIO_MODE_OUTPUT_PP) || (GPIO_Init->Mode == GPIO_MODE_AF_PP) ||
 8000f98:	684c      	ldr	r4, [r1, #4]
 8000f9a:	f024 0c10 	bic.w	ip, r4, #16
 8000f9e:	ea4f 0e43 	mov.w	lr, r3, lsl #1
 8000fa2:	2603      	movs	r6, #3
 8000fa4:	f10c 37ff 	add.w	r7, ip, #4294967295
 8000fa8:	fa06 f60e 	lsl.w	r6, r6, lr
 8000fac:	2f01      	cmp	r7, #1
 8000fae:	ea6f 0606 	mvn.w	r6, r6
 8000fb2:	d811      	bhi.n	8000fd8 <HAL_GPIO_Init+0x64>
        temp = GPIOx->OSPEEDR; 
 8000fb4:	6887      	ldr	r7, [r0, #8]
        temp &= ~(GPIO_OSPEEDER_OSPEEDR0 << (position * 2U));
 8000fb6:	ea07 0a06 	and.w	sl, r7, r6
        temp |= (GPIO_Init->Speed << (position * 2U));
 8000fba:	68cf      	ldr	r7, [r1, #12]
 8000fbc:	fa07 f70e 	lsl.w	r7, r7, lr
 8000fc0:	ea47 070a 	orr.w	r7, r7, sl
        GPIOx->OSPEEDR = temp;
 8000fc4:	6087      	str	r7, [r0, #8]
        temp = GPIOx->OTYPER;
 8000fc6:	6847      	ldr	r7, [r0, #4]
        temp &= ~(GPIO_OTYPER_OT_0 << position) ;
 8000fc8:	ea27 0a05 	bic.w	sl, r7, r5
        temp |= (((GPIO_Init->Mode & GPIO_OUTPUT_TYPE) >> 4U) << position);
 8000fcc:	f3c4 1700 	ubfx	r7, r4, #4, #1
 8000fd0:	409f      	lsls	r7, r3
 8000fd2:	ea47 070a 	orr.w	r7, r7, sl
        GPIOx->OTYPER = temp;
 8000fd6:	6047      	str	r7, [r0, #4]
      temp = GPIOx->PUPDR;
 8000fd8:	68c7      	ldr	r7, [r0, #12]
      temp &= ~(GPIO_PUPDR_PUPDR0 << (position * 2U));
 8000fda:	ea07 0a06 	and.w	sl, r7, r6
      temp |= ((GPIO_Init->Pull) << (position * 2U));
 8000fde:	688f      	ldr	r7, [r1, #8]
 8000fe0:	fa07 f70e 	lsl.w	r7, r7, lr
 8000fe4:	ea47 070a 	orr.w	r7, r7, sl
      if((GPIO_Init->Mode == GPIO_MODE_AF_PP) || (GPIO_Init->Mode == GPIO_MODE_AF_OD))
 8000fe8:	f1bc 0f02 	cmp.w	ip, #2
      GPIOx->PUPDR = temp;
 8000fec:	60c7      	str	r7, [r0, #12]
      if((GPIO_Init->Mode == GPIO_MODE_AF_PP) || (GPIO_Init->Mode == GPIO_MODE_AF_OD))
 8000fee:	d116      	bne.n	800101e <HAL_GPIO_Init+0xaa>
        temp = GPIOx->AFR[position >> 3U];
 8000ff0:	ea4f 0ad3 	mov.w	sl, r3, lsr #3
 8000ff4:	eb00 0a8a 	add.w	sl, r0, sl, lsl #2
        temp &= ~(0xFU << ((uint32_t)(position & 0x07U) * 4U)) ;
 8000ff8:	f003 0b07 	and.w	fp, r3, #7
        temp = GPIOx->AFR[position >> 3U];
 8000ffc:	f8da 7020 	ldr.w	r7, [sl, #32]
        temp &= ~(0xFU << ((uint32_t)(position & 0x07U) * 4U)) ;
 8001000:	ea4f 0b8b 	mov.w	fp, fp, lsl #2
 8001004:	f04f 0c0f 	mov.w	ip, #15
 8001008:	fa0c fc0b 	lsl.w	ip, ip, fp
 800100c:	ea27 0c0c 	bic.w	ip, r7, ip
        temp |= ((uint32_t)(GPIO_Init->Alternate) << (((uint32_t)position & 0x07U) * 4U));
 8001010:	690f      	ldr	r7, [r1, #16]
 8001012:	fa07 f70b 	lsl.w	r7, r7, fp
 8001016:	ea47 070c 	orr.w	r7, r7, ip
        GPIOx->AFR[position >> 3U] = temp;
 800101a:	f8ca 7020 	str.w	r7, [sl, #32]
      temp = GPIOx->MODER;
 800101e:	6807      	ldr	r7, [r0, #0]
      temp &= ~(GPIO_MODER_MODER0 << (position * 2U));
 8001020:	403e      	ands	r6, r7
      temp |= ((GPIO_Init->Mode & GPIO_MODE) << (position * 2U));
 8001022:	f004 0703 	and.w	r7, r4, #3
 8001026:	fa07 fe0e 	lsl.w	lr, r7, lr
 800102a:	ea4e 0606 	orr.w	r6, lr, r6
      GPIOx->MODER = temp;
 800102e:	6006      	str	r6, [r0, #0]
      if((GPIO_Init->Mode & EXTI_MODE) == EXTI_MODE)
 8001030:	00e6      	lsls	r6, r4, #3
 8001032:	d55d      	bpl.n	80010f0 <HAL_GPIO_Init+0x17c>
        __HAL_RCC_SYSCFG_CLK_ENABLE();
 8001034:	f04f 0b00 	mov.w	fp, #0
 8001038:	f8cd b00c 	str.w	fp, [sp, #12]
 800103c:	f8d8 7044 	ldr.w	r7, [r8, #68]	; 0x44
        temp |= ((uint32_t)(GPIO_GET_INDEX(GPIOx)) << (4U * (position & 0x03U)));
 8001040:	4e36      	ldr	r6, [pc, #216]	; (800111c <HAL_GPIO_Init+0x1a8>)
        __HAL_RCC_SYSCFG_CLK_ENABLE();
 8001042:	f447 4780 	orr.w	r7, r7, #16384	; 0x4000
 8001046:	f8c8 7044 	str.w	r7, [r8, #68]	; 0x44
 800104a:	f8d8 7044 	ldr.w	r7, [r8, #68]	; 0x44
 800104e:	f407 4780 	and.w	r7, r7, #16384	; 0x4000
 8001052:	9703      	str	r7, [sp, #12]
 8001054:	9f03      	ldr	r7, [sp, #12]
 8001056:	f023 0703 	bic.w	r7, r3, #3
 800105a:	f107 4780 	add.w	r7, r7, #1073741824	; 0x40000000
 800105e:	f507 379c 	add.w	r7, r7, #79872	; 0x13800
        temp &= ~(0x0FU << (4U * (position & 0x03U)));
 8001062:	f003 0e03 	and.w	lr, r3, #3
        temp = SYSCFG->EXTICR[position >> 2U];
 8001066:	f8d7 a008 	ldr.w	sl, [r7, #8]
        temp &= ~(0x0FU << (4U * (position & 0x03U)));
 800106a:	ea4f 0e8e 	mov.w	lr, lr, lsl #2
 800106e:	f04f 0c0f 	mov.w	ip, #15
 8001072:	fa0c fc0e 	lsl.w	ip, ip, lr
        temp |= ((uint32_t)(GPIO_GET_INDEX(GPIOx)) << (4U * (position & 0x03U)));
 8001076:	42b0      	cmp	r0, r6
        temp &= ~(0x0FU << (4U * (position & 0x03U)));
 8001078:	ea2a 0c0c 	bic.w	ip, sl, ip
        temp |= ((uint32_t)(GPIO_GET_INDEX(GPIOx)) << (4U * (position & 0x03U)));
 800107c:	d03f      	beq.n	80010fe <HAL_GPIO_Init+0x18a>
 800107e:	f506 6680 	add.w	r6, r6, #1024	; 0x400
 8001082:	42b0      	cmp	r0, r6
 8001084:	d03d      	beq.n	8001102 <HAL_GPIO_Init+0x18e>
 8001086:	f506 6680 	add.w	r6, r6, #1024	; 0x400
 800108a:	42b0      	cmp	r0, r6
 800108c:	d03b      	beq.n	8001106 <HAL_GPIO_Init+0x192>
 800108e:	f506 6680 	add.w	r6, r6, #1024	; 0x400
 8001092:	42b0      	cmp	r0, r6
 8001094:	d039      	beq.n	800110a <HAL_GPIO_Init+0x196>
 8001096:	f506 6680 	add.w	r6, r6, #1024	; 0x400
 800109a:	42b0      	cmp	r0, r6
 800109c:	d037      	beq.n	800110e <HAL_GPIO_Init+0x19a>
 800109e:	4548      	cmp	r0, r9
 80010a0:	d037      	beq.n	8001112 <HAL_GPIO_Init+0x19e>
 80010a2:	f506 6600 	add.w	r6, r6, #2048	; 0x800
 80010a6:	42b0      	cmp	r0, r6
 80010a8:	bf14      	ite	ne
 80010aa:	2607      	movne	r6, #7
 80010ac:	2606      	moveq	r6, #6
 80010ae:	fa06 f60e 	lsl.w	r6, r6, lr
 80010b2:	ea46 060c 	orr.w	r6, r6, ip
        SYSCFG->EXTICR[position >> 2U] = temp;
 80010b6:	60be      	str	r6, [r7, #8]
        temp = EXTI->IMR;
 80010b8:	6816      	ldr	r6, [r2, #0]
        temp &= ~((uint32_t)iocurrent);
 80010ba:	43ef      	mvns	r7, r5
        if((GPIO_Init->Mode & GPIO_MODE_IT) == GPIO_MODE_IT)
 80010bc:	f414 3f80 	tst.w	r4, #65536	; 0x10000
        temp &= ~((uint32_t)iocurrent);
 80010c0:	bf0c      	ite	eq
 80010c2:	403e      	andeq	r6, r7
        {
          temp |= iocurrent;
 80010c4:	432e      	orrne	r6, r5
        }
        EXTI->IMR = temp;
 80010c6:	6016      	str	r6, [r2, #0]

        temp = EXTI->EMR;
 80010c8:	6856      	ldr	r6, [r2, #4]
        temp &= ~((uint32_t)iocurrent);
        if((GPIO_Init->Mode & GPIO_MODE_EVT) == GPIO_MODE_EVT)
 80010ca:	f414 3f00 	tst.w	r4, #131072	; 0x20000
        temp &= ~((uint32_t)iocurrent);
 80010ce:	bf0c      	ite	eq
 80010d0:	403e      	andeq	r6, r7
        {
          temp |= iocurrent;
 80010d2:	432e      	orrne	r6, r5
        }
        EXTI->EMR = temp;
 80010d4:	6056      	str	r6, [r2, #4]

        /* Clear Rising Falling edge configuration */
        temp = EXTI->RTSR;
 80010d6:	6896      	ldr	r6, [r2, #8]
        temp &= ~((uint32_t)iocurrent);
        if((GPIO_Init->Mode & RISING_EDGE) == RISING_EDGE)
 80010d8:	f414 1f80 	tst.w	r4, #1048576	; 0x100000
        temp &= ~((uint32_t)iocurrent);
 80010dc:	bf0c      	ite	eq
 80010de:	403e      	andeq	r6, r7
        {
          temp |= iocurrent;
 80010e0:	432e      	orrne	r6, r5
        }
        EXTI->RTSR = temp;
 80010e2:	6096      	str	r6, [r2, #8]

        temp = EXTI->FTSR;
 80010e4:	68d6      	ldr	r6, [r2, #12]
        temp &= ~((uint32_t)iocurrent);
        if((GPIO_Init->Mode & FALLING_EDGE) == FALLING_EDGE)
 80010e6:	02a4      	lsls	r4, r4, #10
        temp &= ~((uint32_t)iocurrent);
 80010e8:	bf54      	ite	pl
 80010ea:	403e      	andpl	r6, r7
        {
          temp |= iocurrent;
 80010ec:	432e      	orrmi	r6, r5
        }
        EXTI->FTSR = temp;
 80010ee:	60d6      	str	r6, [r2, #12]
  for(position = 0U; position < GPIO_NUMBER; position++)
 80010f0:	3301      	adds	r3, #1
 80010f2:	2b10      	cmp	r3, #16
 80010f4:	f47f af49 	bne.w	8000f8a <HAL_GPIO_Init+0x16>
      }
    }
  }
}
 80010f8:	b005      	add	sp, #20
 80010fa:	e8bd 8ff0 	ldmia.w	sp!, {r4, r5, r6, r7, r8, r9, sl, fp, pc}
        temp |= ((uint32_t)(GPIO_GET_INDEX(GPIOx)) << (4U * (position & 0x03U)));
 80010fe:	465e      	mov	r6, fp
 8001100:	e7d5      	b.n	80010ae <HAL_GPIO_Init+0x13a>
 8001102:	2601      	movs	r6, #1
 8001104:	e7d3      	b.n	80010ae <HAL_GPIO_Init+0x13a>
 8001106:	2602      	movs	r6, #2
 8001108:	e7d1      	b.n	80010ae <HAL_GPIO_Init+0x13a>
 800110a:	2603      	movs	r6, #3
 800110c:	e7cf      	b.n	80010ae <HAL_GPIO_Init+0x13a>
 800110e:	2604      	movs	r6, #4
 8001110:	e7cd      	b.n	80010ae <HAL_GPIO_Init+0x13a>
 8001112:	2605      	movs	r6, #5
 8001114:	e7cb      	b.n	80010ae <HAL_GPIO_Init+0x13a>
 8001116:	bf00      	nop
 8001118:	40013c00 	.word	0x40013c00
 800111c:	40020000 	.word	0x40020000
 8001120:	40023800 	.word	0x40023800
 8001124:	40021400 	.word	0x40021400

08001128 <HAL_GPIO_ReadPin>:
  GPIO_PinState bitstatus;

  /* Check the parameters */
  assert_param(IS_GPIO_PIN(GPIO_Pin));

  if((GPIOx->IDR & GPIO_Pin) != (uint32_t)GPIO_PIN_RESET)
 8001128:	6903      	ldr	r3, [r0, #16]
 800112a:	4219      	tst	r1, r3
  else
  {
    bitstatus = GPIO_PIN_RESET;
  }
  return bitstatus;
}
 800112c:	bf14      	ite	ne
 800112e:	2001      	movne	r0, #1
 8001130:	2000      	moveq	r0, #0
 8001132:	4770      	bx	lr

08001134 <HAL_GPIO_WritePin>:
{
  /* Check the parameters */
  assert_param(IS_GPIO_PIN(GPIO_Pin));
  assert_param(IS_GPIO_PIN_ACTION(PinState));

  if(PinState != GPIO_PIN_RESET)
 8001134:	b10a      	cbz	r2, 800113a <HAL_GPIO_WritePin+0x6>
  {
    GPIOx->BSRR = GPIO_Pin;
  }
  else
  {
    GPIOx->BSRR = (uint32_t)GPIO_Pin << 16U;
 8001136:	6181      	str	r1, [r0, #24]
  }
}
 8001138:	4770      	bx	lr
    GPIOx->BSRR = (uint32_t)GPIO_Pin << 16U;
 800113a:	0409      	lsls	r1, r1, #16
 800113c:	e7fb      	b.n	8001136 <HAL_GPIO_WritePin+0x2>

0800113e <HAL_GPIO_TogglePin>:
void HAL_GPIO_TogglePin(GPIO_TypeDef* GPIOx, uint16_t GPIO_Pin)
{
  /* Check the parameters */
  assert_param(IS_GPIO_PIN(GPIO_Pin));

  if ((GPIOx->ODR & GPIO_Pin) == GPIO_Pin)
 800113e:	6943      	ldr	r3, [r0, #20]
 8001140:	ea31 0303 	bics.w	r3, r1, r3
  {
    GPIOx->BSRR = (uint32_t)GPIO_Pin << GPIO_NUMBER;
 8001144:	bf08      	it	eq
 8001146:	0409      	lsleq	r1, r1, #16
  }
  else
  {
    GPIOx->BSRR = GPIO_Pin;
 8001148:	6181      	str	r1, [r0, #24]
  }
}
 800114a:	4770      	bx	lr

0800114c <HAL_GPIO_EXTI_IRQHandler>:
  * @brief  This function handles EXTI interrupt request.
  * @param  GPIO_Pin Specifies the pins connected EXTI line
  * @retval None
  */
void HAL_GPIO_EXTI_IRQHandler(uint16_t GPIO_Pin)
{
 800114c:	b508      	push	{r3, lr}
  /* EXTI line interrupt detected */
  if(__HAL_GPIO_EXTI_GET_IT(GPIO_Pin) != RESET)
 800114e:	4b04      	ldr	r3, [pc, #16]	; (8001160 <HAL_GPIO_EXTI_IRQHandler+0x14>)
 8001150:	6959      	ldr	r1, [r3, #20]
 8001152:	4201      	tst	r1, r0
 8001154:	d002      	beq.n	800115c <HAL_GPIO_EXTI_IRQHandler+0x10>
  {
    __HAL_GPIO_EXTI_CLEAR_IT(GPIO_Pin);
 8001156:	6158      	str	r0, [r3, #20]
    HAL_GPIO_EXTI_Callback(GPIO_Pin);
 8001158:	f001 f854 	bl	8002204 <HAL_GPIO_EXTI_Callback>
  }
}
 800115c:	bd08      	pop	{r3, pc}
 800115e:	bf00      	nop
 8001160:	40013c00 	.word	0x40013c00

08001164 <HAL_RCC_ClockConfig>:
  *         HPRE[3:0] bits to ensure that HCLK not exceed the maximum allowed frequency
  *         (for more details refer to section above "Initialization/de-initialization functions")
  * @retval None
  */
HAL_StatusTypeDef HAL_RCC_ClockConfig(RCC_ClkInitTypeDef  *RCC_ClkInitStruct, uint32_t FLatency)
{
 8001164:	e92d 41f0 	stmdb	sp!, {r4, r5, r6, r7, r8, lr}
 8001168:	460d      	mov	r5, r1
  uint32_t tickstart;

  /* Check Null pointer */
  if(RCC_ClkInitStruct == NULL)
 800116a:	4604      	mov	r4, r0
 800116c:	b910      	cbnz	r0, 8001174 <HAL_RCC_ClockConfig+0x10>
  {
    return HAL_ERROR;
 800116e:	2001      	movs	r0, #1

  /* Configure the source of time base considering new system clocks settings */
  HAL_InitTick (uwTickPrio);

  return HAL_OK;
}
 8001170:	e8bd 81f0 	ldmia.w	sp!, {r4, r5, r6, r7, r8, pc}
  if(FLatency > __HAL_FLASH_GET_LATENCY())
 8001174:	4b43      	ldr	r3, [pc, #268]	; (8001284 <HAL_RCC_ClockConfig+0x120>)
 8001176:	681a      	ldr	r2, [r3, #0]
 8001178:	f002 020f 	and.w	r2, r2, #15
 800117c:	428a      	cmp	r2, r1
 800117e:	d328      	bcc.n	80011d2 <HAL_RCC_ClockConfig+0x6e>
  if(((RCC_ClkInitStruct->ClockType) & RCC_CLOCKTYPE_HCLK) == RCC_CLOCKTYPE_HCLK)
 8001180:	6821      	ldr	r1, [r4, #0]
 8001182:	078f      	lsls	r7, r1, #30
 8001184:	d42d      	bmi.n	80011e2 <HAL_RCC_ClockConfig+0x7e>
  if(((RCC_ClkInitStruct->ClockType) & RCC_CLOCKTYPE_SYSCLK) == RCC_CLOCKTYPE_SYSCLK)
 8001186:	07c8      	lsls	r0, r1, #31
 8001188:	d440      	bmi.n	800120c <HAL_RCC_ClockConfig+0xa8>
  if(FLatency < __HAL_FLASH_GET_LATENCY())
 800118a:	4b3e      	ldr	r3, [pc, #248]	; (8001284 <HAL_RCC_ClockConfig+0x120>)
 800118c:	681a      	ldr	r2, [r3, #0]
 800118e:	f002 020f 	and.w	r2, r2, #15
 8001192:	42aa      	cmp	r2, r5
 8001194:	d865      	bhi.n	8001262 <HAL_RCC_ClockConfig+0xfe>
  if(((RCC_ClkInitStruct->ClockType) & RCC_CLOCKTYPE_PCLK1) == RCC_CLOCKTYPE_PCLK1)
 8001196:	6822      	ldr	r2, [r4, #0]
 8001198:	0751      	lsls	r1, r2, #29
 800119a:	d46b      	bmi.n	8001274 <HAL_RCC_ClockConfig+0x110>
  if(((RCC_ClkInitStruct->ClockType) & RCC_CLOCKTYPE_PCLK2) == RCC_CLOCKTYPE_PCLK2)
 800119c:	0713      	lsls	r3, r2, #28
 800119e:	d507      	bpl.n	80011b0 <HAL_RCC_ClockConfig+0x4c>
    MODIFY_REG(RCC->CFGR, RCC_CFGR_PPRE2, ((RCC_ClkInitStruct->APB2CLKDivider) << 3U));
 80011a0:	4a39      	ldr	r2, [pc, #228]	; (8001288 <HAL_RCC_ClockConfig+0x124>)
 80011a2:	6921      	ldr	r1, [r4, #16]
 80011a4:	6893      	ldr	r3, [r2, #8]
 80011a6:	f423 4360 	bic.w	r3, r3, #57344	; 0xe000
 80011aa:	ea43 03c1 	orr.w	r3, r3, r1, lsl #3
 80011ae:	6093      	str	r3, [r2, #8]
  SystemCoreClock = HAL_RCC_GetSysClockFreq() >> AHBPrescTable[(RCC->CFGR & RCC_CFGR_HPRE)>> RCC_CFGR_HPRE_Pos];
 80011b0:	f000 f892 	bl	80012d8 <HAL_RCC_GetSysClockFreq>
 80011b4:	4b34      	ldr	r3, [pc, #208]	; (8001288 <HAL_RCC_ClockConfig+0x124>)
 80011b6:	4a35      	ldr	r2, [pc, #212]	; (800128c <HAL_RCC_ClockConfig+0x128>)
 80011b8:	689b      	ldr	r3, [r3, #8]
 80011ba:	f3c3 1303 	ubfx	r3, r3, #4, #4
 80011be:	5cd3      	ldrb	r3, [r2, r3]
 80011c0:	40d8      	lsrs	r0, r3
 80011c2:	4b33      	ldr	r3, [pc, #204]	; (8001290 <HAL_RCC_ClockConfig+0x12c>)
 80011c4:	6018      	str	r0, [r3, #0]
  HAL_InitTick (uwTickPrio);
 80011c6:	4b33      	ldr	r3, [pc, #204]	; (8001294 <HAL_RCC_ClockConfig+0x130>)
 80011c8:	6818      	ldr	r0, [r3, #0]
 80011ca:	f7ff fc0b 	bl	80009e4 <HAL_InitTick>
  return HAL_OK;
 80011ce:	2000      	movs	r0, #0
 80011d0:	e7ce      	b.n	8001170 <HAL_RCC_ClockConfig+0xc>
    __HAL_FLASH_SET_LATENCY(FLatency);
 80011d2:	b2ca      	uxtb	r2, r1
 80011d4:	701a      	strb	r2, [r3, #0]
    if(__HAL_FLASH_GET_LATENCY() != FLatency)
 80011d6:	681b      	ldr	r3, [r3, #0]
 80011d8:	f003 030f 	and.w	r3, r3, #15
 80011dc:	428b      	cmp	r3, r1
 80011de:	d1c6      	bne.n	800116e <HAL_RCC_ClockConfig+0xa>
 80011e0:	e7ce      	b.n	8001180 <HAL_RCC_ClockConfig+0x1c>
 80011e2:	4b29      	ldr	r3, [pc, #164]	; (8001288 <HAL_RCC_ClockConfig+0x124>)
    if(((RCC_ClkInitStruct->ClockType) & RCC_CLOCKTYPE_PCLK1) == RCC_CLOCKTYPE_PCLK1)
 80011e4:	f011 0f04 	tst.w	r1, #4
      MODIFY_REG(RCC->CFGR, RCC_CFGR_PPRE1, RCC_HCLK_DIV16);
 80011e8:	bf1e      	ittt	ne
 80011ea:	689a      	ldrne	r2, [r3, #8]
 80011ec:	f442 52e0 	orrne.w	r2, r2, #7168	; 0x1c00
 80011f0:	609a      	strne	r2, [r3, #8]
    if(((RCC_ClkInitStruct->ClockType) & RCC_CLOCKTYPE_PCLK2) == RCC_CLOCKTYPE_PCLK2)
 80011f2:	070e      	lsls	r6, r1, #28
      MODIFY_REG(RCC->CFGR, RCC_CFGR_PPRE2, (RCC_HCLK_DIV16 << 3));
 80011f4:	bf42      	ittt	mi
 80011f6:	689a      	ldrmi	r2, [r3, #8]
 80011f8:	f442 4260 	orrmi.w	r2, r2, #57344	; 0xe000
 80011fc:	609a      	strmi	r2, [r3, #8]
    MODIFY_REG(RCC->CFGR, RCC_CFGR_HPRE, RCC_ClkInitStruct->AHBCLKDivider);
 80011fe:	689a      	ldr	r2, [r3, #8]
 8001200:	68a0      	ldr	r0, [r4, #8]
 8001202:	f022 02f0 	bic.w	r2, r2, #240	; 0xf0
 8001206:	4302      	orrs	r2, r0
 8001208:	609a      	str	r2, [r3, #8]
 800120a:	e7bc      	b.n	8001186 <HAL_RCC_ClockConfig+0x22>
    if(RCC_ClkInitStruct->SYSCLKSource == RCC_SYSCLKSOURCE_HSE)
 800120c:	6862      	ldr	r2, [r4, #4]
 800120e:	4b1e      	ldr	r3, [pc, #120]	; (8001288 <HAL_RCC_ClockConfig+0x124>)
 8001210:	2a01      	cmp	r2, #1
 8001212:	d11c      	bne.n	800124e <HAL_RCC_ClockConfig+0xea>
      if(__HAL_RCC_GET_FLAG(RCC_FLAG_HSERDY) == RESET)
 8001214:	681b      	ldr	r3, [r3, #0]
 8001216:	f413 3f00 	tst.w	r3, #131072	; 0x20000
      if(__HAL_RCC_GET_FLAG(RCC_FLAG_HSIRDY) == RESET)
 800121a:	d0a8      	beq.n	800116e <HAL_RCC_ClockConfig+0xa>
    __HAL_RCC_SYSCLK_CONFIG(RCC_ClkInitStruct->SYSCLKSource);
 800121c:	4e1a      	ldr	r6, [pc, #104]	; (8001288 <HAL_RCC_ClockConfig+0x124>)
 800121e:	68b3      	ldr	r3, [r6, #8]
 8001220:	f023 0303 	bic.w	r3, r3, #3
 8001224:	4313      	orrs	r3, r2
 8001226:	60b3      	str	r3, [r6, #8]
    tickstart = HAL_GetTick();
 8001228:	f7ff fc26 	bl	8000a78 <HAL_GetTick>
      if ((HAL_GetTick() - tickstart) > CLOCKSWITCH_TIMEOUT_VALUE)
 800122c:	f241 3888 	movw	r8, #5000	; 0x1388
    tickstart = HAL_GetTick();
 8001230:	4607      	mov	r7, r0
    while (__HAL_RCC_GET_SYSCLK_SOURCE() != (RCC_ClkInitStruct->SYSCLKSource << RCC_CFGR_SWS_Pos))
 8001232:	68b3      	ldr	r3, [r6, #8]
 8001234:	6862      	ldr	r2, [r4, #4]
 8001236:	f003 030c 	and.w	r3, r3, #12
 800123a:	ebb3 0f82 	cmp.w	r3, r2, lsl #2
 800123e:	d0a4      	beq.n	800118a <HAL_RCC_ClockConfig+0x26>
      if ((HAL_GetTick() - tickstart) > CLOCKSWITCH_TIMEOUT_VALUE)
 8001240:	f7ff fc1a 	bl	8000a78 <HAL_GetTick>
 8001244:	1bc0      	subs	r0, r0, r7
 8001246:	4540      	cmp	r0, r8
 8001248:	d9f3      	bls.n	8001232 <HAL_RCC_ClockConfig+0xce>
        return HAL_TIMEOUT;
 800124a:	2003      	movs	r0, #3
 800124c:	e790      	b.n	8001170 <HAL_RCC_ClockConfig+0xc>
    else if((RCC_ClkInitStruct->SYSCLKSource == RCC_SYSCLKSOURCE_PLLCLK)   ||
 800124e:	1e91      	subs	r1, r2, #2
 8001250:	2901      	cmp	r1, #1
      if(__HAL_RCC_GET_FLAG(RCC_FLAG_PLLRDY) == RESET)
 8001252:	681b      	ldr	r3, [r3, #0]
    else if((RCC_ClkInitStruct->SYSCLKSource == RCC_SYSCLKSOURCE_PLLCLK)   ||
 8001254:	d802      	bhi.n	800125c <HAL_RCC_ClockConfig+0xf8>
      if(__HAL_RCC_GET_FLAG(RCC_FLAG_PLLRDY) == RESET)
 8001256:	f013 7f00 	tst.w	r3, #33554432	; 0x2000000
 800125a:	e7de      	b.n	800121a <HAL_RCC_ClockConfig+0xb6>
      if(__HAL_RCC_GET_FLAG(RCC_FLAG_HSIRDY) == RESET)
 800125c:	f013 0f02 	tst.w	r3, #2
 8001260:	e7db      	b.n	800121a <HAL_RCC_ClockConfig+0xb6>
    __HAL_FLASH_SET_LATENCY(FLatency);
 8001262:	b2ea      	uxtb	r2, r5
 8001264:	701a      	strb	r2, [r3, #0]
    if(__HAL_FLASH_GET_LATENCY() != FLatency)
 8001266:	681b      	ldr	r3, [r3, #0]
 8001268:	f003 030f 	and.w	r3, r3, #15
 800126c:	42ab      	cmp	r3, r5
 800126e:	f47f af7e 	bne.w	800116e <HAL_RCC_ClockConfig+0xa>
 8001272:	e790      	b.n	8001196 <HAL_RCC_ClockConfig+0x32>
    MODIFY_REG(RCC->CFGR, RCC_CFGR_PPRE1, RCC_ClkInitStruct->APB1CLKDivider);
 8001274:	4904      	ldr	r1, [pc, #16]	; (8001288 <HAL_RCC_ClockConfig+0x124>)
 8001276:	68e0      	ldr	r0, [r4, #12]
 8001278:	688b      	ldr	r3, [r1, #8]
 800127a:	f423 53e0 	bic.w	r3, r3, #7168	; 0x1c00
 800127e:	4303      	orrs	r3, r0
 8001280:	608b      	str	r3, [r1, #8]
 8001282:	e78b      	b.n	800119c <HAL_RCC_ClockConfig+0x38>
 8001284:	40023c00 	.word	0x40023c00
 8001288:	40023800 	.word	0x40023800
 800128c:	0800398d 	.word	0x0800398d
 8001290:	20000010 	.word	0x20000010
 8001294:	2000000c 	.word	0x2000000c

08001298 <HAL_RCC_GetPCLK1Freq>:
  * @retval PCLK1 frequency
  */
uint32_t HAL_RCC_GetPCLK1Freq(void)
{
  /* Get HCLK source and Compute PCLK1 frequency ---------------------------*/
  return (HAL_RCC_GetHCLKFreq() >> APBPrescTable[(RCC->CFGR & RCC_CFGR_PPRE1)>> RCC_CFGR_PPRE1_Pos]);
 8001298:	4b04      	ldr	r3, [pc, #16]	; (80012ac <HAL_RCC_GetPCLK1Freq+0x14>)
 800129a:	4a05      	ldr	r2, [pc, #20]	; (80012b0 <HAL_RCC_GetPCLK1Freq+0x18>)
 800129c:	689b      	ldr	r3, [r3, #8]
 800129e:	f3c3 2382 	ubfx	r3, r3, #10, #3
 80012a2:	5cd3      	ldrb	r3, [r2, r3]
 80012a4:	4a03      	ldr	r2, [pc, #12]	; (80012b4 <HAL_RCC_GetPCLK1Freq+0x1c>)
 80012a6:	6810      	ldr	r0, [r2, #0]
}
 80012a8:	40d8      	lsrs	r0, r3
 80012aa:	4770      	bx	lr
 80012ac:	40023800 	.word	0x40023800
 80012b0:	0800399d 	.word	0x0800399d
 80012b4:	20000010 	.word	0x20000010

080012b8 <HAL_RCC_GetPCLK2Freq>:
  * @retval PCLK2 frequency
  */
uint32_t HAL_RCC_GetPCLK2Freq(void)
{
  /* Get HCLK source and Compute PCLK2 frequency ---------------------------*/
  return (HAL_RCC_GetHCLKFreq()>> APBPrescTable[(RCC->CFGR & RCC_CFGR_PPRE2)>> RCC_CFGR_PPRE2_Pos]);
 80012b8:	4b04      	ldr	r3, [pc, #16]	; (80012cc <HAL_RCC_GetPCLK2Freq+0x14>)
 80012ba:	4a05      	ldr	r2, [pc, #20]	; (80012d0 <HAL_RCC_GetPCLK2Freq+0x18>)
 80012bc:	689b      	ldr	r3, [r3, #8]
 80012be:	f3c3 3342 	ubfx	r3, r3, #13, #3
 80012c2:	5cd3      	ldrb	r3, [r2, r3]
 80012c4:	4a03      	ldr	r2, [pc, #12]	; (80012d4 <HAL_RCC_GetPCLK2Freq+0x1c>)
 80012c6:	6810      	ldr	r0, [r2, #0]
}
 80012c8:	40d8      	lsrs	r0, r3
 80012ca:	4770      	bx	lr
 80012cc:	40023800 	.word	0x40023800
 80012d0:	0800399d 	.word	0x0800399d
 80012d4:	20000010 	.word	0x20000010

080012d8 <HAL_RCC_GetSysClockFreq>:
  uint32_t pllp = 0U;
  uint32_t pllr = 0U;
  uint32_t sysclockfreq = 0U;

  /* Get SYSCLK source -------------------------------------------------------*/
  switch (RCC->CFGR & RCC_CFGR_SWS)
 80012d8:	4920      	ldr	r1, [pc, #128]	; (800135c <HAL_RCC_GetSysClockFreq+0x84>)
{
 80012da:	b508      	push	{r3, lr}
  switch (RCC->CFGR & RCC_CFGR_SWS)
 80012dc:	688b      	ldr	r3, [r1, #8]
 80012de:	f003 030c 	and.w	r3, r3, #12
 80012e2:	2b08      	cmp	r3, #8
 80012e4:	d007      	beq.n	80012f6 <HAL_RCC_GetSysClockFreq+0x1e>
 80012e6:	2b0c      	cmp	r3, #12
 80012e8:	d020      	beq.n	800132c <HAL_RCC_GetSysClockFreq+0x54>
  {
    case RCC_CFGR_SWS_HSI:  /* HSI used as system clock source */
    {
      sysclockfreq = HSI_VALUE;
 80012ea:	481d      	ldr	r0, [pc, #116]	; (8001360 <HAL_RCC_GetSysClockFreq+0x88>)
 80012ec:	4a1d      	ldr	r2, [pc, #116]	; (8001364 <HAL_RCC_GetSysClockFreq+0x8c>)
 80012ee:	2b04      	cmp	r3, #4
 80012f0:	bf18      	it	ne
 80012f2:	4610      	movne	r0, r2
      sysclockfreq = HSI_VALUE;
      break;
    }
  }
  return sysclockfreq;
}
 80012f4:	bd08      	pop	{r3, pc}
      pllm = RCC->PLLCFGR & RCC_PLLCFGR_PLLM;
 80012f6:	684a      	ldr	r2, [r1, #4]
      if(__HAL_RCC_GET_PLL_OSCSOURCE() != RCC_PLLSOURCE_HSI)
 80012f8:	684b      	ldr	r3, [r1, #4]
        pllvco = (uint32_t) ((((uint64_t) HSE_VALUE * ((uint64_t) ((RCC->PLLCFGR & RCC_PLLCFGR_PLLN) >> RCC_PLLCFGR_PLLN_Pos)))) / (uint64_t)pllm);
 80012fa:	6849      	ldr	r1, [r1, #4]
      if(__HAL_RCC_GET_PLL_OSCSOURCE() != RCC_PLLSOURCE_HSI)
 80012fc:	f413 0380 	ands.w	r3, r3, #4194304	; 0x400000
        pllvco = (uint32_t) ((((uint64_t) HSE_VALUE * ((uint64_t) ((RCC->PLLCFGR & RCC_PLLCFGR_PLLN) >> RCC_PLLCFGR_PLLN_Pos)))) / (uint64_t)pllm);
 8001300:	bf14      	ite	ne
 8001302:	4817      	ldrne	r0, [pc, #92]	; (8001360 <HAL_RCC_GetSysClockFreq+0x88>)
        pllvco = (uint32_t) ((((uint64_t) HSI_VALUE * ((uint64_t) ((RCC->PLLCFGR & RCC_PLLCFGR_PLLN) >> RCC_PLLCFGR_PLLN_Pos)))) / (uint64_t)pllm);
 8001304:	4817      	ldreq	r0, [pc, #92]	; (8001364 <HAL_RCC_GetSysClockFreq+0x8c>)
        pllvco = (uint32_t) ((((uint64_t) HSE_VALUE * ((uint64_t) ((RCC->PLLCFGR & RCC_PLLCFGR_PLLN) >> RCC_PLLCFGR_PLLN_Pos)))) / (uint64_t)pllm);
 8001306:	f3c1 1188 	ubfx	r1, r1, #6, #9
 800130a:	bf18      	it	ne
 800130c:	2300      	movne	r3, #0
      pllm = RCC->PLLCFGR & RCC_PLLCFGR_PLLM;
 800130e:	f002 023f 	and.w	r2, r2, #63	; 0x3f
        pllvco = (uint32_t) ((((uint64_t) HSI_VALUE * ((uint64_t) ((RCC->PLLCFGR & RCC_PLLCFGR_PLLN) >> RCC_PLLCFGR_PLLN_Pos)))) / (uint64_t)pllm);
 8001312:	fba1 0100 	umull	r0, r1, r1, r0
 8001316:	f7fe ffd3 	bl	80002c0 <__aeabi_uldivmod>
      pllp = ((((RCC->PLLCFGR & RCC_PLLCFGR_PLLP) >> RCC_PLLCFGR_PLLP_Pos) + 1U) *2U);
 800131a:	4b10      	ldr	r3, [pc, #64]	; (800135c <HAL_RCC_GetSysClockFreq+0x84>)
 800131c:	685b      	ldr	r3, [r3, #4]
 800131e:	f3c3 4301 	ubfx	r3, r3, #16, #2
 8001322:	3301      	adds	r3, #1
 8001324:	005b      	lsls	r3, r3, #1
      sysclockfreq = pllvco/pllr;
 8001326:	fbb0 f0f3 	udiv	r0, r0, r3
      break;
 800132a:	e7e3      	b.n	80012f4 <HAL_RCC_GetSysClockFreq+0x1c>
      pllm = RCC->PLLCFGR & RCC_PLLCFGR_PLLM;
 800132c:	684a      	ldr	r2, [r1, #4]
      if(__HAL_RCC_GET_PLL_OSCSOURCE() != RCC_PLLSOURCE_HSI)
 800132e:	684b      	ldr	r3, [r1, #4]
        pllvco = (uint32_t) ((((uint64_t) HSE_VALUE * ((uint64_t) ((RCC->PLLCFGR & RCC_PLLCFGR_PLLN) >> RCC_PLLCFGR_PLLN_Pos)))) / (uint64_t)pllm);
 8001330:	6849      	ldr	r1, [r1, #4]
      if(__HAL_RCC_GET_PLL_OSCSOURCE() != RCC_PLLSOURCE_HSI)
 8001332:	f413 0380 	ands.w	r3, r3, #4194304	; 0x400000
        pllvco = (uint32_t) ((((uint64_t) HSE_VALUE * ((uint64_t) ((RCC->PLLCFGR & RCC_PLLCFGR_PLLN) >> RCC_PLLCFGR_PLLN_Pos)))) / (uint64_t)pllm);
 8001336:	bf14      	ite	ne
 8001338:	4809      	ldrne	r0, [pc, #36]	; (8001360 <HAL_RCC_GetSysClockFreq+0x88>)
        pllvco = (uint32_t) ((((uint64_t) HSI_VALUE * ((uint64_t) ((RCC->PLLCFGR & RCC_PLLCFGR_PLLN) >> RCC_PLLCFGR_PLLN_Pos)))) / (uint64_t)pllm);
 800133a:	480a      	ldreq	r0, [pc, #40]	; (8001364 <HAL_RCC_GetSysClockFreq+0x8c>)
        pllvco = (uint32_t) ((((uint64_t) HSE_VALUE * ((uint64_t) ((RCC->PLLCFGR & RCC_PLLCFGR_PLLN) >> RCC_PLLCFGR_PLLN_Pos)))) / (uint64_t)pllm);
 800133c:	f3c1 1188 	ubfx	r1, r1, #6, #9
 8001340:	bf18      	it	ne
 8001342:	2300      	movne	r3, #0
      pllm = RCC->PLLCFGR & RCC_PLLCFGR_PLLM;
 8001344:	f002 023f 	and.w	r2, r2, #63	; 0x3f
        pllvco = (uint32_t) ((((uint64_t) HSI_VALUE * ((uint64_t) ((RCC->PLLCFGR & RCC_PLLCFGR_PLLN) >> RCC_PLLCFGR_PLLN_Pos)))) / (uint64_t)pllm);
 8001348:	fba1 0100 	umull	r0, r1, r1, r0
 800134c:	f7fe ffb8 	bl	80002c0 <__aeabi_uldivmod>
      pllr = ((RCC->PLLCFGR & RCC_PLLCFGR_PLLR) >> RCC_PLLCFGR_PLLR_Pos);
 8001350:	4b02      	ldr	r3, [pc, #8]	; (800135c <HAL_RCC_GetSysClockFreq+0x84>)
 8001352:	685b      	ldr	r3, [r3, #4]
 8001354:	f3c3 7302 	ubfx	r3, r3, #28, #3
 8001358:	e7e5      	b.n	8001326 <HAL_RCC_GetSysClockFreq+0x4e>
 800135a:	bf00      	nop
 800135c:	40023800 	.word	0x40023800
 8001360:	007a1200 	.word	0x007a1200
 8001364:	00f42400 	.word	0x00f42400

08001368 <HAL_RCC_OscConfig>:
  uint32_t tickstart = 0U;

  /* Check the parameters */
  assert_param(IS_RCC_OSCILLATORTYPE(RCC_OscInitStruct->OscillatorType));
  /*------------------------------- HSE Configuration ------------------------*/
  if(((RCC_OscInitStruct->OscillatorType) & RCC_OSCILLATORTYPE_HSE) == RCC_OSCILLATORTYPE_HSE)
 8001368:	6803      	ldr	r3, [r0, #0]
{
 800136a:	e92d 41f3 	stmdb	sp!, {r0, r1, r4, r5, r6, r7, r8, lr}
  if(((RCC_OscInitStruct->OscillatorType) & RCC_OSCILLATORTYPE_HSE) == RCC_OSCILLATORTYPE_HSE)
 800136e:	07df      	lsls	r7, r3, #31
{
 8001370:	4604      	mov	r4, r0
  if(((RCC_OscInitStruct->OscillatorType) & RCC_OSCILLATORTYPE_HSE) == RCC_OSCILLATORTYPE_HSE)
 8001372:	d410      	bmi.n	8001396 <HAL_RCC_OscConfig+0x2e>
        }
      }
    }
  }
  /*----------------------------- HSI Configuration --------------------------*/
  if(((RCC_OscInitStruct->OscillatorType) & RCC_OSCILLATORTYPE_HSI) == RCC_OSCILLATORTYPE_HSI)
 8001374:	6823      	ldr	r3, [r4, #0]
 8001376:	079e      	lsls	r6, r3, #30
 8001378:	d467      	bmi.n	800144a <HAL_RCC_OscConfig+0xe2>
        }
      }
    }
  }
  /*------------------------------ LSI Configuration -------------------------*/
  if(((RCC_OscInitStruct->OscillatorType) & RCC_OSCILLATORTYPE_LSI) == RCC_OSCILLATORTYPE_LSI)
 800137a:	6823      	ldr	r3, [r4, #0]
 800137c:	071a      	lsls	r2, r3, #28
 800137e:	f100 80b2 	bmi.w	80014e6 <HAL_RCC_OscConfig+0x17e>
        }
      }
    }
  }
  /*------------------------------ LSE Configuration -------------------------*/
  if(((RCC_OscInitStruct->OscillatorType) & RCC_OSCILLATORTYPE_LSE) == RCC_OSCILLATORTYPE_LSE)
 8001382:	6823      	ldr	r3, [r4, #0]
 8001384:	075b      	lsls	r3, r3, #29
 8001386:	f100 80d0 	bmi.w	800152a <HAL_RCC_OscConfig+0x1c2>
    }
  }
  /*-------------------------------- PLL Configuration -----------------------*/
  /* Check the parameters */
  assert_param(IS_RCC_PLL(RCC_OscInitStruct->PLL.PLLState));
  if ((RCC_OscInitStruct->PLL.PLLState) != RCC_PLL_NONE)
 800138a:	69a2      	ldr	r2, [r4, #24]
 800138c:	2a00      	cmp	r2, #0
 800138e:	f040 8139 	bne.w	8001604 <HAL_RCC_OscConfig+0x29c>
    else
    {
      return HAL_ERROR;
    }
  }
  return HAL_OK;
 8001392:	2000      	movs	r0, #0
 8001394:	e01e      	b.n	80013d4 <HAL_RCC_OscConfig+0x6c>
    if((__HAL_RCC_GET_SYSCLK_SOURCE() == RCC_CFGR_SWS_HSE)                                                                     ||\
 8001396:	4b97      	ldr	r3, [pc, #604]	; (80015f4 <HAL_RCC_OscConfig+0x28c>)
 8001398:	689a      	ldr	r2, [r3, #8]
 800139a:	f002 020c 	and.w	r2, r2, #12
 800139e:	2a04      	cmp	r2, #4
 80013a0:	d010      	beq.n	80013c4 <HAL_RCC_OscConfig+0x5c>
      ((__HAL_RCC_GET_SYSCLK_SOURCE() == RCC_CFGR_SWS_PLL) && ((RCC->PLLCFGR & RCC_PLLCFGR_PLLSRC) == RCC_PLLCFGR_PLLSRC_HSE)) ||\
 80013a2:	689a      	ldr	r2, [r3, #8]
 80013a4:	f002 020c 	and.w	r2, r2, #12
    if((__HAL_RCC_GET_SYSCLK_SOURCE() == RCC_CFGR_SWS_HSE)                                                                     ||\
 80013a8:	2a08      	cmp	r2, #8
 80013aa:	d102      	bne.n	80013b2 <HAL_RCC_OscConfig+0x4a>
      ((__HAL_RCC_GET_SYSCLK_SOURCE() == RCC_CFGR_SWS_PLL) && ((RCC->PLLCFGR & RCC_PLLCFGR_PLLSRC) == RCC_PLLCFGR_PLLSRC_HSE)) ||\
 80013ac:	685b      	ldr	r3, [r3, #4]
 80013ae:	025d      	lsls	r5, r3, #9
 80013b0:	d408      	bmi.n	80013c4 <HAL_RCC_OscConfig+0x5c>
      ((__HAL_RCC_GET_SYSCLK_SOURCE() == RCC_CFGR_SWS_PLLR) && ((RCC->PLLCFGR & RCC_PLLCFGR_PLLSRC) == RCC_PLLCFGR_PLLSRC_HSE)))
 80013b2:	4b90      	ldr	r3, [pc, #576]	; (80015f4 <HAL_RCC_OscConfig+0x28c>)
 80013b4:	689a      	ldr	r2, [r3, #8]
 80013b6:	f002 020c 	and.w	r2, r2, #12
      ((__HAL_RCC_GET_SYSCLK_SOURCE() == RCC_CFGR_SWS_PLL) && ((RCC->PLLCFGR & RCC_PLLCFGR_PLLSRC) == RCC_PLLCFGR_PLLSRC_HSE)) ||\
 80013ba:	2a0c      	cmp	r2, #12
 80013bc:	d10d      	bne.n	80013da <HAL_RCC_OscConfig+0x72>
      ((__HAL_RCC_GET_SYSCLK_SOURCE() == RCC_CFGR_SWS_PLLR) && ((RCC->PLLCFGR & RCC_PLLCFGR_PLLSRC) == RCC_PLLCFGR_PLLSRC_HSE)))
 80013be:	685a      	ldr	r2, [r3, #4]
 80013c0:	0250      	lsls	r0, r2, #9
 80013c2:	d50a      	bpl.n	80013da <HAL_RCC_OscConfig+0x72>
      if((__HAL_RCC_GET_FLAG(RCC_FLAG_HSERDY) != RESET) && (RCC_OscInitStruct->HSEState == RCC_HSE_OFF))
 80013c4:	4b8b      	ldr	r3, [pc, #556]	; (80015f4 <HAL_RCC_OscConfig+0x28c>)
 80013c6:	681b      	ldr	r3, [r3, #0]
 80013c8:	0399      	lsls	r1, r3, #14
 80013ca:	d5d3      	bpl.n	8001374 <HAL_RCC_OscConfig+0xc>
 80013cc:	6863      	ldr	r3, [r4, #4]
 80013ce:	2b00      	cmp	r3, #0
 80013d0:	d1d0      	bne.n	8001374 <HAL_RCC_OscConfig+0xc>
        return HAL_ERROR;
 80013d2:	2001      	movs	r0, #1
}
 80013d4:	b002      	add	sp, #8
 80013d6:	e8bd 81f0 	ldmia.w	sp!, {r4, r5, r6, r7, r8, pc}
      __HAL_RCC_HSE_CONFIG(RCC_OscInitStruct->HSEState);
 80013da:	6862      	ldr	r2, [r4, #4]
 80013dc:	f5b2 3f80 	cmp.w	r2, #65536	; 0x10000
 80013e0:	d111      	bne.n	8001406 <HAL_RCC_OscConfig+0x9e>
 80013e2:	681a      	ldr	r2, [r3, #0]
 80013e4:	f442 3280 	orr.w	r2, r2, #65536	; 0x10000
 80013e8:	601a      	str	r2, [r3, #0]
        tickstart = HAL_GetTick();
 80013ea:	f7ff fb45 	bl	8000a78 <HAL_GetTick>
        while(__HAL_RCC_GET_FLAG(RCC_FLAG_HSERDY) == RESET)
 80013ee:	4d81      	ldr	r5, [pc, #516]	; (80015f4 <HAL_RCC_OscConfig+0x28c>)
        tickstart = HAL_GetTick();
 80013f0:	4606      	mov	r6, r0
        while(__HAL_RCC_GET_FLAG(RCC_FLAG_HSERDY) == RESET)
 80013f2:	682b      	ldr	r3, [r5, #0]
 80013f4:	039a      	lsls	r2, r3, #14
 80013f6:	d4bd      	bmi.n	8001374 <HAL_RCC_OscConfig+0xc>
          if((HAL_GetTick() - tickstart ) > HSE_TIMEOUT_VALUE)
 80013f8:	f7ff fb3e 	bl	8000a78 <HAL_GetTick>
 80013fc:	1b80      	subs	r0, r0, r6
 80013fe:	2864      	cmp	r0, #100	; 0x64
 8001400:	d9f7      	bls.n	80013f2 <HAL_RCC_OscConfig+0x8a>
            return HAL_TIMEOUT;
 8001402:	2003      	movs	r0, #3
 8001404:	e7e6      	b.n	80013d4 <HAL_RCC_OscConfig+0x6c>
 8001406:	4d7b      	ldr	r5, [pc, #492]	; (80015f4 <HAL_RCC_OscConfig+0x28c>)
      __HAL_RCC_HSE_CONFIG(RCC_OscInitStruct->HSEState);
 8001408:	f5b2 2fa0 	cmp.w	r2, #327680	; 0x50000
 800140c:	682b      	ldr	r3, [r5, #0]
 800140e:	d107      	bne.n	8001420 <HAL_RCC_OscConfig+0xb8>
 8001410:	f443 2380 	orr.w	r3, r3, #262144	; 0x40000
 8001414:	602b      	str	r3, [r5, #0]
 8001416:	682b      	ldr	r3, [r5, #0]
 8001418:	f443 3380 	orr.w	r3, r3, #65536	; 0x10000
 800141c:	602b      	str	r3, [r5, #0]
 800141e:	e7e4      	b.n	80013ea <HAL_RCC_OscConfig+0x82>
 8001420:	f423 3380 	bic.w	r3, r3, #65536	; 0x10000
 8001424:	602b      	str	r3, [r5, #0]
 8001426:	682b      	ldr	r3, [r5, #0]
 8001428:	f423 2380 	bic.w	r3, r3, #262144	; 0x40000
 800142c:	602b      	str	r3, [r5, #0]
      if((RCC_OscInitStruct->HSEState) != RCC_HSE_OFF)
 800142e:	2a00      	cmp	r2, #0
 8001430:	d1db      	bne.n	80013ea <HAL_RCC_OscConfig+0x82>
        tickstart = HAL_GetTick();
 8001432:	f7ff fb21 	bl	8000a78 <HAL_GetTick>
 8001436:	4606      	mov	r6, r0
        while(__HAL_RCC_GET_FLAG(RCC_FLAG_HSERDY) != RESET)
 8001438:	682b      	ldr	r3, [r5, #0]
 800143a:	039b      	lsls	r3, r3, #14
 800143c:	d59a      	bpl.n	8001374 <HAL_RCC_OscConfig+0xc>
          if((HAL_GetTick() - tickstart ) > HSE_TIMEOUT_VALUE)
 800143e:	f7ff fb1b 	bl	8000a78 <HAL_GetTick>
 8001442:	1b80      	subs	r0, r0, r6
 8001444:	2864      	cmp	r0, #100	; 0x64
 8001446:	d9f7      	bls.n	8001438 <HAL_RCC_OscConfig+0xd0>
 8001448:	e7db      	b.n	8001402 <HAL_RCC_OscConfig+0x9a>
    if((__HAL_RCC_GET_SYSCLK_SOURCE() == RCC_CFGR_SWS_HSI)                                                                     ||\
 800144a:	4b6a      	ldr	r3, [pc, #424]	; (80015f4 <HAL_RCC_OscConfig+0x28c>)
 800144c:	689a      	ldr	r2, [r3, #8]
 800144e:	f012 0f0c 	tst.w	r2, #12
 8001452:	d010      	beq.n	8001476 <HAL_RCC_OscConfig+0x10e>
      ((__HAL_RCC_GET_SYSCLK_SOURCE() == RCC_CFGR_SWS_PLL) && ((RCC->PLLCFGR & RCC_PLLCFGR_PLLSRC) == RCC_PLLCFGR_PLLSRC_HSI)) ||\
 8001454:	689a      	ldr	r2, [r3, #8]
 8001456:	f002 020c 	and.w	r2, r2, #12
    if((__HAL_RCC_GET_SYSCLK_SOURCE() == RCC_CFGR_SWS_HSI)                                                                     ||\
 800145a:	2a08      	cmp	r2, #8
 800145c:	d102      	bne.n	8001464 <HAL_RCC_OscConfig+0xfc>
      ((__HAL_RCC_GET_SYSCLK_SOURCE() == RCC_CFGR_SWS_PLL) && ((RCC->PLLCFGR & RCC_PLLCFGR_PLLSRC) == RCC_PLLCFGR_PLLSRC_HSI)) ||\
 800145e:	685b      	ldr	r3, [r3, #4]
 8001460:	025f      	lsls	r7, r3, #9
 8001462:	d508      	bpl.n	8001476 <HAL_RCC_OscConfig+0x10e>
      ((__HAL_RCC_GET_SYSCLK_SOURCE() == RCC_CFGR_SWS_PLLR) && ((RCC->PLLCFGR & RCC_PLLCFGR_PLLSRC) == RCC_PLLCFGR_PLLSRC_HSI)))
 8001464:	4a63      	ldr	r2, [pc, #396]	; (80015f4 <HAL_RCC_OscConfig+0x28c>)
 8001466:	6893      	ldr	r3, [r2, #8]
 8001468:	f003 030c 	and.w	r3, r3, #12
      ((__HAL_RCC_GET_SYSCLK_SOURCE() == RCC_CFGR_SWS_PLL) && ((RCC->PLLCFGR & RCC_PLLCFGR_PLLSRC) == RCC_PLLCFGR_PLLSRC_HSI)) ||\
 800146c:	2b0c      	cmp	r3, #12
 800146e:	d111      	bne.n	8001494 <HAL_RCC_OscConfig+0x12c>
      ((__HAL_RCC_GET_SYSCLK_SOURCE() == RCC_CFGR_SWS_PLLR) && ((RCC->PLLCFGR & RCC_PLLCFGR_PLLSRC) == RCC_PLLCFGR_PLLSRC_HSI)))
 8001470:	6853      	ldr	r3, [r2, #4]
 8001472:	025e      	lsls	r6, r3, #9
 8001474:	d40e      	bmi.n	8001494 <HAL_RCC_OscConfig+0x12c>
      if((__HAL_RCC_GET_FLAG(RCC_FLAG_HSIRDY) != RESET) && (RCC_OscInitStruct->HSIState != RCC_HSI_ON))
 8001476:	4b5f      	ldr	r3, [pc, #380]	; (80015f4 <HAL_RCC_OscConfig+0x28c>)
 8001478:	681a      	ldr	r2, [r3, #0]
 800147a:	0795      	lsls	r5, r2, #30
 800147c:	d502      	bpl.n	8001484 <HAL_RCC_OscConfig+0x11c>
 800147e:	68e2      	ldr	r2, [r4, #12]
 8001480:	2a01      	cmp	r2, #1
 8001482:	d1a6      	bne.n	80013d2 <HAL_RCC_OscConfig+0x6a>
        __HAL_RCC_HSI_CALIBRATIONVALUE_ADJUST(RCC_OscInitStruct->HSICalibrationValue);
 8001484:	681a      	ldr	r2, [r3, #0]
 8001486:	6921      	ldr	r1, [r4, #16]
 8001488:	f022 02f8 	bic.w	r2, r2, #248	; 0xf8
 800148c:	ea42 02c1 	orr.w	r2, r2, r1, lsl #3
 8001490:	601a      	str	r2, [r3, #0]
      if((__HAL_RCC_GET_FLAG(RCC_FLAG_HSIRDY) != RESET) && (RCC_OscInitStruct->HSIState != RCC_HSI_ON))
 8001492:	e772      	b.n	800137a <HAL_RCC_OscConfig+0x12>
      if((RCC_OscInitStruct->HSIState)!= RCC_HSI_OFF)
 8001494:	68e2      	ldr	r2, [r4, #12]
 8001496:	4b58      	ldr	r3, [pc, #352]	; (80015f8 <HAL_RCC_OscConfig+0x290>)
 8001498:	b1b2      	cbz	r2, 80014c8 <HAL_RCC_OscConfig+0x160>
        __HAL_RCC_HSI_ENABLE();
 800149a:	2201      	movs	r2, #1
 800149c:	601a      	str	r2, [r3, #0]
        tickstart = HAL_GetTick();
 800149e:	f7ff faeb 	bl	8000a78 <HAL_GetTick>
        while(__HAL_RCC_GET_FLAG(RCC_FLAG_HSIRDY) == RESET)
 80014a2:	4d54      	ldr	r5, [pc, #336]	; (80015f4 <HAL_RCC_OscConfig+0x28c>)
        tickstart = HAL_GetTick();
 80014a4:	4606      	mov	r6, r0
        while(__HAL_RCC_GET_FLAG(RCC_FLAG_HSIRDY) == RESET)
 80014a6:	682b      	ldr	r3, [r5, #0]
 80014a8:	0798      	lsls	r0, r3, #30
 80014aa:	d507      	bpl.n	80014bc <HAL_RCC_OscConfig+0x154>
        __HAL_RCC_HSI_CALIBRATIONVALUE_ADJUST(RCC_OscInitStruct->HSICalibrationValue);
 80014ac:	682b      	ldr	r3, [r5, #0]
 80014ae:	6922      	ldr	r2, [r4, #16]
 80014b0:	f023 03f8 	bic.w	r3, r3, #248	; 0xf8
 80014b4:	ea43 03c2 	orr.w	r3, r3, r2, lsl #3
 80014b8:	602b      	str	r3, [r5, #0]
 80014ba:	e75e      	b.n	800137a <HAL_RCC_OscConfig+0x12>
          if((HAL_GetTick() - tickstart ) > HSI_TIMEOUT_VALUE)
 80014bc:	f7ff fadc 	bl	8000a78 <HAL_GetTick>
 80014c0:	1b80      	subs	r0, r0, r6
 80014c2:	2802      	cmp	r0, #2
 80014c4:	d9ef      	bls.n	80014a6 <HAL_RCC_OscConfig+0x13e>
 80014c6:	e79c      	b.n	8001402 <HAL_RCC_OscConfig+0x9a>
        __HAL_RCC_HSI_DISABLE();
 80014c8:	601a      	str	r2, [r3, #0]
        tickstart = HAL_GetTick();
 80014ca:	f7ff fad5 	bl	8000a78 <HAL_GetTick>
        while(__HAL_RCC_GET_FLAG(RCC_FLAG_HSIRDY) != RESET)
 80014ce:	4d49      	ldr	r5, [pc, #292]	; (80015f4 <HAL_RCC_OscConfig+0x28c>)
        tickstart = HAL_GetTick();
 80014d0:	4606      	mov	r6, r0
        while(__HAL_RCC_GET_FLAG(RCC_FLAG_HSIRDY) != RESET)
 80014d2:	682b      	ldr	r3, [r5, #0]
 80014d4:	0799      	lsls	r1, r3, #30
 80014d6:	f57f af50 	bpl.w	800137a <HAL_RCC_OscConfig+0x12>
          if((HAL_GetTick() - tickstart ) > HSI_TIMEOUT_VALUE)
 80014da:	f7ff facd 	bl	8000a78 <HAL_GetTick>
 80014de:	1b80      	subs	r0, r0, r6
 80014e0:	2802      	cmp	r0, #2
 80014e2:	d9f6      	bls.n	80014d2 <HAL_RCC_OscConfig+0x16a>
 80014e4:	e78d      	b.n	8001402 <HAL_RCC_OscConfig+0x9a>
    if((RCC_OscInitStruct->LSIState)!= RCC_LSI_OFF)
 80014e6:	6962      	ldr	r2, [r4, #20]
 80014e8:	4b44      	ldr	r3, [pc, #272]	; (80015fc <HAL_RCC_OscConfig+0x294>)
 80014ea:	b17a      	cbz	r2, 800150c <HAL_RCC_OscConfig+0x1a4>
      __HAL_RCC_LSI_ENABLE();
 80014ec:	2201      	movs	r2, #1
 80014ee:	601a      	str	r2, [r3, #0]
      tickstart = HAL_GetTick();
 80014f0:	f7ff fac2 	bl	8000a78 <HAL_GetTick>
      while(__HAL_RCC_GET_FLAG(RCC_FLAG_LSIRDY) == RESET)
 80014f4:	4d3f      	ldr	r5, [pc, #252]	; (80015f4 <HAL_RCC_OscConfig+0x28c>)
      tickstart = HAL_GetTick();
 80014f6:	4606      	mov	r6, r0
      while(__HAL_RCC_GET_FLAG(RCC_FLAG_LSIRDY) == RESET)
 80014f8:	6f6b      	ldr	r3, [r5, #116]	; 0x74
 80014fa:	079f      	lsls	r7, r3, #30
 80014fc:	f53f af41 	bmi.w	8001382 <HAL_RCC_OscConfig+0x1a>
        if((HAL_GetTick() - tickstart ) > LSI_TIMEOUT_VALUE)
 8001500:	f7ff faba 	bl	8000a78 <HAL_GetTick>
 8001504:	1b80      	subs	r0, r0, r6
 8001506:	2802      	cmp	r0, #2
 8001508:	d9f6      	bls.n	80014f8 <HAL_RCC_OscConfig+0x190>
 800150a:	e77a      	b.n	8001402 <HAL_RCC_OscConfig+0x9a>
      __HAL_RCC_LSI_DISABLE();
 800150c:	601a      	str	r2, [r3, #0]
      tickstart = HAL_GetTick();
 800150e:	f7ff fab3 	bl	8000a78 <HAL_GetTick>
      while(__HAL_RCC_GET_FLAG(RCC_FLAG_LSIRDY) != RESET)
 8001512:	4d38      	ldr	r5, [pc, #224]	; (80015f4 <HAL_RCC_OscConfig+0x28c>)
      tickstart = HAL_GetTick();
 8001514:	4606      	mov	r6, r0
      while(__HAL_RCC_GET_FLAG(RCC_FLAG_LSIRDY) != RESET)
 8001516:	6f6b      	ldr	r3, [r5, #116]	; 0x74
 8001518:	0798      	lsls	r0, r3, #30
 800151a:	f57f af32 	bpl.w	8001382 <HAL_RCC_OscConfig+0x1a>
        if((HAL_GetTick() - tickstart ) > LSI_TIMEOUT_VALUE)
 800151e:	f7ff faab 	bl	8000a78 <HAL_GetTick>
 8001522:	1b80      	subs	r0, r0, r6
 8001524:	2802      	cmp	r0, #2
 8001526:	d9f6      	bls.n	8001516 <HAL_RCC_OscConfig+0x1ae>
 8001528:	e76b      	b.n	8001402 <HAL_RCC_OscConfig+0x9a>
    if(__HAL_RCC_PWR_IS_CLK_DISABLED())
 800152a:	4b32      	ldr	r3, [pc, #200]	; (80015f4 <HAL_RCC_OscConfig+0x28c>)
 800152c:	6c1a      	ldr	r2, [r3, #64]	; 0x40
 800152e:	f012 5280 	ands.w	r2, r2, #268435456	; 0x10000000
 8001532:	d128      	bne.n	8001586 <HAL_RCC_OscConfig+0x21e>
      __HAL_RCC_PWR_CLK_ENABLE();
 8001534:	9201      	str	r2, [sp, #4]
 8001536:	6c1a      	ldr	r2, [r3, #64]	; 0x40
 8001538:	f042 5280 	orr.w	r2, r2, #268435456	; 0x10000000
 800153c:	641a      	str	r2, [r3, #64]	; 0x40
 800153e:	6c1b      	ldr	r3, [r3, #64]	; 0x40
 8001540:	f003 5380 	and.w	r3, r3, #268435456	; 0x10000000
 8001544:	9301      	str	r3, [sp, #4]
 8001546:	9b01      	ldr	r3, [sp, #4]
      pwrclkchanged = SET;
 8001548:	2601      	movs	r6, #1
    if(HAL_IS_BIT_CLR(PWR->CR, PWR_CR_DBP))
 800154a:	4d2d      	ldr	r5, [pc, #180]	; (8001600 <HAL_RCC_OscConfig+0x298>)
 800154c:	682b      	ldr	r3, [r5, #0]
 800154e:	05d9      	lsls	r1, r3, #23
 8001550:	d51b      	bpl.n	800158a <HAL_RCC_OscConfig+0x222>
    __HAL_RCC_LSE_CONFIG(RCC_OscInitStruct->LSEState);
 8001552:	68a3      	ldr	r3, [r4, #8]
 8001554:	4d27      	ldr	r5, [pc, #156]	; (80015f4 <HAL_RCC_OscConfig+0x28c>)
 8001556:	2b01      	cmp	r3, #1
 8001558:	d127      	bne.n	80015aa <HAL_RCC_OscConfig+0x242>
 800155a:	6f2b      	ldr	r3, [r5, #112]	; 0x70
 800155c:	f043 0301 	orr.w	r3, r3, #1
 8001560:	672b      	str	r3, [r5, #112]	; 0x70
      tickstart = HAL_GetTick();
 8001562:	f7ff fa89 	bl	8000a78 <HAL_GetTick>
      while(__HAL_RCC_GET_FLAG(RCC_FLAG_LSERDY) == RESET)
 8001566:	4d23      	ldr	r5, [pc, #140]	; (80015f4 <HAL_RCC_OscConfig+0x28c>)
      tickstart = HAL_GetTick();
 8001568:	4607      	mov	r7, r0
        if((HAL_GetTick() - tickstart ) > RCC_LSE_TIMEOUT_VALUE)
 800156a:	f241 3888 	movw	r8, #5000	; 0x1388
      while(__HAL_RCC_GET_FLAG(RCC_FLAG_LSERDY) == RESET)
 800156e:	6f2b      	ldr	r3, [r5, #112]	; 0x70
 8001570:	079b      	lsls	r3, r3, #30
 8001572:	d539      	bpl.n	80015e8 <HAL_RCC_OscConfig+0x280>
    if(pwrclkchanged == SET)
 8001574:	2e00      	cmp	r6, #0
 8001576:	f43f af08 	beq.w	800138a <HAL_RCC_OscConfig+0x22>
      __HAL_RCC_PWR_CLK_DISABLE();
 800157a:	4a1e      	ldr	r2, [pc, #120]	; (80015f4 <HAL_RCC_OscConfig+0x28c>)
 800157c:	6c13      	ldr	r3, [r2, #64]	; 0x40
 800157e:	f023 5380 	bic.w	r3, r3, #268435456	; 0x10000000
 8001582:	6413      	str	r3, [r2, #64]	; 0x40
 8001584:	e701      	b.n	800138a <HAL_RCC_OscConfig+0x22>
    FlagStatus       pwrclkchanged = RESET;
 8001586:	2600      	movs	r6, #0
 8001588:	e7df      	b.n	800154a <HAL_RCC_OscConfig+0x1e2>
      SET_BIT(PWR->CR, PWR_CR_DBP);
 800158a:	682b      	ldr	r3, [r5, #0]
 800158c:	f443 7380 	orr.w	r3, r3, #256	; 0x100
 8001590:	602b      	str	r3, [r5, #0]
      tickstart = HAL_GetTick();
 8001592:	f7ff fa71 	bl	8000a78 <HAL_GetTick>
 8001596:	4607      	mov	r7, r0
      while(HAL_IS_BIT_CLR(PWR->CR, PWR_CR_DBP))
 8001598:	682b      	ldr	r3, [r5, #0]
 800159a:	05da      	lsls	r2, r3, #23
 800159c:	d4d9      	bmi.n	8001552 <HAL_RCC_OscConfig+0x1ea>
        if((HAL_GetTick() - tickstart) > RCC_DBP_TIMEOUT_VALUE)
 800159e:	f7ff fa6b 	bl	8000a78 <HAL_GetTick>
 80015a2:	1bc0      	subs	r0, r0, r7
 80015a4:	2802      	cmp	r0, #2
 80015a6:	d9f7      	bls.n	8001598 <HAL_RCC_OscConfig+0x230>
 80015a8:	e72b      	b.n	8001402 <HAL_RCC_OscConfig+0x9a>
    __HAL_RCC_LSE_CONFIG(RCC_OscInitStruct->LSEState);
 80015aa:	2b05      	cmp	r3, #5
 80015ac:	d104      	bne.n	80015b8 <HAL_RCC_OscConfig+0x250>
 80015ae:	6f2b      	ldr	r3, [r5, #112]	; 0x70
 80015b0:	f043 0304 	orr.w	r3, r3, #4
 80015b4:	672b      	str	r3, [r5, #112]	; 0x70
 80015b6:	e7d0      	b.n	800155a <HAL_RCC_OscConfig+0x1f2>
 80015b8:	6f2a      	ldr	r2, [r5, #112]	; 0x70
 80015ba:	f022 0201 	bic.w	r2, r2, #1
 80015be:	672a      	str	r2, [r5, #112]	; 0x70
 80015c0:	6f2a      	ldr	r2, [r5, #112]	; 0x70
 80015c2:	f022 0204 	bic.w	r2, r2, #4
 80015c6:	672a      	str	r2, [r5, #112]	; 0x70
    if((RCC_OscInitStruct->LSEState) != RCC_LSE_OFF)
 80015c8:	2b00      	cmp	r3, #0
 80015ca:	d1ca      	bne.n	8001562 <HAL_RCC_OscConfig+0x1fa>
      tickstart = HAL_GetTick();
 80015cc:	f7ff fa54 	bl	8000a78 <HAL_GetTick>
        if((HAL_GetTick() - tickstart ) > RCC_LSE_TIMEOUT_VALUE)
 80015d0:	f241 3888 	movw	r8, #5000	; 0x1388
      tickstart = HAL_GetTick();
 80015d4:	4607      	mov	r7, r0
      while(__HAL_RCC_GET_FLAG(RCC_FLAG_LSERDY) != RESET)
 80015d6:	6f2b      	ldr	r3, [r5, #112]	; 0x70
 80015d8:	0798      	lsls	r0, r3, #30
 80015da:	d5cb      	bpl.n	8001574 <HAL_RCC_OscConfig+0x20c>
        if((HAL_GetTick() - tickstart ) > RCC_LSE_TIMEOUT_VALUE)
 80015dc:	f7ff fa4c 	bl	8000a78 <HAL_GetTick>
 80015e0:	1bc0      	subs	r0, r0, r7
 80015e2:	4540      	cmp	r0, r8
 80015e4:	d9f7      	bls.n	80015d6 <HAL_RCC_OscConfig+0x26e>
 80015e6:	e70c      	b.n	8001402 <HAL_RCC_OscConfig+0x9a>
        if((HAL_GetTick() - tickstart ) > RCC_LSE_TIMEOUT_VALUE)
 80015e8:	f7ff fa46 	bl	8000a78 <HAL_GetTick>
 80015ec:	1bc0      	subs	r0, r0, r7
 80015ee:	4540      	cmp	r0, r8
 80015f0:	d9bd      	bls.n	800156e <HAL_RCC_OscConfig+0x206>
 80015f2:	e706      	b.n	8001402 <HAL_RCC_OscConfig+0x9a>
 80015f4:	40023800 	.word	0x40023800
 80015f8:	42470000 	.word	0x42470000
 80015fc:	42470e80 	.word	0x42470e80
 8001600:	40007000 	.word	0x40007000
    if(__HAL_RCC_GET_SYSCLK_SOURCE() != RCC_CFGR_SWS_PLL)
 8001604:	4d23      	ldr	r5, [pc, #140]	; (8001694 <HAL_RCC_OscConfig+0x32c>)
 8001606:	68ab      	ldr	r3, [r5, #8]
 8001608:	f003 030c 	and.w	r3, r3, #12
 800160c:	2b08      	cmp	r3, #8
 800160e:	f43f aee0 	beq.w	80013d2 <HAL_RCC_OscConfig+0x6a>
 8001612:	4e21      	ldr	r6, [pc, #132]	; (8001698 <HAL_RCC_OscConfig+0x330>)
 8001614:	2300      	movs	r3, #0
      if((RCC_OscInitStruct->PLL.PLLState) == RCC_PLL_ON)
 8001616:	2a02      	cmp	r2, #2
        __HAL_RCC_PLL_DISABLE();
 8001618:	6033      	str	r3, [r6, #0]
      if((RCC_OscInitStruct->PLL.PLLState) == RCC_PLL_ON)
 800161a:	d12d      	bne.n	8001678 <HAL_RCC_OscConfig+0x310>
        tickstart = HAL_GetTick();
 800161c:	f7ff fa2c 	bl	8000a78 <HAL_GetTick>
 8001620:	4607      	mov	r7, r0
        while(__HAL_RCC_GET_FLAG(RCC_FLAG_PLLRDY) != RESET)
 8001622:	682b      	ldr	r3, [r5, #0]
 8001624:	0199      	lsls	r1, r3, #6
 8001626:	d421      	bmi.n	800166c <HAL_RCC_OscConfig+0x304>
        __HAL_RCC_PLL_CONFIG(RCC_OscInitStruct->PLL.PLLSource,
 8001628:	e9d4 3207 	ldrd	r3, r2, [r4, #28]
 800162c:	4313      	orrs	r3, r2
 800162e:	6a62      	ldr	r2, [r4, #36]	; 0x24
 8001630:	ea43 1382 	orr.w	r3, r3, r2, lsl #6
 8001634:	6ae2      	ldr	r2, [r4, #44]	; 0x2c
 8001636:	ea43 6302 	orr.w	r3, r3, r2, lsl #24
 800163a:	6b22      	ldr	r2, [r4, #48]	; 0x30
 800163c:	ea43 7302 	orr.w	r3, r3, r2, lsl #28
 8001640:	6aa2      	ldr	r2, [r4, #40]	; 0x28
        while(__HAL_RCC_GET_FLAG(RCC_FLAG_PLLRDY) == RESET)
 8001642:	4c14      	ldr	r4, [pc, #80]	; (8001694 <HAL_RCC_OscConfig+0x32c>)
        __HAL_RCC_PLL_CONFIG(RCC_OscInitStruct->PLL.PLLSource,
 8001644:	0852      	lsrs	r2, r2, #1
 8001646:	3a01      	subs	r2, #1
 8001648:	ea43 4302 	orr.w	r3, r3, r2, lsl #16
 800164c:	606b      	str	r3, [r5, #4]
        __HAL_RCC_PLL_ENABLE();
 800164e:	2301      	movs	r3, #1
 8001650:	6033      	str	r3, [r6, #0]
        tickstart = HAL_GetTick();
 8001652:	f7ff fa11 	bl	8000a78 <HAL_GetTick>
 8001656:	4605      	mov	r5, r0
        while(__HAL_RCC_GET_FLAG(RCC_FLAG_PLLRDY) == RESET)
 8001658:	6823      	ldr	r3, [r4, #0]
 800165a:	019a      	lsls	r2, r3, #6
 800165c:	f53f ae99 	bmi.w	8001392 <HAL_RCC_OscConfig+0x2a>
          if((HAL_GetTick() - tickstart ) > PLL_TIMEOUT_VALUE)
 8001660:	f7ff fa0a 	bl	8000a78 <HAL_GetTick>
 8001664:	1b40      	subs	r0, r0, r5
 8001666:	2802      	cmp	r0, #2
 8001668:	d9f6      	bls.n	8001658 <HAL_RCC_OscConfig+0x2f0>
 800166a:	e6ca      	b.n	8001402 <HAL_RCC_OscConfig+0x9a>
          if((HAL_GetTick() - tickstart ) > PLL_TIMEOUT_VALUE)
 800166c:	f7ff fa04 	bl	8000a78 <HAL_GetTick>
 8001670:	1bc0      	subs	r0, r0, r7
 8001672:	2802      	cmp	r0, #2
 8001674:	d9d5      	bls.n	8001622 <HAL_RCC_OscConfig+0x2ba>
 8001676:	e6c4      	b.n	8001402 <HAL_RCC_OscConfig+0x9a>
        tickstart = HAL_GetTick();
 8001678:	f7ff f9fe 	bl	8000a78 <HAL_GetTick>
 800167c:	4604      	mov	r4, r0
        while(__HAL_RCC_GET_FLAG(RCC_FLAG_PLLRDY) != RESET)
 800167e:	682b      	ldr	r3, [r5, #0]
 8001680:	019b      	lsls	r3, r3, #6
 8001682:	f57f ae86 	bpl.w	8001392 <HAL_RCC_OscConfig+0x2a>
          if((HAL_GetTick() - tickstart ) > PLL_TIMEOUT_VALUE)
 8001686:	f7ff f9f7 	bl	8000a78 <HAL_GetTick>
 800168a:	1b00      	subs	r0, r0, r4
 800168c:	2802      	cmp	r0, #2
 800168e:	d9f6      	bls.n	800167e <HAL_RCC_OscConfig+0x316>
 8001690:	e6b7      	b.n	8001402 <HAL_RCC_OscConfig+0x9a>
 8001692:	bf00      	nop
 8001694:	40023800 	.word	0x40023800
 8001698:	42470060 	.word	0x42470060

0800169c <TIM_OC1_SetConfig>:
  uint32_t tmpccmrx;
  uint32_t tmpccer;
  uint32_t tmpcr2;

  /* Disable the Channel 1: Reset the CC1E Bit */
  TIMx->CCER &= ~TIM_CCER_CC1E;
 800169c:	6a03      	ldr	r3, [r0, #32]
 800169e:	f023 0301 	bic.w	r3, r3, #1
 80016a2:	6203      	str	r3, [r0, #32]

  /* Get the TIMx CCER register value */
  tmpccer = TIMx->CCER;
 80016a4:	6a03      	ldr	r3, [r0, #32]
{
 80016a6:	b570      	push	{r4, r5, r6, lr}
  /* Get the TIMx CR2 register value */
  tmpcr2 =  TIMx->CR2;
 80016a8:	6844      	ldr	r4, [r0, #4]

  /* Get the TIMx CCMR1 register value */
  tmpccmrx = TIMx->CCMR1;
 80016aa:	6982      	ldr	r2, [r0, #24]

  /* Reset the Output Compare Mode Bits */
  tmpccmrx &= ~TIM_CCMR1_OC1M;
  tmpccmrx &= ~TIM_CCMR1_CC1S;
  /* Select the Output Compare Mode */
  tmpccmrx |= OC_Config->OCMode;
 80016ac:	680d      	ldr	r5, [r1, #0]
  tmpccmrx &= ~TIM_CCMR1_CC1S;
 80016ae:	f022 0273 	bic.w	r2, r2, #115	; 0x73
  tmpccmrx |= OC_Config->OCMode;
 80016b2:	432a      	orrs	r2, r5

  /* Reset the Output Polarity level */
  tmpccer &= ~TIM_CCER_CC1P;
  /* Set the Output Compare Polarity */
  tmpccer |= OC_Config->OCPolarity;
 80016b4:	688d      	ldr	r5, [r1, #8]
  tmpccer &= ~TIM_CCER_CC1P;
 80016b6:	f023 0302 	bic.w	r3, r3, #2
  tmpccer |= OC_Config->OCPolarity;
 80016ba:	432b      	orrs	r3, r5

  if (IS_TIM_CCXN_INSTANCE(TIMx, TIM_CHANNEL_1))
 80016bc:	4d0e      	ldr	r5, [pc, #56]	; (80016f8 <TIM_OC1_SetConfig+0x5c>)
 80016be:	42a8      	cmp	r0, r5
 80016c0:	d002      	beq.n	80016c8 <TIM_OC1_SetConfig+0x2c>
 80016c2:	4e0e      	ldr	r6, [pc, #56]	; (80016fc <TIM_OC1_SetConfig+0x60>)
 80016c4:	42b0      	cmp	r0, r6
 80016c6:	d110      	bne.n	80016ea <TIM_OC1_SetConfig+0x4e>
    assert_param(IS_TIM_OCN_POLARITY(OC_Config->OCNPolarity));

    /* Reset the Output N Polarity level */
    tmpccer &= ~TIM_CCER_CC1NP;
    /* Set the Output N Polarity */
    tmpccer |= OC_Config->OCNPolarity;
 80016c8:	68ce      	ldr	r6, [r1, #12]
    tmpccer &= ~TIM_CCER_CC1NP;
 80016ca:	f023 0308 	bic.w	r3, r3, #8
    tmpccer |= OC_Config->OCNPolarity;
 80016ce:	4333      	orrs	r3, r6
    /* Reset the Output N State */
    tmpccer &= ~TIM_CCER_CC1NE;
  }

  if (IS_TIM_BREAK_INSTANCE(TIMx))
 80016d0:	42a8      	cmp	r0, r5
    tmpccer &= ~TIM_CCER_CC1NE;
 80016d2:	f023 0304 	bic.w	r3, r3, #4
  if (IS_TIM_BREAK_INSTANCE(TIMx))
 80016d6:	d002      	beq.n	80016de <TIM_OC1_SetConfig+0x42>
 80016d8:	4d08      	ldr	r5, [pc, #32]	; (80016fc <TIM_OC1_SetConfig+0x60>)
 80016da:	42a8      	cmp	r0, r5
 80016dc:	d105      	bne.n	80016ea <TIM_OC1_SetConfig+0x4e>
    tmpcr2 &= ~TIM_CR2_OIS1;
    tmpcr2 &= ~TIM_CR2_OIS1N;
    /* Set the Output Idle state */
    tmpcr2 |= OC_Config->OCIdleState;
    /* Set the Output N Idle state */
    tmpcr2 |= OC_Config->OCNIdleState;
 80016de:	e9d1 5605 	ldrd	r5, r6, [r1, #20]
    tmpcr2 &= ~TIM_CR2_OIS1N;
 80016e2:	f424 7440 	bic.w	r4, r4, #768	; 0x300
    tmpcr2 |= OC_Config->OCNIdleState;
 80016e6:	4335      	orrs	r5, r6
 80016e8:	432c      	orrs	r4, r5
  }

  /* Write to TIMx CR2 */
  TIMx->CR2 = tmpcr2;
 80016ea:	6044      	str	r4, [r0, #4]

  /* Write to TIMx CCMR1 */
  TIMx->CCMR1 = tmpccmrx;
 80016ec:	6182      	str	r2, [r0, #24]

  /* Set the Capture Compare Register value */
  TIMx->CCR1 = OC_Config->Pulse;
 80016ee:	684a      	ldr	r2, [r1, #4]
 80016f0:	6342      	str	r2, [r0, #52]	; 0x34

  /* Write to TIMx CCER */
  TIMx->CCER = tmpccer;
 80016f2:	6203      	str	r3, [r0, #32]
}
 80016f4:	bd70      	pop	{r4, r5, r6, pc}
 80016f6:	bf00      	nop
 80016f8:	40010000 	.word	0x40010000
 80016fc:	40010400 	.word	0x40010400

08001700 <TIM_OC3_SetConfig>:
  uint32_t tmpccmrx;
  uint32_t tmpccer;
  uint32_t tmpcr2;

  /* Disable the Channel 3: Reset the CC2E Bit */
  TIMx->CCER &= ~TIM_CCER_CC3E;
 8001700:	6a03      	ldr	r3, [r0, #32]
 8001702:	f423 7380 	bic.w	r3, r3, #256	; 0x100
 8001706:	6203      	str	r3, [r0, #32]

  /* Get the TIMx CCER register value */
  tmpccer = TIMx->CCER;
 8001708:	6a03      	ldr	r3, [r0, #32]
{
 800170a:	b570      	push	{r4, r5, r6, lr}
  /* Get the TIMx CR2 register value */
  tmpcr2 =  TIMx->CR2;
 800170c:	6844      	ldr	r4, [r0, #4]

  /* Get the TIMx CCMR2 register value */
  tmpccmrx = TIMx->CCMR2;
 800170e:	69c2      	ldr	r2, [r0, #28]

  /* Reset the Output Compare mode and Capture/Compare selection Bits */
  tmpccmrx &= ~TIM_CCMR2_OC3M;
  tmpccmrx &= ~TIM_CCMR2_CC3S;
  /* Select the Output Compare Mode */
  tmpccmrx |= OC_Config->OCMode;
 8001710:	680d      	ldr	r5, [r1, #0]
  tmpccmrx &= ~TIM_CCMR2_CC3S;
 8001712:	f022 0273 	bic.w	r2, r2, #115	; 0x73
  tmpccmrx |= OC_Config->OCMode;
 8001716:	432a      	orrs	r2, r5

  /* Reset the Output Polarity level */
  tmpccer &= ~TIM_CCER_CC3P;
  /* Set the Output Compare Polarity */
  tmpccer |= (OC_Config->OCPolarity << 8U);
 8001718:	688d      	ldr	r5, [r1, #8]
  tmpccer &= ~TIM_CCER_CC3P;
 800171a:	f423 7300 	bic.w	r3, r3, #512	; 0x200
  tmpccer |= (OC_Config->OCPolarity << 8U);
 800171e:	ea43 2305 	orr.w	r3, r3, r5, lsl #8

  if (IS_TIM_CCXN_INSTANCE(TIMx, TIM_CHANNEL_3))
 8001722:	4d11      	ldr	r5, [pc, #68]	; (8001768 <TIM_OC3_SetConfig+0x68>)
 8001724:	42a8      	cmp	r0, r5
 8001726:	d003      	beq.n	8001730 <TIM_OC3_SetConfig+0x30>
 8001728:	f505 6580 	add.w	r5, r5, #1024	; 0x400
 800172c:	42a8      	cmp	r0, r5
 800172e:	d114      	bne.n	800175a <TIM_OC3_SetConfig+0x5a>
    assert_param(IS_TIM_OCN_POLARITY(OC_Config->OCNPolarity));

    /* Reset the Output N Polarity level */
    tmpccer &= ~TIM_CCER_CC3NP;
    /* Set the Output N Polarity */
    tmpccer |= (OC_Config->OCNPolarity << 8U);
 8001730:	68cd      	ldr	r5, [r1, #12]
    tmpccer &= ~TIM_CCER_CC3NP;
 8001732:	f423 6300 	bic.w	r3, r3, #2048	; 0x800
    tmpccer |= (OC_Config->OCNPolarity << 8U);
 8001736:	ea43 2305 	orr.w	r3, r3, r5, lsl #8
    /* Reset the Output N State */
    tmpccer &= ~TIM_CCER_CC3NE;
  }

  if (IS_TIM_BREAK_INSTANCE(TIMx))
 800173a:	4d0b      	ldr	r5, [pc, #44]	; (8001768 <TIM_OC3_SetConfig+0x68>)
 800173c:	42a8      	cmp	r0, r5
    tmpccer &= ~TIM_CCER_CC3NE;
 800173e:	f423 6380 	bic.w	r3, r3, #1024	; 0x400
  if (IS_TIM_BREAK_INSTANCE(TIMx))
 8001742:	d003      	beq.n	800174c <TIM_OC3_SetConfig+0x4c>
 8001744:	f505 6580 	add.w	r5, r5, #1024	; 0x400
 8001748:	42a8      	cmp	r0, r5
 800174a:	d106      	bne.n	800175a <TIM_OC3_SetConfig+0x5a>
    tmpcr2 &= ~TIM_CR2_OIS3;
    tmpcr2 &= ~TIM_CR2_OIS3N;
    /* Set the Output Idle state */
    tmpcr2 |= (OC_Config->OCIdleState << 4U);
    /* Set the Output N Idle state */
    tmpcr2 |= (OC_Config->OCNIdleState << 4U);
 800174c:	e9d1 5605 	ldrd	r5, r6, [r1, #20]
    tmpcr2 &= ~TIM_CR2_OIS3N;
 8001750:	f424 5440 	bic.w	r4, r4, #12288	; 0x3000
    tmpcr2 |= (OC_Config->OCNIdleState << 4U);
 8001754:	4335      	orrs	r5, r6
 8001756:	ea44 1405 	orr.w	r4, r4, r5, lsl #4
  }

  /* Write to TIMx CR2 */
  TIMx->CR2 = tmpcr2;
 800175a:	6044      	str	r4, [r0, #4]

  /* Write to TIMx CCMR2 */
  TIMx->CCMR2 = tmpccmrx;
 800175c:	61c2      	str	r2, [r0, #28]

  /* Set the Capture Compare Register value */
  TIMx->CCR3 = OC_Config->Pulse;
 800175e:	684a      	ldr	r2, [r1, #4]
 8001760:	63c2      	str	r2, [r0, #60]	; 0x3c

  /* Write to TIMx CCER */
  TIMx->CCER = tmpccer;
 8001762:	6203      	str	r3, [r0, #32]
}
 8001764:	bd70      	pop	{r4, r5, r6, pc}
 8001766:	bf00      	nop
 8001768:	40010000 	.word	0x40010000

0800176c <TIM_OC4_SetConfig>:
  uint32_t tmpccmrx;
  uint32_t tmpccer;
  uint32_t tmpcr2;

  /* Disable the Channel 4: Reset the CC4E Bit */
  TIMx->CCER &= ~TIM_CCER_CC4E;
 800176c:	6a03      	ldr	r3, [r0, #32]
 800176e:	f423 5380 	bic.w	r3, r3, #4096	; 0x1000
 8001772:	6203      	str	r3, [r0, #32]

  /* Get the TIMx CCER register value */
  tmpccer = TIMx->CCER;
 8001774:	6a03      	ldr	r3, [r0, #32]
{
 8001776:	b530      	push	{r4, r5, lr}
  /* Get the TIMx CR2 register value */
  tmpcr2 =  TIMx->CR2;
 8001778:	6844      	ldr	r4, [r0, #4]

  /* Get the TIMx CCMR2 register value */
  tmpccmrx = TIMx->CCMR2;
 800177a:	69c2      	ldr	r2, [r0, #28]
  /* Reset the Output Compare mode and Capture/Compare selection Bits */
  tmpccmrx &= ~TIM_CCMR2_OC4M;
  tmpccmrx &= ~TIM_CCMR2_CC4S;

  /* Select the Output Compare Mode */
  tmpccmrx |= (OC_Config->OCMode << 8U);
 800177c:	680d      	ldr	r5, [r1, #0]
  tmpccmrx &= ~TIM_CCMR2_CC4S;
 800177e:	f422 42e6 	bic.w	r2, r2, #29440	; 0x7300
  tmpccmrx |= (OC_Config->OCMode << 8U);
 8001782:	ea42 2205 	orr.w	r2, r2, r5, lsl #8

  /* Reset the Output Polarity level */
  tmpccer &= ~TIM_CCER_CC4P;
  /* Set the Output Compare Polarity */
  tmpccer |= (OC_Config->OCPolarity << 12U);
 8001786:	688d      	ldr	r5, [r1, #8]
  tmpccer &= ~TIM_CCER_CC4P;
 8001788:	f423 5300 	bic.w	r3, r3, #8192	; 0x2000
  tmpccer |= (OC_Config->OCPolarity << 12U);
 800178c:	ea43 3305 	orr.w	r3, r3, r5, lsl #12

  if (IS_TIM_BREAK_INSTANCE(TIMx))
 8001790:	4d08      	ldr	r5, [pc, #32]	; (80017b4 <TIM_OC4_SetConfig+0x48>)
 8001792:	42a8      	cmp	r0, r5
 8001794:	d003      	beq.n	800179e <TIM_OC4_SetConfig+0x32>
 8001796:	f505 6580 	add.w	r5, r5, #1024	; 0x400
 800179a:	42a8      	cmp	r0, r5
 800179c:	d104      	bne.n	80017a8 <TIM_OC4_SetConfig+0x3c>

    /* Reset the Output Compare IDLE State */
    tmpcr2 &= ~TIM_CR2_OIS4;

    /* Set the Output Idle state */
    tmpcr2 |= (OC_Config->OCIdleState << 6U);
 800179e:	694d      	ldr	r5, [r1, #20]
    tmpcr2 &= ~TIM_CR2_OIS4;
 80017a0:	f424 4480 	bic.w	r4, r4, #16384	; 0x4000
    tmpcr2 |= (OC_Config->OCIdleState << 6U);
 80017a4:	ea44 1485 	orr.w	r4, r4, r5, lsl #6
  }

  /* Write to TIMx CR2 */
  TIMx->CR2 = tmpcr2;
 80017a8:	6044      	str	r4, [r0, #4]

  /* Write to TIMx CCMR2 */
  TIMx->CCMR2 = tmpccmrx;
 80017aa:	61c2      	str	r2, [r0, #28]

  /* Set the Capture Compare Register value */
  TIMx->CCR4 = OC_Config->Pulse;
 80017ac:	684a      	ldr	r2, [r1, #4]
 80017ae:	6402      	str	r2, [r0, #64]	; 0x40

  /* Write to TIMx CCER */
  TIMx->CCER = tmpccer;
 80017b0:	6203      	str	r3, [r0, #32]
}
 80017b2:	bd30      	pop	{r4, r5, pc}
 80017b4:	40010000 	.word	0x40010000

080017b8 <HAL_TIM_Base_Start>:
  htim->State = HAL_TIM_STATE_BUSY;
 80017b8:	2302      	movs	r3, #2
 80017ba:	f880 303d 	strb.w	r3, [r0, #61]	; 0x3d
  tmpsmcr = htim->Instance->SMCR & TIM_SMCR_SMS;
 80017be:	6803      	ldr	r3, [r0, #0]
 80017c0:	689a      	ldr	r2, [r3, #8]
 80017c2:	f002 0207 	and.w	r2, r2, #7
  if (!IS_TIM_SLAVEMODE_TRIGGER_ENABLED(tmpsmcr))
 80017c6:	2a06      	cmp	r2, #6
    __HAL_TIM_ENABLE(htim);
 80017c8:	bf1e      	ittt	ne
 80017ca:	681a      	ldrne	r2, [r3, #0]
 80017cc:	f042 0201 	orrne.w	r2, r2, #1
 80017d0:	601a      	strne	r2, [r3, #0]
  htim->State = HAL_TIM_STATE_READY;
 80017d2:	2301      	movs	r3, #1
 80017d4:	f880 303d 	strb.w	r3, [r0, #61]	; 0x3d
}
 80017d8:	2000      	movs	r0, #0
 80017da:	4770      	bx	lr

080017dc <HAL_TIM_OC_MspInit>:
 80017dc:	4770      	bx	lr
	...

080017e0 <TIM_Base_SetConfig>:
  if (IS_TIM_COUNTER_MODE_SELECT_INSTANCE(TIMx))
 80017e0:	4a30      	ldr	r2, [pc, #192]	; (80018a4 <TIM_Base_SetConfig+0xc4>)
  tmpcr1 = TIMx->CR1;
 80017e2:	6803      	ldr	r3, [r0, #0]
  if (IS_TIM_COUNTER_MODE_SELECT_INSTANCE(TIMx))
 80017e4:	4290      	cmp	r0, r2
 80017e6:	d012      	beq.n	800180e <TIM_Base_SetConfig+0x2e>
 80017e8:	f1b0 4f80 	cmp.w	r0, #1073741824	; 0x40000000
 80017ec:	d00f      	beq.n	800180e <TIM_Base_SetConfig+0x2e>
 80017ee:	f5a2 427c 	sub.w	r2, r2, #64512	; 0xfc00
 80017f2:	4290      	cmp	r0, r2
 80017f4:	d00b      	beq.n	800180e <TIM_Base_SetConfig+0x2e>
 80017f6:	f502 6280 	add.w	r2, r2, #1024	; 0x400
 80017fa:	4290      	cmp	r0, r2
 80017fc:	d007      	beq.n	800180e <TIM_Base_SetConfig+0x2e>
 80017fe:	f502 6280 	add.w	r2, r2, #1024	; 0x400
 8001802:	4290      	cmp	r0, r2
 8001804:	d003      	beq.n	800180e <TIM_Base_SetConfig+0x2e>
 8001806:	f502 4278 	add.w	r2, r2, #63488	; 0xf800
 800180a:	4290      	cmp	r0, r2
 800180c:	d119      	bne.n	8001842 <TIM_Base_SetConfig+0x62>
    tmpcr1 |= Structure->CounterMode;
 800180e:	684a      	ldr	r2, [r1, #4]
    tmpcr1 &= ~(TIM_CR1_DIR | TIM_CR1_CMS);
 8001810:	f023 0370 	bic.w	r3, r3, #112	; 0x70
    tmpcr1 |= Structure->CounterMode;
 8001814:	4313      	orrs	r3, r2
  if (IS_TIM_CLOCK_DIVISION_INSTANCE(TIMx))
 8001816:	4a23      	ldr	r2, [pc, #140]	; (80018a4 <TIM_Base_SetConfig+0xc4>)
 8001818:	4290      	cmp	r0, r2
 800181a:	d029      	beq.n	8001870 <TIM_Base_SetConfig+0x90>
 800181c:	f1b0 4f80 	cmp.w	r0, #1073741824	; 0x40000000
 8001820:	d026      	beq.n	8001870 <TIM_Base_SetConfig+0x90>
 8001822:	f5a2 427c 	sub.w	r2, r2, #64512	; 0xfc00
 8001826:	4290      	cmp	r0, r2
 8001828:	d022      	beq.n	8001870 <TIM_Base_SetConfig+0x90>
 800182a:	f502 6280 	add.w	r2, r2, #1024	; 0x400
 800182e:	4290      	cmp	r0, r2
 8001830:	d01e      	beq.n	8001870 <TIM_Base_SetConfig+0x90>
 8001832:	f502 6280 	add.w	r2, r2, #1024	; 0x400
 8001836:	4290      	cmp	r0, r2
 8001838:	d01a      	beq.n	8001870 <TIM_Base_SetConfig+0x90>
 800183a:	f502 4278 	add.w	r2, r2, #63488	; 0xf800
 800183e:	4290      	cmp	r0, r2
 8001840:	d016      	beq.n	8001870 <TIM_Base_SetConfig+0x90>
 8001842:	4a19      	ldr	r2, [pc, #100]	; (80018a8 <TIM_Base_SetConfig+0xc8>)
 8001844:	4290      	cmp	r0, r2
 8001846:	d013      	beq.n	8001870 <TIM_Base_SetConfig+0x90>
 8001848:	f502 6280 	add.w	r2, r2, #1024	; 0x400
 800184c:	4290      	cmp	r0, r2
 800184e:	d00f      	beq.n	8001870 <TIM_Base_SetConfig+0x90>
 8001850:	f502 6280 	add.w	r2, r2, #1024	; 0x400
 8001854:	4290      	cmp	r0, r2
 8001856:	d00b      	beq.n	8001870 <TIM_Base_SetConfig+0x90>
 8001858:	f5a2 3298 	sub.w	r2, r2, #77824	; 0x13000
 800185c:	4290      	cmp	r0, r2
 800185e:	d007      	beq.n	8001870 <TIM_Base_SetConfig+0x90>
 8001860:	f502 6280 	add.w	r2, r2, #1024	; 0x400
 8001864:	4290      	cmp	r0, r2
 8001866:	d003      	beq.n	8001870 <TIM_Base_SetConfig+0x90>
 8001868:	f502 6280 	add.w	r2, r2, #1024	; 0x400
 800186c:	4290      	cmp	r0, r2
 800186e:	d103      	bne.n	8001878 <TIM_Base_SetConfig+0x98>
    tmpcr1 |= (uint32_t)Structure->ClockDivision;
 8001870:	68ca      	ldr	r2, [r1, #12]
    tmpcr1 &= ~TIM_CR1_CKD;
 8001872:	f423 7340 	bic.w	r3, r3, #768	; 0x300
    tmpcr1 |= (uint32_t)Structure->ClockDivision;
 8001876:	4313      	orrs	r3, r2
  MODIFY_REG(tmpcr1, TIM_CR1_ARPE, Structure->AutoReloadPreload);
 8001878:	694a      	ldr	r2, [r1, #20]
 800187a:	f023 0380 	bic.w	r3, r3, #128	; 0x80
 800187e:	4313      	orrs	r3, r2
  TIMx->CR1 = tmpcr1;
 8001880:	6003      	str	r3, [r0, #0]
  TIMx->ARR = (uint32_t)Structure->Period ;
 8001882:	688b      	ldr	r3, [r1, #8]
 8001884:	62c3      	str	r3, [r0, #44]	; 0x2c
  TIMx->PSC = Structure->Prescaler;
 8001886:	680b      	ldr	r3, [r1, #0]
 8001888:	6283      	str	r3, [r0, #40]	; 0x28
  if (IS_TIM_REPETITION_COUNTER_INSTANCE(TIMx))
 800188a:	4b06      	ldr	r3, [pc, #24]	; (80018a4 <TIM_Base_SetConfig+0xc4>)
 800188c:	4298      	cmp	r0, r3
 800188e:	d003      	beq.n	8001898 <TIM_Base_SetConfig+0xb8>
 8001890:	f503 6380 	add.w	r3, r3, #1024	; 0x400
 8001894:	4298      	cmp	r0, r3
 8001896:	d101      	bne.n	800189c <TIM_Base_SetConfig+0xbc>
    TIMx->RCR = Structure->RepetitionCounter;
 8001898:	690b      	ldr	r3, [r1, #16]
 800189a:	6303      	str	r3, [r0, #48]	; 0x30
  TIMx->EGR = TIM_EGR_UG;
 800189c:	2301      	movs	r3, #1
 800189e:	6143      	str	r3, [r0, #20]
}
 80018a0:	4770      	bx	lr
 80018a2:	bf00      	nop
 80018a4:	40010000 	.word	0x40010000
 80018a8:	40014000 	.word	0x40014000

080018ac <HAL_TIM_Base_Init>:
{
 80018ac:	b510      	push	{r4, lr}
  if (htim == NULL)
 80018ae:	4604      	mov	r4, r0
 80018b0:	b1a0      	cbz	r0, 80018dc <HAL_TIM_Base_Init+0x30>
  if (htim->State == HAL_TIM_STATE_RESET)
 80018b2:	f890 303d 	ldrb.w	r3, [r0, #61]	; 0x3d
 80018b6:	f003 02ff 	and.w	r2, r3, #255	; 0xff
 80018ba:	b91b      	cbnz	r3, 80018c4 <HAL_TIM_Base_Init+0x18>
    htim->Lock = HAL_UNLOCKED;
 80018bc:	f880 203c 	strb.w	r2, [r0, #60]	; 0x3c
    HAL_TIM_Base_MspInit(htim);
 80018c0:	f000 fd00 	bl	80022c4 <HAL_TIM_Base_MspInit>
  htim->State = HAL_TIM_STATE_BUSY;
 80018c4:	2302      	movs	r3, #2
 80018c6:	f884 303d 	strb.w	r3, [r4, #61]	; 0x3d
  TIM_Base_SetConfig(htim->Instance, &htim->Init);
 80018ca:	6820      	ldr	r0, [r4, #0]
 80018cc:	1d21      	adds	r1, r4, #4
 80018ce:	f7ff ff87 	bl	80017e0 <TIM_Base_SetConfig>
  htim->State = HAL_TIM_STATE_READY;
 80018d2:	2301      	movs	r3, #1
 80018d4:	f884 303d 	strb.w	r3, [r4, #61]	; 0x3d
  return HAL_OK;
 80018d8:	2000      	movs	r0, #0
}
 80018da:	bd10      	pop	{r4, pc}
    return HAL_ERROR;
 80018dc:	2001      	movs	r0, #1
 80018de:	e7fc      	b.n	80018da <HAL_TIM_Base_Init+0x2e>

080018e0 <HAL_TIM_OC_Init>:
{
 80018e0:	b510      	push	{r4, lr}
  if (htim == NULL)
 80018e2:	4604      	mov	r4, r0
 80018e4:	b1a0      	cbz	r0, 8001910 <HAL_TIM_OC_Init+0x30>
  if (htim->State == HAL_TIM_STATE_RESET)
 80018e6:	f890 303d 	ldrb.w	r3, [r0, #61]	; 0x3d
 80018ea:	f003 02ff 	and.w	r2, r3, #255	; 0xff
 80018ee:	b91b      	cbnz	r3, 80018f8 <HAL_TIM_OC_Init+0x18>
    htim->Lock = HAL_UNLOCKED;
 80018f0:	f880 203c 	strb.w	r2, [r0, #60]	; 0x3c
    HAL_TIM_OC_MspInit(htim);
 80018f4:	f7ff ff72 	bl	80017dc <HAL_TIM_OC_MspInit>
  htim->State = HAL_TIM_STATE_BUSY;
 80018f8:	2302      	movs	r3, #2
 80018fa:	f884 303d 	strb.w	r3, [r4, #61]	; 0x3d
  TIM_Base_SetConfig(htim->Instance,  &htim->Init);
 80018fe:	6820      	ldr	r0, [r4, #0]
 8001900:	1d21      	adds	r1, r4, #4
 8001902:	f7ff ff6d 	bl	80017e0 <TIM_Base_SetConfig>
  htim->State = HAL_TIM_STATE_READY;
 8001906:	2301      	movs	r3, #1
 8001908:	f884 303d 	strb.w	r3, [r4, #61]	; 0x3d
  return HAL_OK;
 800190c:	2000      	movs	r0, #0
}
 800190e:	bd10      	pop	{r4, pc}
    return HAL_ERROR;
 8001910:	2001      	movs	r0, #1
 8001912:	e7fc      	b.n	800190e <HAL_TIM_OC_Init+0x2e>

08001914 <TIM_OC2_SetConfig>:
  TIMx->CCER &= ~TIM_CCER_CC2E;
 8001914:	6a03      	ldr	r3, [r0, #32]
 8001916:	f023 0310 	bic.w	r3, r3, #16
 800191a:	6203      	str	r3, [r0, #32]
  tmpccer = TIMx->CCER;
 800191c:	6a03      	ldr	r3, [r0, #32]
{
 800191e:	b570      	push	{r4, r5, r6, lr}
  tmpcr2 =  TIMx->CR2;
 8001920:	6844      	ldr	r4, [r0, #4]
  tmpccmrx = TIMx->CCMR1;
 8001922:	6982      	ldr	r2, [r0, #24]
  tmpccmrx |= (OC_Config->OCMode << 8U);
 8001924:	680d      	ldr	r5, [r1, #0]
  tmpccmrx &= ~TIM_CCMR1_CC2S;
 8001926:	f422 42e6 	bic.w	r2, r2, #29440	; 0x7300
  tmpccmrx |= (OC_Config->OCMode << 8U);
 800192a:	ea42 2205 	orr.w	r2, r2, r5, lsl #8
  tmpccer |= (OC_Config->OCPolarity << 4U);
 800192e:	688d      	ldr	r5, [r1, #8]
  tmpccer &= ~TIM_CCER_CC2P;
 8001930:	f023 0320 	bic.w	r3, r3, #32
  tmpccer |= (OC_Config->OCPolarity << 4U);
 8001934:	ea43 1305 	orr.w	r3, r3, r5, lsl #4
  if (IS_TIM_CCXN_INSTANCE(TIMx, TIM_CHANNEL_2))
 8001938:	4d10      	ldr	r5, [pc, #64]	; (800197c <TIM_OC2_SetConfig+0x68>)
 800193a:	42a8      	cmp	r0, r5
 800193c:	d003      	beq.n	8001946 <TIM_OC2_SetConfig+0x32>
 800193e:	f505 6580 	add.w	r5, r5, #1024	; 0x400
 8001942:	42a8      	cmp	r0, r5
 8001944:	d114      	bne.n	8001970 <TIM_OC2_SetConfig+0x5c>
    tmpccer |= (OC_Config->OCNPolarity << 4U);
 8001946:	68cd      	ldr	r5, [r1, #12]
    tmpccer &= ~TIM_CCER_CC2NP;
 8001948:	f023 0380 	bic.w	r3, r3, #128	; 0x80
    tmpccer |= (OC_Config->OCNPolarity << 4U);
 800194c:	ea43 1305 	orr.w	r3, r3, r5, lsl #4
  if (IS_TIM_BREAK_INSTANCE(TIMx))
 8001950:	4d0a      	ldr	r5, [pc, #40]	; (800197c <TIM_OC2_SetConfig+0x68>)
 8001952:	42a8      	cmp	r0, r5
    tmpccer &= ~TIM_CCER_CC2NE;
 8001954:	f023 0340 	bic.w	r3, r3, #64	; 0x40
  if (IS_TIM_BREAK_INSTANCE(TIMx))
 8001958:	d003      	beq.n	8001962 <TIM_OC2_SetConfig+0x4e>
 800195a:	f505 6580 	add.w	r5, r5, #1024	; 0x400
 800195e:	42a8      	cmp	r0, r5
 8001960:	d106      	bne.n	8001970 <TIM_OC2_SetConfig+0x5c>
    tmpcr2 |= (OC_Config->OCNIdleState << 2U);
 8001962:	e9d1 5605 	ldrd	r5, r6, [r1, #20]
    tmpcr2 &= ~TIM_CR2_OIS2N;
 8001966:	f424 6440 	bic.w	r4, r4, #3072	; 0xc00
    tmpcr2 |= (OC_Config->OCNIdleState << 2U);
 800196a:	4335      	orrs	r5, r6
 800196c:	ea44 0485 	orr.w	r4, r4, r5, lsl #2
  TIMx->CR2 = tmpcr2;
 8001970:	6044      	str	r4, [r0, #4]
  TIMx->CCMR1 = tmpccmrx;
 8001972:	6182      	str	r2, [r0, #24]
  TIMx->CCR2 = OC_Config->Pulse;
 8001974:	684a      	ldr	r2, [r1, #4]
 8001976:	6382      	str	r2, [r0, #56]	; 0x38
  TIMx->CCER = tmpccer;
 8001978:	6203      	str	r3, [r0, #32]
}
 800197a:	bd70      	pop	{r4, r5, r6, pc}
 800197c:	40010000 	.word	0x40010000

08001980 <HAL_TIM_OC_ConfigChannel>:
{
 8001980:	b538      	push	{r3, r4, r5, lr}
  __HAL_LOCK(htim);
 8001982:	f890 303c 	ldrb.w	r3, [r0, #60]	; 0x3c
 8001986:	2b01      	cmp	r3, #1
{
 8001988:	4604      	mov	r4, r0
 800198a:	f04f 0002 	mov.w	r0, #2
  __HAL_LOCK(htim);
 800198e:	d018      	beq.n	80019c2 <HAL_TIM_OC_ConfigChannel+0x42>
 8001990:	2301      	movs	r3, #1
 8001992:	f884 303c 	strb.w	r3, [r4, #60]	; 0x3c
  htim->State = HAL_TIM_STATE_BUSY;
 8001996:	f884 003d 	strb.w	r0, [r4, #61]	; 0x3d
 800199a:	461d      	mov	r5, r3
  switch (Channel)
 800199c:	2a0c      	cmp	r2, #12
 800199e:	d80b      	bhi.n	80019b8 <HAL_TIM_OC_ConfigChannel+0x38>
 80019a0:	e8df f002 	tbb	[pc, r2]
 80019a4:	0a0a0a07 	.word	0x0a0a0a07
 80019a8:	0a0a0a10 	.word	0x0a0a0a10
 80019ac:	0a0a0a14 	.word	0x0a0a0a14
 80019b0:	18          	.byte	0x18
 80019b1:	00          	.byte	0x00
      TIM_OC1_SetConfig(htim->Instance, sConfig);
 80019b2:	6820      	ldr	r0, [r4, #0]
 80019b4:	f7ff fe72 	bl	800169c <TIM_OC1_SetConfig>
  __HAL_UNLOCK(htim);
 80019b8:	2000      	movs	r0, #0
  htim->State = HAL_TIM_STATE_READY;
 80019ba:	f884 503d 	strb.w	r5, [r4, #61]	; 0x3d
  __HAL_UNLOCK(htim);
 80019be:	f884 003c 	strb.w	r0, [r4, #60]	; 0x3c
}
 80019c2:	bd38      	pop	{r3, r4, r5, pc}
      TIM_OC2_SetConfig(htim->Instance, sConfig);
 80019c4:	6820      	ldr	r0, [r4, #0]
 80019c6:	f7ff ffa5 	bl	8001914 <TIM_OC2_SetConfig>
      break;
 80019ca:	e7f5      	b.n	80019b8 <HAL_TIM_OC_ConfigChannel+0x38>
      TIM_OC3_SetConfig(htim->Instance, sConfig);
 80019cc:	6820      	ldr	r0, [r4, #0]
 80019ce:	f7ff fe97 	bl	8001700 <TIM_OC3_SetConfig>
      break;
 80019d2:	e7f1      	b.n	80019b8 <HAL_TIM_OC_ConfigChannel+0x38>
      TIM_OC4_SetConfig(htim->Instance, sConfig);
 80019d4:	6820      	ldr	r0, [r4, #0]
 80019d6:	f7ff fec9 	bl	800176c <TIM_OC4_SetConfig>
      break;
 80019da:	e7ed      	b.n	80019b8 <HAL_TIM_OC_ConfigChannel+0x38>

080019dc <TIM_ETR_SetConfig>:
  *          This parameter must be a value between 0x00 and 0x0F
  * @retval None
  */
void TIM_ETR_SetConfig(TIM_TypeDef *TIMx, uint32_t TIM_ExtTRGPrescaler,
                       uint32_t TIM_ExtTRGPolarity, uint32_t ExtTRGFilter)
{
 80019dc:	b510      	push	{r4, lr}
  uint32_t tmpsmcr;

  tmpsmcr = TIMx->SMCR;
 80019de:	6884      	ldr	r4, [r0, #8]

  /* Reset the ETR Bits */
  tmpsmcr &= ~(TIM_SMCR_ETF | TIM_SMCR_ETPS | TIM_SMCR_ECE | TIM_SMCR_ETP);

  /* Set the Prescaler, the Filter value and the Polarity */
  tmpsmcr |= (uint32_t)(TIM_ExtTRGPrescaler | (TIM_ExtTRGPolarity | (ExtTRGFilter << 8U)));
 80019e0:	430a      	orrs	r2, r1
  tmpsmcr &= ~(TIM_SMCR_ETF | TIM_SMCR_ETPS | TIM_SMCR_ECE | TIM_SMCR_ETP);
 80019e2:	f424 447f 	bic.w	r4, r4, #65280	; 0xff00
  tmpsmcr |= (uint32_t)(TIM_ExtTRGPrescaler | (TIM_ExtTRGPolarity | (ExtTRGFilter << 8U)));
 80019e6:	ea42 2303 	orr.w	r3, r2, r3, lsl #8
 80019ea:	4323      	orrs	r3, r4

  /* Write to TIMx SMCR */
  TIMx->SMCR = tmpsmcr;
 80019ec:	6083      	str	r3, [r0, #8]
}
 80019ee:	bd10      	pop	{r4, pc}

080019f0 <HAL_TIM_ConfigClockSource>:
  __HAL_LOCK(htim);
 80019f0:	f890 303c 	ldrb.w	r3, [r0, #60]	; 0x3c
 80019f4:	2b01      	cmp	r3, #1
{
 80019f6:	b570      	push	{r4, r5, r6, lr}
 80019f8:	4604      	mov	r4, r0
 80019fa:	f04f 0002 	mov.w	r0, #2
  __HAL_LOCK(htim);
 80019fe:	d019      	beq.n	8001a34 <HAL_TIM_ConfigClockSource+0x44>
  htim->State = HAL_TIM_STATE_BUSY;
 8001a00:	f884 003d 	strb.w	r0, [r4, #61]	; 0x3d
  tmpsmcr = htim->Instance->SMCR;
 8001a04:	6820      	ldr	r0, [r4, #0]
  __HAL_LOCK(htim);
 8001a06:	2301      	movs	r3, #1
 8001a08:	f884 303c 	strb.w	r3, [r4, #60]	; 0x3c
  tmpsmcr = htim->Instance->SMCR;
 8001a0c:	6883      	ldr	r3, [r0, #8]
  tmpsmcr &= ~(TIM_SMCR_ETF | TIM_SMCR_ETPS | TIM_SMCR_ECE | TIM_SMCR_ETP);
 8001a0e:	f423 437f 	bic.w	r3, r3, #65280	; 0xff00
 8001a12:	f023 0377 	bic.w	r3, r3, #119	; 0x77
  htim->Instance->SMCR = tmpsmcr;
 8001a16:	6083      	str	r3, [r0, #8]
  switch (sClockSourceConfig->ClockSource)
 8001a18:	680b      	ldr	r3, [r1, #0]
 8001a1a:	2b40      	cmp	r3, #64	; 0x40
 8001a1c:	d065      	beq.n	8001aea <HAL_TIM_ConfigClockSource+0xfa>
 8001a1e:	d815      	bhi.n	8001a4c <HAL_TIM_ConfigClockSource+0x5c>
 8001a20:	2b10      	cmp	r3, #16
 8001a22:	d00c      	beq.n	8001a3e <HAL_TIM_ConfigClockSource+0x4e>
 8001a24:	d807      	bhi.n	8001a36 <HAL_TIM_ConfigClockSource+0x46>
 8001a26:	b153      	cbz	r3, 8001a3e <HAL_TIM_ConfigClockSource+0x4e>
  htim->State = HAL_TIM_STATE_READY;
 8001a28:	2301      	movs	r3, #1
  __HAL_UNLOCK(htim);
 8001a2a:	2000      	movs	r0, #0
  htim->State = HAL_TIM_STATE_READY;
 8001a2c:	f884 303d 	strb.w	r3, [r4, #61]	; 0x3d
  __HAL_UNLOCK(htim);
 8001a30:	f884 003c 	strb.w	r0, [r4, #60]	; 0x3c
}
 8001a34:	bd70      	pop	{r4, r5, r6, pc}
  switch (sClockSourceConfig->ClockSource)
 8001a36:	2b20      	cmp	r3, #32
 8001a38:	d001      	beq.n	8001a3e <HAL_TIM_ConfigClockSource+0x4e>
 8001a3a:	2b30      	cmp	r3, #48	; 0x30
 8001a3c:	d1f4      	bne.n	8001a28 <HAL_TIM_ConfigClockSource+0x38>
  tmpsmcr = TIMx->SMCR;
 8001a3e:	6882      	ldr	r2, [r0, #8]
  tmpsmcr |= (InputTriggerSource | TIM_SLAVEMODE_EXTERNAL1);
 8001a40:	f043 0307 	orr.w	r3, r3, #7
  tmpsmcr &= ~TIM_SMCR_TS;
 8001a44:	f022 0270 	bic.w	r2, r2, #112	; 0x70
  tmpsmcr |= (InputTriggerSource | TIM_SLAVEMODE_EXTERNAL1);
 8001a48:	4313      	orrs	r3, r2
 8001a4a:	e01a      	b.n	8001a82 <HAL_TIM_ConfigClockSource+0x92>
  switch (sClockSourceConfig->ClockSource)
 8001a4c:	2b60      	cmp	r3, #96	; 0x60
 8001a4e:	d034      	beq.n	8001aba <HAL_TIM_ConfigClockSource+0xca>
 8001a50:	d819      	bhi.n	8001a86 <HAL_TIM_ConfigClockSource+0x96>
 8001a52:	2b50      	cmp	r3, #80	; 0x50
 8001a54:	d1e8      	bne.n	8001a28 <HAL_TIM_ConfigClockSource+0x38>
      TIM_TI1_ConfigInputStage(htim->Instance,
 8001a56:	684a      	ldr	r2, [r1, #4]
 8001a58:	68ce      	ldr	r6, [r1, #12]
  tmpccer = TIMx->CCER;
 8001a5a:	6a01      	ldr	r1, [r0, #32]
  TIMx->CCER &= ~TIM_CCER_CC1E;
 8001a5c:	6a05      	ldr	r5, [r0, #32]
 8001a5e:	f025 0501 	bic.w	r5, r5, #1
 8001a62:	6205      	str	r5, [r0, #32]
  tmpccmr1 = TIMx->CCMR1;
 8001a64:	6983      	ldr	r3, [r0, #24]
  tmpccer &= ~(TIM_CCER_CC1P | TIM_CCER_CC1NP);
 8001a66:	f021 010a 	bic.w	r1, r1, #10
  tmpccmr1 &= ~TIM_CCMR1_IC1F;
 8001a6a:	f023 03f0 	bic.w	r3, r3, #240	; 0xf0
  tmpccmr1 |= (TIM_ICFilter << 4U);
 8001a6e:	ea43 1306 	orr.w	r3, r3, r6, lsl #4
  tmpccer |= TIM_ICPolarity;
 8001a72:	430a      	orrs	r2, r1
  TIMx->CCMR1 = tmpccmr1;
 8001a74:	6183      	str	r3, [r0, #24]
  TIMx->CCER = tmpccer;
 8001a76:	6202      	str	r2, [r0, #32]
  tmpsmcr = TIMx->SMCR;
 8001a78:	6883      	ldr	r3, [r0, #8]
  tmpsmcr &= ~TIM_SMCR_TS;
 8001a7a:	f023 0370 	bic.w	r3, r3, #112	; 0x70
  tmpsmcr |= (InputTriggerSource | TIM_SLAVEMODE_EXTERNAL1);
 8001a7e:	f043 0357 	orr.w	r3, r3, #87	; 0x57
  TIMx->SMCR = tmpsmcr;
 8001a82:	6083      	str	r3, [r0, #8]
 8001a84:	e7d0      	b.n	8001a28 <HAL_TIM_ConfigClockSource+0x38>
  switch (sClockSourceConfig->ClockSource)
 8001a86:	2b70      	cmp	r3, #112	; 0x70
 8001a88:	d00c      	beq.n	8001aa4 <HAL_TIM_ConfigClockSource+0xb4>
 8001a8a:	f5b3 5f00 	cmp.w	r3, #8192	; 0x2000
 8001a8e:	d1cb      	bne.n	8001a28 <HAL_TIM_ConfigClockSource+0x38>
      TIM_ETR_SetConfig(htim->Instance,
 8001a90:	68cb      	ldr	r3, [r1, #12]
 8001a92:	e9d1 2101 	ldrd	r2, r1, [r1, #4]
 8001a96:	f7ff ffa1 	bl	80019dc <TIM_ETR_SetConfig>
      htim->Instance->SMCR |= TIM_SMCR_ECE;
 8001a9a:	6822      	ldr	r2, [r4, #0]
 8001a9c:	6893      	ldr	r3, [r2, #8]
 8001a9e:	f443 4380 	orr.w	r3, r3, #16384	; 0x4000
 8001aa2:	e008      	b.n	8001ab6 <HAL_TIM_ConfigClockSource+0xc6>
      TIM_ETR_SetConfig(htim->Instance,
 8001aa4:	68cb      	ldr	r3, [r1, #12]
 8001aa6:	e9d1 2101 	ldrd	r2, r1, [r1, #4]
 8001aaa:	f7ff ff97 	bl	80019dc <TIM_ETR_SetConfig>
      tmpsmcr = htim->Instance->SMCR;
 8001aae:	6822      	ldr	r2, [r4, #0]
 8001ab0:	6893      	ldr	r3, [r2, #8]
      tmpsmcr |= (TIM_SLAVEMODE_EXTERNAL1 | TIM_CLOCKSOURCE_ETRMODE1);
 8001ab2:	f043 0377 	orr.w	r3, r3, #119	; 0x77
      htim->Instance->SMCR |= TIM_SMCR_ECE;
 8001ab6:	6093      	str	r3, [r2, #8]
      break;
 8001ab8:	e7b6      	b.n	8001a28 <HAL_TIM_ConfigClockSource+0x38>
      TIM_TI2_ConfigInputStage(htim->Instance,
 8001aba:	684d      	ldr	r5, [r1, #4]
 8001abc:	68ce      	ldr	r6, [r1, #12]
  TIMx->CCER &= ~TIM_CCER_CC2E;
 8001abe:	6a01      	ldr	r1, [r0, #32]
 8001ac0:	f021 0110 	bic.w	r1, r1, #16
 8001ac4:	6201      	str	r1, [r0, #32]
  tmpccmr1 = TIMx->CCMR1;
 8001ac6:	6982      	ldr	r2, [r0, #24]
  tmpccer = TIMx->CCER;
 8001ac8:	6a03      	ldr	r3, [r0, #32]
  tmpccmr1 &= ~TIM_CCMR1_IC2F;
 8001aca:	f422 4270 	bic.w	r2, r2, #61440	; 0xf000
  tmpccer &= ~(TIM_CCER_CC2P | TIM_CCER_CC2NP);
 8001ace:	f023 03a0 	bic.w	r3, r3, #160	; 0xa0
  tmpccer |= (TIM_ICPolarity << 4U);
 8001ad2:	ea43 1305 	orr.w	r3, r3, r5, lsl #4
  tmpccmr1 |= (TIM_ICFilter << 12U);
 8001ad6:	ea42 3206 	orr.w	r2, r2, r6, lsl #12
  TIMx->CCMR1 = tmpccmr1 ;
 8001ada:	6182      	str	r2, [r0, #24]
  TIMx->CCER = tmpccer;
 8001adc:	6203      	str	r3, [r0, #32]
  tmpsmcr = TIMx->SMCR;
 8001ade:	6883      	ldr	r3, [r0, #8]
  tmpsmcr &= ~TIM_SMCR_TS;
 8001ae0:	f023 0370 	bic.w	r3, r3, #112	; 0x70
  tmpsmcr |= (InputTriggerSource | TIM_SLAVEMODE_EXTERNAL1);
 8001ae4:	f043 0367 	orr.w	r3, r3, #103	; 0x67
 8001ae8:	e7cb      	b.n	8001a82 <HAL_TIM_ConfigClockSource+0x92>
      TIM_TI1_ConfigInputStage(htim->Instance,
 8001aea:	684a      	ldr	r2, [r1, #4]
 8001aec:	68ce      	ldr	r6, [r1, #12]
  tmpccer = TIMx->CCER;
 8001aee:	6a01      	ldr	r1, [r0, #32]
  TIMx->CCER &= ~TIM_CCER_CC1E;
 8001af0:	6a05      	ldr	r5, [r0, #32]
 8001af2:	f025 0501 	bic.w	r5, r5, #1
 8001af6:	6205      	str	r5, [r0, #32]
  tmpccmr1 = TIMx->CCMR1;
 8001af8:	6983      	ldr	r3, [r0, #24]
  tmpccer &= ~(TIM_CCER_CC1P | TIM_CCER_CC1NP);
 8001afa:	f021 010a 	bic.w	r1, r1, #10
  tmpccmr1 &= ~TIM_CCMR1_IC1F;
 8001afe:	f023 03f0 	bic.w	r3, r3, #240	; 0xf0
  tmpccmr1 |= (TIM_ICFilter << 4U);
 8001b02:	ea43 1306 	orr.w	r3, r3, r6, lsl #4
  tmpccer |= TIM_ICPolarity;
 8001b06:	430a      	orrs	r2, r1
  TIMx->CCMR1 = tmpccmr1;
 8001b08:	6183      	str	r3, [r0, #24]
  TIMx->CCER = tmpccer;
 8001b0a:	6202      	str	r2, [r0, #32]
  tmpsmcr = TIMx->SMCR;
 8001b0c:	6883      	ldr	r3, [r0, #8]
  tmpsmcr &= ~TIM_SMCR_TS;
 8001b0e:	f023 0370 	bic.w	r3, r3, #112	; 0x70
  tmpsmcr |= (InputTriggerSource | TIM_SLAVEMODE_EXTERNAL1);
 8001b12:	f043 0347 	orr.w	r3, r3, #71	; 0x47
 8001b16:	e7b4      	b.n	8001a82 <HAL_TIM_ConfigClockSource+0x92>

08001b18 <TIM_CCxChannelCmd>:
  assert_param(IS_TIM_CHANNELS(Channel));

  tmp = TIM_CCER_CC1E << (Channel & 0x1FU); /* 0x1FU = 31 bits max shift */

  /* Reset the CCxE Bit */
  TIMx->CCER &= ~tmp;
 8001b18:	6a03      	ldr	r3, [r0, #32]
  tmp = TIM_CCER_CC1E << (Channel & 0x1FU); /* 0x1FU = 31 bits max shift */
 8001b1a:	f001 011f 	and.w	r1, r1, #31
{
 8001b1e:	b510      	push	{r4, lr}
  tmp = TIM_CCER_CC1E << (Channel & 0x1FU); /* 0x1FU = 31 bits max shift */
 8001b20:	2401      	movs	r4, #1
 8001b22:	408c      	lsls	r4, r1
  TIMx->CCER &= ~tmp;
 8001b24:	ea23 0304 	bic.w	r3, r3, r4
 8001b28:	6203      	str	r3, [r0, #32]

  /* Set or reset the CCxE Bit */
  TIMx->CCER |= (uint32_t)(ChannelState << (Channel & 0x1FU)); /* 0x1FU = 31 bits max shift */
 8001b2a:	6a03      	ldr	r3, [r0, #32]
 8001b2c:	408a      	lsls	r2, r1
 8001b2e:	431a      	orrs	r2, r3
 8001b30:	6202      	str	r2, [r0, #32]
}
 8001b32:	bd10      	pop	{r4, pc}

08001b34 <HAL_TIM_OC_Start>:
{
 8001b34:	b510      	push	{r4, lr}
 8001b36:	4604      	mov	r4, r0
  TIM_CCxChannelCmd(htim->Instance, Channel, TIM_CCx_ENABLE);
 8001b38:	2201      	movs	r2, #1
 8001b3a:	6800      	ldr	r0, [r0, #0]
 8001b3c:	f7ff ffec 	bl	8001b18 <TIM_CCxChannelCmd>
  if (IS_TIM_BREAK_INSTANCE(htim->Instance) != RESET)
 8001b40:	6823      	ldr	r3, [r4, #0]
 8001b42:	4a0b      	ldr	r2, [pc, #44]	; (8001b70 <HAL_TIM_OC_Start+0x3c>)
 8001b44:	4293      	cmp	r3, r2
 8001b46:	d003      	beq.n	8001b50 <HAL_TIM_OC_Start+0x1c>
 8001b48:	f502 6280 	add.w	r2, r2, #1024	; 0x400
 8001b4c:	4293      	cmp	r3, r2
 8001b4e:	d103      	bne.n	8001b58 <HAL_TIM_OC_Start+0x24>
    __HAL_TIM_MOE_ENABLE(htim);
 8001b50:	6c5a      	ldr	r2, [r3, #68]	; 0x44
 8001b52:	f442 4200 	orr.w	r2, r2, #32768	; 0x8000
 8001b56:	645a      	str	r2, [r3, #68]	; 0x44
  tmpsmcr = htim->Instance->SMCR & TIM_SMCR_SMS;
 8001b58:	689a      	ldr	r2, [r3, #8]
 8001b5a:	f002 0207 	and.w	r2, r2, #7
  if (!IS_TIM_SLAVEMODE_TRIGGER_ENABLED(tmpsmcr))
 8001b5e:	2a06      	cmp	r2, #6
    __HAL_TIM_ENABLE(htim);
 8001b60:	bf1e      	ittt	ne
 8001b62:	681a      	ldrne	r2, [r3, #0]
 8001b64:	f042 0201 	orrne.w	r2, r2, #1
 8001b68:	601a      	strne	r2, [r3, #0]
}
 8001b6a:	2000      	movs	r0, #0
 8001b6c:	bd10      	pop	{r4, pc}
 8001b6e:	bf00      	nop
 8001b70:	40010000 	.word	0x40010000

08001b74 <HAL_TIMEx_MasterConfigSynchronization>:
  assert_param(IS_TIM_MASTER_INSTANCE(htim->Instance));
  assert_param(IS_TIM_TRGO_SOURCE(sMasterConfig->MasterOutputTrigger));
  assert_param(IS_TIM_MSM_STATE(sMasterConfig->MasterSlaveMode));

  /* Check input state */
  __HAL_LOCK(htim);
 8001b74:	f890 303c 	ldrb.w	r3, [r0, #60]	; 0x3c
 8001b78:	2b01      	cmp	r3, #1
{
 8001b7a:	b530      	push	{r4, r5, lr}
 8001b7c:	f04f 0302 	mov.w	r3, #2
  __HAL_LOCK(htim);
 8001b80:	d035      	beq.n	8001bee <HAL_TIMEx_MasterConfigSynchronization+0x7a>

  /* Change the handler state */
  htim->State = HAL_TIM_STATE_BUSY;
 8001b82:	f880 303d 	strb.w	r3, [r0, #61]	; 0x3d

  /* Get the TIMx CR2 register value */
  tmpcr2 = htim->Instance->CR2;
 8001b86:	6803      	ldr	r3, [r0, #0]
  tmpsmcr = htim->Instance->SMCR;

  /* Reset the MMS Bits */
  tmpcr2 &= ~TIM_CR2_MMS;
  /* Select the TRGO source */
  tmpcr2 |=  sMasterConfig->MasterOutputTrigger;
 8001b88:	680d      	ldr	r5, [r1, #0]
  tmpcr2 = htim->Instance->CR2;
 8001b8a:	685c      	ldr	r4, [r3, #4]
  tmpcr2 &= ~TIM_CR2_MMS;
 8001b8c:	f024 0470 	bic.w	r4, r4, #112	; 0x70
  __HAL_LOCK(htim);
 8001b90:	2201      	movs	r2, #1
  tmpcr2 |=  sMasterConfig->MasterOutputTrigger;
 8001b92:	432c      	orrs	r4, r5
  __HAL_LOCK(htim);
 8001b94:	f880 203c 	strb.w	r2, [r0, #60]	; 0x3c
  tmpsmcr = htim->Instance->SMCR;
 8001b98:	689a      	ldr	r2, [r3, #8]

  /* Update TIMx CR2 */
  htim->Instance->CR2 = tmpcr2;
 8001b9a:	605c      	str	r4, [r3, #4]

  if (IS_TIM_SLAVE_INSTANCE(htim->Instance))
 8001b9c:	4c15      	ldr	r4, [pc, #84]	; (8001bf4 <HAL_TIMEx_MasterConfigSynchronization+0x80>)
 8001b9e:	42a3      	cmp	r3, r4
 8001ba0:	d01a      	beq.n	8001bd8 <HAL_TIMEx_MasterConfigSynchronization+0x64>
 8001ba2:	f1b3 4f80 	cmp.w	r3, #1073741824	; 0x40000000
 8001ba6:	d017      	beq.n	8001bd8 <HAL_TIMEx_MasterConfigSynchronization+0x64>
 8001ba8:	f5a4 447c 	sub.w	r4, r4, #64512	; 0xfc00
 8001bac:	42a3      	cmp	r3, r4
 8001bae:	d013      	beq.n	8001bd8 <HAL_TIMEx_MasterConfigSynchronization+0x64>
 8001bb0:	f504 6480 	add.w	r4, r4, #1024	; 0x400
 8001bb4:	42a3      	cmp	r3, r4
 8001bb6:	d00f      	beq.n	8001bd8 <HAL_TIMEx_MasterConfigSynchronization+0x64>
 8001bb8:	f504 6480 	add.w	r4, r4, #1024	; 0x400
 8001bbc:	42a3      	cmp	r3, r4
 8001bbe:	d00b      	beq.n	8001bd8 <HAL_TIMEx_MasterConfigSynchronization+0x64>
 8001bc0:	f504 4478 	add.w	r4, r4, #63488	; 0xf800
 8001bc4:	42a3      	cmp	r3, r4
 8001bc6:	d007      	beq.n	8001bd8 <HAL_TIMEx_MasterConfigSynchronization+0x64>
 8001bc8:	f504 5470 	add.w	r4, r4, #15360	; 0x3c00
 8001bcc:	42a3      	cmp	r3, r4
 8001bce:	d003      	beq.n	8001bd8 <HAL_TIMEx_MasterConfigSynchronization+0x64>
 8001bd0:	f5a4 3494 	sub.w	r4, r4, #75776	; 0x12800
 8001bd4:	42a3      	cmp	r3, r4
 8001bd6:	d104      	bne.n	8001be2 <HAL_TIMEx_MasterConfigSynchronization+0x6e>
  {
    /* Reset the MSM Bit */
    tmpsmcr &= ~TIM_SMCR_MSM;
    /* Set master mode */
    tmpsmcr |= sMasterConfig->MasterSlaveMode;
 8001bd8:	6849      	ldr	r1, [r1, #4]
    tmpsmcr &= ~TIM_SMCR_MSM;
 8001bda:	f022 0280 	bic.w	r2, r2, #128	; 0x80
    tmpsmcr |= sMasterConfig->MasterSlaveMode;
 8001bde:	430a      	orrs	r2, r1

    /* Update TIMx SMCR */
    htim->Instance->SMCR = tmpsmcr;
 8001be0:	609a      	str	r2, [r3, #8]
  }

  /* Change the htim state */
  htim->State = HAL_TIM_STATE_READY;
 8001be2:	2301      	movs	r3, #1
 8001be4:	f880 303d 	strb.w	r3, [r0, #61]	; 0x3d

  __HAL_UNLOCK(htim);
 8001be8:	2300      	movs	r3, #0
 8001bea:	f880 303c 	strb.w	r3, [r0, #60]	; 0x3c
  __HAL_LOCK(htim);
 8001bee:	4618      	mov	r0, r3

  return HAL_OK;
}
 8001bf0:	bd30      	pop	{r4, r5, pc}
 8001bf2:	bf00      	nop
 8001bf4:	40010000 	.word	0x40010000

08001bf8 <UART_SetConfig>:
  assert_param(IS_UART_MODE(huart->Init.Mode));

  /*-------------------------- USART CR2 Configuration -----------------------*/
  /* Configure the UART Stop Bits: Set STOP[13:12] bits
     according to huart->Init.StopBits value */
  MODIFY_REG(huart->Instance->CR2, USART_CR2_STOP, huart->Init.StopBits);
 8001bf8:	6803      	ldr	r3, [r0, #0]
 8001bfa:	68c1      	ldr	r1, [r0, #12]
 8001bfc:	691a      	ldr	r2, [r3, #16]
{
 8001bfe:	b570      	push	{r4, r5, r6, lr}
  MODIFY_REG(huart->Instance->CR2, USART_CR2_STOP, huart->Init.StopBits);
 8001c00:	f422 5240 	bic.w	r2, r2, #12288	; 0x3000
{
 8001c04:	4604      	mov	r4, r0
  MODIFY_REG(huart->Instance->CR2, USART_CR2_STOP, huart->Init.StopBits);
 8001c06:	430a      	orrs	r2, r1
 8001c08:	611a      	str	r2, [r3, #16]
     Set the M bits according to huart->Init.WordLength value
     Set PCE and PS bits according to huart->Init.Parity value
     Set TE and RE bits according to huart->Init.Mode value
     Set OVER8 bit according to huart->Init.OverSampling value */

  tmpreg = (uint32_t)huart->Init.WordLength | huart->Init.Parity | huart->Init.Mode | huart->Init.OverSampling;
 8001c0a:	6925      	ldr	r5, [r4, #16]
 8001c0c:	68a2      	ldr	r2, [r4, #8]
  MODIFY_REG(huart->Instance->CR1,
 8001c0e:	68d9      	ldr	r1, [r3, #12]
  tmpreg = (uint32_t)huart->Init.WordLength | huart->Init.Parity | huart->Init.Mode | huart->Init.OverSampling;
 8001c10:	69c0      	ldr	r0, [r0, #28]
 8001c12:	432a      	orrs	r2, r5
 8001c14:	6965      	ldr	r5, [r4, #20]
  MODIFY_REG(huart->Instance->CR1,
 8001c16:	f421 4116 	bic.w	r1, r1, #38400	; 0x9600
  tmpreg = (uint32_t)huart->Init.WordLength | huart->Init.Parity | huart->Init.Mode | huart->Init.OverSampling;
 8001c1a:	432a      	orrs	r2, r5
  MODIFY_REG(huart->Instance->CR1,
 8001c1c:	f021 010c 	bic.w	r1, r1, #12
  tmpreg = (uint32_t)huart->Init.WordLength | huart->Init.Parity | huart->Init.Mode | huart->Init.OverSampling;
 8001c20:	4302      	orrs	r2, r0
  MODIFY_REG(huart->Instance->CR1,
 8001c22:	430a      	orrs	r2, r1
 8001c24:	60da      	str	r2, [r3, #12]
             (uint32_t)(USART_CR1_M | USART_CR1_PCE | USART_CR1_PS | USART_CR1_TE | USART_CR1_RE | USART_CR1_OVER8),
             tmpreg);

  /*-------------------------- USART CR3 Configuration -----------------------*/
  /* Configure the UART HFC: Set CTSE and RTSE bits according to huart->Init.HwFlowCtl value */
  MODIFY_REG(huart->Instance->CR3, (USART_CR3_RTSE | USART_CR3_CTSE), huart->Init.HwFlowCtl);
 8001c26:	695a      	ldr	r2, [r3, #20]
 8001c28:	69a1      	ldr	r1, [r4, #24]
 8001c2a:	f422 7240 	bic.w	r2, r2, #768	; 0x300
 8001c2e:	430a      	orrs	r2, r1

  /* Check the Over Sampling */
  if (huart->Init.OverSampling == UART_OVERSAMPLING_8)
 8001c30:	f5b0 4f00 	cmp.w	r0, #32768	; 0x8000
  MODIFY_REG(huart->Instance->CR3, (USART_CR3_RTSE | USART_CR3_CTSE), huart->Init.HwFlowCtl);
 8001c34:	615a      	str	r2, [r3, #20]
 8001c36:	4a26      	ldr	r2, [pc, #152]	; (8001cd0 <UART_SetConfig+0xd8>)
  if (huart->Init.OverSampling == UART_OVERSAMPLING_8)
 8001c38:	d129      	bne.n	8001c8e <UART_SetConfig+0x96>
    {
      pclk = HAL_RCC_GetPCLK2Freq();
      huart->Instance->BRR = UART_BRR_SAMPLING8(pclk, huart->Init.BaudRate);
    }
#elif defined(USART6)
    if ((huart->Instance == USART1) || (huart->Instance == USART6))
 8001c3a:	4293      	cmp	r3, r2
 8001c3c:	d003      	beq.n	8001c46 <UART_SetConfig+0x4e>
 8001c3e:	f502 6280 	add.w	r2, r2, #1024	; 0x400
 8001c42:	4293      	cmp	r3, r2
 8001c44:	d120      	bne.n	8001c88 <UART_SetConfig+0x90>
    {
      pclk = HAL_RCC_GetPCLK2Freq();
 8001c46:	f7ff fb37 	bl	80012b8 <HAL_RCC_GetPCLK2Freq>
    }
#endif /* USART6 */
    else
    {
      pclk = HAL_RCC_GetPCLK1Freq();
      huart->Instance->BRR = UART_BRR_SAMPLING8(pclk, huart->Init.BaudRate);
 8001c4a:	6862      	ldr	r2, [r4, #4]
 8001c4c:	2600      	movs	r6, #0
 8001c4e:	1892      	adds	r2, r2, r2
 8001c50:	f04f 0119 	mov.w	r1, #25
 8001c54:	eb46 0306 	adc.w	r3, r6, r6
 8001c58:	fba0 0101 	umull	r0, r1, r0, r1
 8001c5c:	f7fe fb30 	bl	80002c0 <__aeabi_uldivmod>
 8001c60:	2164      	movs	r1, #100	; 0x64
 8001c62:	fbb0 f5f1 	udiv	r5, r0, r1
 8001c66:	fb01 0315 	mls	r3, r1, r5, r0
 8001c6a:	00db      	lsls	r3, r3, #3
 8001c6c:	3332      	adds	r3, #50	; 0x32
 8001c6e:	fbb3 f3f1 	udiv	r3, r3, r1
 8001c72:	f003 0207 	and.w	r2, r3, #7
 8001c76:	005b      	lsls	r3, r3, #1
 8001c78:	6821      	ldr	r1, [r4, #0]
 8001c7a:	eb02 1205 	add.w	r2, r2, r5, lsl #4
 8001c7e:	f403 73f8 	and.w	r3, r3, #496	; 0x1f0
 8001c82:	4413      	add	r3, r2
 8001c84:	608b      	str	r3, [r1, #8]
    {
      pclk = HAL_RCC_GetPCLK1Freq();
      huart->Instance->BRR = UART_BRR_SAMPLING16(pclk, huart->Init.BaudRate);
    }
  }
}
 8001c86:	bd70      	pop	{r4, r5, r6, pc}
      pclk = HAL_RCC_GetPCLK1Freq();
 8001c88:	f7ff fb06 	bl	8001298 <HAL_RCC_GetPCLK1Freq>
 8001c8c:	e7dd      	b.n	8001c4a <UART_SetConfig+0x52>
    if ((huart->Instance == USART1) || (huart->Instance == USART6))
 8001c8e:	4293      	cmp	r3, r2
 8001c90:	d002      	beq.n	8001c98 <UART_SetConfig+0xa0>
 8001c92:	4a10      	ldr	r2, [pc, #64]	; (8001cd4 <UART_SetConfig+0xdc>)
 8001c94:	4293      	cmp	r3, r2
 8001c96:	d117      	bne.n	8001cc8 <UART_SetConfig+0xd0>
      pclk = HAL_RCC_GetPCLK2Freq();
 8001c98:	f7ff fb0e 	bl	80012b8 <HAL_RCC_GetPCLK2Freq>
      huart->Instance->BRR = UART_BRR_SAMPLING16(pclk, huart->Init.BaudRate);
 8001c9c:	6863      	ldr	r3, [r4, #4]
 8001c9e:	2119      	movs	r1, #25
 8001ca0:	009a      	lsls	r2, r3, #2
 8001ca2:	fba0 0101 	umull	r0, r1, r0, r1
 8001ca6:	0f9b      	lsrs	r3, r3, #30
 8001ca8:	f7fe fb0a 	bl	80002c0 <__aeabi_uldivmod>
 8001cac:	2264      	movs	r2, #100	; 0x64
 8001cae:	fbb0 f1f2 	udiv	r1, r0, r2
 8001cb2:	fb02 0311 	mls	r3, r2, r1, r0
 8001cb6:	6824      	ldr	r4, [r4, #0]
 8001cb8:	011b      	lsls	r3, r3, #4
 8001cba:	3332      	adds	r3, #50	; 0x32
 8001cbc:	fbb3 f3f2 	udiv	r3, r3, r2
 8001cc0:	eb03 1301 	add.w	r3, r3, r1, lsl #4
 8001cc4:	60a3      	str	r3, [r4, #8]
}
 8001cc6:	e7de      	b.n	8001c86 <UART_SetConfig+0x8e>
      pclk = HAL_RCC_GetPCLK1Freq();
 8001cc8:	f7ff fae6 	bl	8001298 <HAL_RCC_GetPCLK1Freq>
 8001ccc:	e7e6      	b.n	8001c9c <UART_SetConfig+0xa4>
 8001cce:	bf00      	nop
 8001cd0:	40011000 	.word	0x40011000
 8001cd4:	40011400 	.word	0x40011400

08001cd8 <UART_WaitOnFlagUntilTimeout.constprop.3>:
static HAL_StatusTypeDef UART_WaitOnFlagUntilTimeout(UART_HandleTypeDef *huart, uint32_t Flag, FlagStatus Status, uint32_t Tickstart, uint32_t Timeout)
 8001cd8:	b5f8      	push	{r3, r4, r5, r6, r7, lr}
 8001cda:	4604      	mov	r4, r0
 8001cdc:	460e      	mov	r6, r1
 8001cde:	4617      	mov	r7, r2
 8001ce0:	461d      	mov	r5, r3
  while ((__HAL_UART_GET_FLAG(huart, Flag) ? SET : RESET) == Status)
 8001ce2:	6821      	ldr	r1, [r4, #0]
 8001ce4:	680b      	ldr	r3, [r1, #0]
 8001ce6:	ea36 0303 	bics.w	r3, r6, r3
 8001cea:	d101      	bne.n	8001cf0 <UART_WaitOnFlagUntilTimeout.constprop.3+0x18>
  return HAL_OK;
 8001cec:	2000      	movs	r0, #0
 8001cee:	e014      	b.n	8001d1a <UART_WaitOnFlagUntilTimeout.constprop.3+0x42>
    if (Timeout != HAL_MAX_DELAY)
 8001cf0:	1c6b      	adds	r3, r5, #1
 8001cf2:	d0f7      	beq.n	8001ce4 <UART_WaitOnFlagUntilTimeout.constprop.3+0xc>
      if ((Timeout == 0U) || ((HAL_GetTick() - Tickstart) > Timeout))
 8001cf4:	b995      	cbnz	r5, 8001d1c <UART_WaitOnFlagUntilTimeout.constprop.3+0x44>
        CLEAR_BIT(huart->Instance->CR1, (USART_CR1_RXNEIE | USART_CR1_PEIE | USART_CR1_TXEIE));
 8001cf6:	6823      	ldr	r3, [r4, #0]
 8001cf8:	68da      	ldr	r2, [r3, #12]
 8001cfa:	f422 72d0 	bic.w	r2, r2, #416	; 0x1a0
 8001cfe:	60da      	str	r2, [r3, #12]
        CLEAR_BIT(huart->Instance->CR3, USART_CR3_EIE);
 8001d00:	695a      	ldr	r2, [r3, #20]
 8001d02:	f022 0201 	bic.w	r2, r2, #1
 8001d06:	615a      	str	r2, [r3, #20]
        huart->gState  = HAL_UART_STATE_READY;
 8001d08:	2320      	movs	r3, #32
 8001d0a:	f884 3039 	strb.w	r3, [r4, #57]	; 0x39
        huart->RxState = HAL_UART_STATE_READY;
 8001d0e:	f884 303a 	strb.w	r3, [r4, #58]	; 0x3a
        __HAL_UNLOCK(huart);
 8001d12:	2300      	movs	r3, #0
 8001d14:	f884 3038 	strb.w	r3, [r4, #56]	; 0x38
 8001d18:	2003      	movs	r0, #3
}
 8001d1a:	bdf8      	pop	{r3, r4, r5, r6, r7, pc}
      if ((Timeout == 0U) || ((HAL_GetTick() - Tickstart) > Timeout))
 8001d1c:	f7fe feac 	bl	8000a78 <HAL_GetTick>
 8001d20:	1bc0      	subs	r0, r0, r7
 8001d22:	4285      	cmp	r5, r0
 8001d24:	d2dd      	bcs.n	8001ce2 <UART_WaitOnFlagUntilTimeout.constprop.3+0xa>
 8001d26:	e7e6      	b.n	8001cf6 <UART_WaitOnFlagUntilTimeout.constprop.3+0x1e>

08001d28 <HAL_UART_Init>:
{
 8001d28:	b510      	push	{r4, lr}
  if (huart == NULL)
 8001d2a:	4604      	mov	r4, r0
 8001d2c:	b340      	cbz	r0, 8001d80 <HAL_UART_Init+0x58>
  if (huart->gState == HAL_UART_STATE_RESET)
 8001d2e:	f890 3039 	ldrb.w	r3, [r0, #57]	; 0x39
 8001d32:	f003 02ff 	and.w	r2, r3, #255	; 0xff
 8001d36:	b91b      	cbnz	r3, 8001d40 <HAL_UART_Init+0x18>
    huart->Lock = HAL_UNLOCKED;
 8001d38:	f880 2038 	strb.w	r2, [r0, #56]	; 0x38
    HAL_UART_MspInit(huart);
 8001d3c:	f000 fb16 	bl	800236c <HAL_UART_MspInit>
  __HAL_UART_DISABLE(huart);
 8001d40:	6822      	ldr	r2, [r4, #0]
  huart->gState = HAL_UART_STATE_BUSY;
 8001d42:	2324      	movs	r3, #36	; 0x24
 8001d44:	f884 3039 	strb.w	r3, [r4, #57]	; 0x39
  __HAL_UART_DISABLE(huart);
 8001d48:	68d3      	ldr	r3, [r2, #12]
 8001d4a:	f423 5300 	bic.w	r3, r3, #8192	; 0x2000
 8001d4e:	60d3      	str	r3, [r2, #12]
  UART_SetConfig(huart);
 8001d50:	4620      	mov	r0, r4
 8001d52:	f7ff ff51 	bl	8001bf8 <UART_SetConfig>
  CLEAR_BIT(huart->Instance->CR2, (USART_CR2_LINEN | USART_CR2_CLKEN));
 8001d56:	6823      	ldr	r3, [r4, #0]
 8001d58:	691a      	ldr	r2, [r3, #16]
 8001d5a:	f422 4290 	bic.w	r2, r2, #18432	; 0x4800
 8001d5e:	611a      	str	r2, [r3, #16]
  CLEAR_BIT(huart->Instance->CR3, (USART_CR3_SCEN | USART_CR3_HDSEL | USART_CR3_IREN));
 8001d60:	695a      	ldr	r2, [r3, #20]
 8001d62:	f022 022a 	bic.w	r2, r2, #42	; 0x2a
 8001d66:	615a      	str	r2, [r3, #20]
  __HAL_UART_ENABLE(huart);
 8001d68:	68da      	ldr	r2, [r3, #12]
 8001d6a:	f442 5200 	orr.w	r2, r2, #8192	; 0x2000
 8001d6e:	60da      	str	r2, [r3, #12]
  huart->ErrorCode = HAL_UART_ERROR_NONE;
 8001d70:	2000      	movs	r0, #0
  huart->gState = HAL_UART_STATE_READY;
 8001d72:	2320      	movs	r3, #32
  huart->ErrorCode = HAL_UART_ERROR_NONE;
 8001d74:	63e0      	str	r0, [r4, #60]	; 0x3c
  huart->gState = HAL_UART_STATE_READY;
 8001d76:	f884 3039 	strb.w	r3, [r4, #57]	; 0x39
  huart->RxState = HAL_UART_STATE_READY;
 8001d7a:	f884 303a 	strb.w	r3, [r4, #58]	; 0x3a
}
 8001d7e:	bd10      	pop	{r4, pc}
    return HAL_ERROR;
 8001d80:	2001      	movs	r0, #1
 8001d82:	e7fc      	b.n	8001d7e <HAL_UART_Init+0x56>

08001d84 <HAL_UART_Transmit>:
{
 8001d84:	e92d 43f8 	stmdb	sp!, {r3, r4, r5, r6, r7, r8, r9, lr}
 8001d88:	461f      	mov	r7, r3
  if (huart->gState == HAL_UART_STATE_READY)
 8001d8a:	f890 3039 	ldrb.w	r3, [r0, #57]	; 0x39
 8001d8e:	2b20      	cmp	r3, #32
{
 8001d90:	4604      	mov	r4, r0
 8001d92:	460d      	mov	r5, r1
 8001d94:	4690      	mov	r8, r2
  if (huart->gState == HAL_UART_STATE_READY)
 8001d96:	d14f      	bne.n	8001e38 <HAL_UART_Transmit+0xb4>
    if ((pData == NULL) || (Size == 0U))
 8001d98:	2900      	cmp	r1, #0
 8001d9a:	d04b      	beq.n	8001e34 <HAL_UART_Transmit+0xb0>
 8001d9c:	2a00      	cmp	r2, #0
 8001d9e:	d049      	beq.n	8001e34 <HAL_UART_Transmit+0xb0>
    __HAL_LOCK(huart);
 8001da0:	f890 3038 	ldrb.w	r3, [r0, #56]	; 0x38
 8001da4:	2b01      	cmp	r3, #1
 8001da6:	d047      	beq.n	8001e38 <HAL_UART_Transmit+0xb4>
 8001da8:	2301      	movs	r3, #1
 8001daa:	f880 3038 	strb.w	r3, [r0, #56]	; 0x38
    huart->ErrorCode = HAL_UART_ERROR_NONE;
 8001dae:	f04f 0900 	mov.w	r9, #0
    huart->gState = HAL_UART_STATE_BUSY_TX;
 8001db2:	2321      	movs	r3, #33	; 0x21
    huart->ErrorCode = HAL_UART_ERROR_NONE;
 8001db4:	f8c0 903c 	str.w	r9, [r0, #60]	; 0x3c
    huart->gState = HAL_UART_STATE_BUSY_TX;
 8001db8:	f880 3039 	strb.w	r3, [r0, #57]	; 0x39
    tickstart = HAL_GetTick();
 8001dbc:	f7fe fe5c 	bl	8000a78 <HAL_GetTick>
    huart->TxXferSize = Size;
 8001dc0:	f8a4 8024 	strh.w	r8, [r4, #36]	; 0x24
    tickstart = HAL_GetTick();
 8001dc4:	4606      	mov	r6, r0
    huart->TxXferCount = Size;
 8001dc6:	f8a4 8026 	strh.w	r8, [r4, #38]	; 0x26
    __HAL_UNLOCK(huart);
 8001dca:	f884 9038 	strb.w	r9, [r4, #56]	; 0x38
    while (huart->TxXferCount > 0U)
 8001dce:	8ce3      	ldrh	r3, [r4, #38]	; 0x26
 8001dd0:	b29b      	uxth	r3, r3
 8001dd2:	b953      	cbnz	r3, 8001dea <HAL_UART_Transmit+0x66>
    if (UART_WaitOnFlagUntilTimeout(huart, UART_FLAG_TC, RESET, tickstart, Timeout) != HAL_OK)
 8001dd4:	463b      	mov	r3, r7
 8001dd6:	4632      	mov	r2, r6
 8001dd8:	2140      	movs	r1, #64	; 0x40
 8001dda:	4620      	mov	r0, r4
 8001ddc:	f7ff ff7c 	bl	8001cd8 <UART_WaitOnFlagUntilTimeout.constprop.3>
 8001de0:	b998      	cbnz	r0, 8001e0a <HAL_UART_Transmit+0x86>
    huart->gState = HAL_UART_STATE_READY;
 8001de2:	2320      	movs	r3, #32
 8001de4:	f884 3039 	strb.w	r3, [r4, #57]	; 0x39
    return HAL_OK;
 8001de8:	e010      	b.n	8001e0c <HAL_UART_Transmit+0x88>
      huart->TxXferCount--;
 8001dea:	8ce3      	ldrh	r3, [r4, #38]	; 0x26
 8001dec:	3b01      	subs	r3, #1
 8001dee:	b29b      	uxth	r3, r3
 8001df0:	84e3      	strh	r3, [r4, #38]	; 0x26
      if (huart->Init.WordLength == UART_WORDLENGTH_9B)
 8001df2:	68a3      	ldr	r3, [r4, #8]
 8001df4:	f5b3 5f80 	cmp.w	r3, #4096	; 0x1000
        if (UART_WaitOnFlagUntilTimeout(huart, UART_FLAG_TXE, RESET, tickstart, Timeout) != HAL_OK)
 8001df8:	4632      	mov	r2, r6
 8001dfa:	463b      	mov	r3, r7
 8001dfc:	f04f 0180 	mov.w	r1, #128	; 0x80
 8001e00:	4620      	mov	r0, r4
      if (huart->Init.WordLength == UART_WORDLENGTH_9B)
 8001e02:	d10e      	bne.n	8001e22 <HAL_UART_Transmit+0x9e>
        if (UART_WaitOnFlagUntilTimeout(huart, UART_FLAG_TXE, RESET, tickstart, Timeout) != HAL_OK)
 8001e04:	f7ff ff68 	bl	8001cd8 <UART_WaitOnFlagUntilTimeout.constprop.3>
 8001e08:	b110      	cbz	r0, 8001e10 <HAL_UART_Transmit+0x8c>
          return HAL_TIMEOUT;
 8001e0a:	2003      	movs	r0, #3
}
 8001e0c:	e8bd 83f8 	ldmia.w	sp!, {r3, r4, r5, r6, r7, r8, r9, pc}
        huart->Instance->DR = (*tmp & (uint16_t)0x01FF);
 8001e10:	882b      	ldrh	r3, [r5, #0]
 8001e12:	6822      	ldr	r2, [r4, #0]
 8001e14:	f3c3 0308 	ubfx	r3, r3, #0, #9
 8001e18:	6053      	str	r3, [r2, #4]
        if (huart->Init.Parity == UART_PARITY_NONE)
 8001e1a:	6923      	ldr	r3, [r4, #16]
 8001e1c:	b943      	cbnz	r3, 8001e30 <HAL_UART_Transmit+0xac>
          pData += 2U;
 8001e1e:	3502      	adds	r5, #2
 8001e20:	e7d5      	b.n	8001dce <HAL_UART_Transmit+0x4a>
        if (UART_WaitOnFlagUntilTimeout(huart, UART_FLAG_TXE, RESET, tickstart, Timeout) != HAL_OK)
 8001e22:	f7ff ff59 	bl	8001cd8 <UART_WaitOnFlagUntilTimeout.constprop.3>
 8001e26:	2800      	cmp	r0, #0
 8001e28:	d1ef      	bne.n	8001e0a <HAL_UART_Transmit+0x86>
        huart->Instance->DR = (*pData++ & (uint8_t)0xFF);
 8001e2a:	6823      	ldr	r3, [r4, #0]
 8001e2c:	782a      	ldrb	r2, [r5, #0]
 8001e2e:	605a      	str	r2, [r3, #4]
 8001e30:	3501      	adds	r5, #1
 8001e32:	e7cc      	b.n	8001dce <HAL_UART_Transmit+0x4a>
      return  HAL_ERROR;
 8001e34:	2001      	movs	r0, #1
 8001e36:	e7e9      	b.n	8001e0c <HAL_UART_Transmit+0x88>
    return HAL_BUSY;
 8001e38:	2002      	movs	r0, #2
 8001e3a:	e7e7      	b.n	8001e0c <HAL_UART_Transmit+0x88>

08001e3c <HAL_UART_Receive>:
{
 8001e3c:	e92d 43f8 	stmdb	sp!, {r3, r4, r5, r6, r7, r8, r9, lr}
 8001e40:	461f      	mov	r7, r3
  if (huart->RxState == HAL_UART_STATE_READY)
 8001e42:	f890 303a 	ldrb.w	r3, [r0, #58]	; 0x3a
 8001e46:	2b20      	cmp	r3, #32
{
 8001e48:	4604      	mov	r4, r0
 8001e4a:	460d      	mov	r5, r1
 8001e4c:	4690      	mov	r8, r2
  if (huart->RxState == HAL_UART_STATE_READY)
 8001e4e:	d155      	bne.n	8001efc <HAL_UART_Receive+0xc0>
    if ((pData == NULL) || (Size == 0U))
 8001e50:	2900      	cmp	r1, #0
 8001e52:	d051      	beq.n	8001ef8 <HAL_UART_Receive+0xbc>
 8001e54:	2a00      	cmp	r2, #0
 8001e56:	d04f      	beq.n	8001ef8 <HAL_UART_Receive+0xbc>
    __HAL_LOCK(huart);
 8001e58:	f890 3038 	ldrb.w	r3, [r0, #56]	; 0x38
 8001e5c:	2b01      	cmp	r3, #1
 8001e5e:	d04d      	beq.n	8001efc <HAL_UART_Receive+0xc0>
 8001e60:	2301      	movs	r3, #1
 8001e62:	f880 3038 	strb.w	r3, [r0, #56]	; 0x38
    huart->ErrorCode = HAL_UART_ERROR_NONE;
 8001e66:	f04f 0900 	mov.w	r9, #0
    huart->RxState = HAL_UART_STATE_BUSY_RX;
 8001e6a:	2322      	movs	r3, #34	; 0x22
    huart->ErrorCode = HAL_UART_ERROR_NONE;
 8001e6c:	f8c0 903c 	str.w	r9, [r0, #60]	; 0x3c
    huart->RxState = HAL_UART_STATE_BUSY_RX;
 8001e70:	f880 303a 	strb.w	r3, [r0, #58]	; 0x3a
    tickstart = HAL_GetTick();
 8001e74:	f7fe fe00 	bl	8000a78 <HAL_GetTick>
    huart->RxXferSize = Size;
 8001e78:	f8a4 802c 	strh.w	r8, [r4, #44]	; 0x2c
    tickstart = HAL_GetTick();
 8001e7c:	4606      	mov	r6, r0
    huart->RxXferCount = Size;
 8001e7e:	f8a4 802e 	strh.w	r8, [r4, #46]	; 0x2e
    __HAL_UNLOCK(huart);
 8001e82:	f884 9038 	strb.w	r9, [r4, #56]	; 0x38
    while (huart->RxXferCount > 0U)
 8001e86:	8de0      	ldrh	r0, [r4, #46]	; 0x2e
 8001e88:	b280      	uxth	r0, r0
 8001e8a:	b918      	cbnz	r0, 8001e94 <HAL_UART_Receive+0x58>
    huart->RxState = HAL_UART_STATE_READY;
 8001e8c:	2320      	movs	r3, #32
 8001e8e:	f884 303a 	strb.w	r3, [r4, #58]	; 0x3a
    return HAL_OK;
 8001e92:	e010      	b.n	8001eb6 <HAL_UART_Receive+0x7a>
      huart->RxXferCount--;
 8001e94:	8de3      	ldrh	r3, [r4, #46]	; 0x2e
 8001e96:	3b01      	subs	r3, #1
 8001e98:	b29b      	uxth	r3, r3
 8001e9a:	85e3      	strh	r3, [r4, #46]	; 0x2e
      if (huart->Init.WordLength == UART_WORDLENGTH_9B)
 8001e9c:	68a3      	ldr	r3, [r4, #8]
 8001e9e:	f5b3 5f80 	cmp.w	r3, #4096	; 0x1000
        if (UART_WaitOnFlagUntilTimeout(huart, UART_FLAG_RXNE, RESET, tickstart, Timeout) != HAL_OK)
 8001ea2:	4632      	mov	r2, r6
 8001ea4:	463b      	mov	r3, r7
 8001ea6:	f04f 0120 	mov.w	r1, #32
 8001eaa:	4620      	mov	r0, r4
      if (huart->Init.WordLength == UART_WORDLENGTH_9B)
 8001eac:	d116      	bne.n	8001edc <HAL_UART_Receive+0xa0>
        if (UART_WaitOnFlagUntilTimeout(huart, UART_FLAG_RXNE, RESET, tickstart, Timeout) != HAL_OK)
 8001eae:	f7ff ff13 	bl	8001cd8 <UART_WaitOnFlagUntilTimeout.constprop.3>
 8001eb2:	b110      	cbz	r0, 8001eba <HAL_UART_Receive+0x7e>
          return HAL_TIMEOUT;
 8001eb4:	2003      	movs	r0, #3
}
 8001eb6:	e8bd 83f8 	ldmia.w	sp!, {r3, r4, r5, r6, r7, r8, r9, pc}
        if (huart->Init.Parity == UART_PARITY_NONE)
 8001eba:	6922      	ldr	r2, [r4, #16]
 8001ebc:	6823      	ldr	r3, [r4, #0]
 8001ebe:	b93a      	cbnz	r2, 8001ed0 <HAL_UART_Receive+0x94>
          *tmp = (uint16_t)(huart->Instance->DR & (uint16_t)0x01FF);
 8001ec0:	685a      	ldr	r2, [r3, #4]
 8001ec2:	462b      	mov	r3, r5
 8001ec4:	f3c2 0208 	ubfx	r2, r2, #0, #9
 8001ec8:	f823 2b02 	strh.w	r2, [r3], #2
{
 8001ecc:	461d      	mov	r5, r3
 8001ece:	e7da      	b.n	8001e86 <HAL_UART_Receive+0x4a>
          *tmp = (uint16_t)(huart->Instance->DR & (uint16_t)0x00FF);
 8001ed0:	685a      	ldr	r2, [r3, #4]
 8001ed2:	462b      	mov	r3, r5
 8001ed4:	b2d2      	uxtb	r2, r2
 8001ed6:	f823 2b01 	strh.w	r2, [r3], #1
 8001eda:	e7f7      	b.n	8001ecc <HAL_UART_Receive+0x90>
        if (UART_WaitOnFlagUntilTimeout(huart, UART_FLAG_RXNE, RESET, tickstart, Timeout) != HAL_OK)
 8001edc:	f7ff fefc 	bl	8001cd8 <UART_WaitOnFlagUntilTimeout.constprop.3>
 8001ee0:	2800      	cmp	r0, #0
 8001ee2:	d1e7      	bne.n	8001eb4 <HAL_UART_Receive+0x78>
 8001ee4:	6822      	ldr	r2, [r4, #0]
        if (huart->Init.Parity == UART_PARITY_NONE)
 8001ee6:	6921      	ldr	r1, [r4, #16]
          *pData++ = (uint8_t)(huart->Instance->DR & (uint8_t)0x00FF);
 8001ee8:	6852      	ldr	r2, [r2, #4]
 8001eea:	1c6b      	adds	r3, r5, #1
        if (huart->Init.Parity == UART_PARITY_NONE)
 8001eec:	b909      	cbnz	r1, 8001ef2 <HAL_UART_Receive+0xb6>
          *pData++ = (uint8_t)(huart->Instance->DR & (uint8_t)0x007F);
 8001eee:	702a      	strb	r2, [r5, #0]
 8001ef0:	e7ec      	b.n	8001ecc <HAL_UART_Receive+0x90>
 8001ef2:	f002 027f 	and.w	r2, r2, #127	; 0x7f
 8001ef6:	e7fa      	b.n	8001eee <HAL_UART_Receive+0xb2>
      return  HAL_ERROR;
 8001ef8:	2001      	movs	r0, #1
 8001efa:	e7dc      	b.n	8001eb6 <HAL_UART_Receive+0x7a>
    return HAL_BUSY;
 8001efc:	2002      	movs	r0, #2
 8001efe:	e7da      	b.n	8001eb6 <HAL_UART_Receive+0x7a>

08001f00 <SystemClock_Config>:
/**
  * @brief System Clock Configuration
  * @retval None
  */
void SystemClock_Config(void)
{
 8001f00:	b530      	push	{r4, r5, lr}
  RCC_OscInitTypeDef RCC_OscInitStruct = {0};
 8001f02:	2414      	movs	r4, #20
{
 8001f04:	b095      	sub	sp, #84	; 0x54
  RCC_OscInitTypeDef RCC_OscInitStruct = {0};
 8001f06:	4622      	mov	r2, r4
 8001f08:	2100      	movs	r1, #0
 8001f0a:	a808      	add	r0, sp, #32
 8001f0c:	f000 fc0c 	bl	8002728 <memset>
  RCC_ClkInitTypeDef RCC_ClkInitStruct = {0};
 8001f10:	4622      	mov	r2, r4
 8001f12:	2100      	movs	r1, #0
 8001f14:	a802      	add	r0, sp, #8
 8001f16:	f000 fc07 	bl	8002728 <memset>

  /** Configure the main internal regulator output voltage 
  */
  __HAL_RCC_PWR_CLK_ENABLE();
 8001f1a:	2500      	movs	r5, #0
 8001f1c:	4b1c      	ldr	r3, [pc, #112]	; (8001f90 <SystemClock_Config+0x90>)
 8001f1e:	9500      	str	r5, [sp, #0]
 8001f20:	6c1a      	ldr	r2, [r3, #64]	; 0x40
 8001f22:	f042 5280 	orr.w	r2, r2, #268435456	; 0x10000000
 8001f26:	641a      	str	r2, [r3, #64]	; 0x40
 8001f28:	6c1b      	ldr	r3, [r3, #64]	; 0x40
  __HAL_PWR_VOLTAGESCALING_CONFIG(PWR_REGULATOR_VOLTAGE_SCALE3);
 8001f2a:	4a1a      	ldr	r2, [pc, #104]	; (8001f94 <SystemClock_Config+0x94>)
  __HAL_RCC_PWR_CLK_ENABLE();
 8001f2c:	f003 5380 	and.w	r3, r3, #268435456	; 0x10000000
 8001f30:	9300      	str	r3, [sp, #0]
 8001f32:	9b00      	ldr	r3, [sp, #0]
  __HAL_PWR_VOLTAGESCALING_CONFIG(PWR_REGULATOR_VOLTAGE_SCALE3);
 8001f34:	9501      	str	r5, [sp, #4]
 8001f36:	6813      	ldr	r3, [r2, #0]
 8001f38:	f423 4340 	bic.w	r3, r3, #49152	; 0xc000
 8001f3c:	f443 4380 	orr.w	r3, r3, #16384	; 0x4000
 8001f40:	6013      	str	r3, [r2, #0]
 8001f42:	6813      	ldr	r3, [r2, #0]
 8001f44:	f403 4340 	and.w	r3, r3, #49152	; 0xc000
 8001f48:	9301      	str	r3, [sp, #4]
  /** Initializes the CPU, AHB and APB busses clocks 
  */
  RCC_OscInitStruct.OscillatorType = RCC_OSCILLATORTYPE_HSI;
  RCC_OscInitStruct.HSIState = RCC_HSI_ON;
  RCC_OscInitStruct.HSICalibrationValue = RCC_HSICALIBRATION_DEFAULT;
 8001f4a:	2201      	movs	r2, #1
  __HAL_PWR_VOLTAGESCALING_CONFIG(PWR_REGULATOR_VOLTAGE_SCALE3);
 8001f4c:	9b01      	ldr	r3, [sp, #4]
  RCC_OscInitStruct.HSICalibrationValue = RCC_HSICALIBRATION_DEFAULT;
 8001f4e:	2310      	movs	r3, #16
  RCC_OscInitStruct.OscillatorType = RCC_OSCILLATORTYPE_HSI;
 8001f50:	2402      	movs	r4, #2
  RCC_OscInitStruct.HSICalibrationValue = RCC_HSICALIBRATION_DEFAULT;
 8001f52:	e9cd 230a 	strd	r2, r3, [sp, #40]	; 0x28
  RCC_OscInitStruct.PLL.PLLState = RCC_PLL_ON;
  RCC_OscInitStruct.PLL.PLLSource = RCC_PLLSOURCE_HSI;
  RCC_OscInitStruct.PLL.PLLM = 16;
 8001f56:	930f      	str	r3, [sp, #60]	; 0x3c
  RCC_OscInitStruct.PLL.PLLN = 336;
  RCC_OscInitStruct.PLL.PLLP = RCC_PLLP_DIV4;
 8001f58:	f44f 71a8 	mov.w	r1, #336	; 0x150
 8001f5c:	2304      	movs	r3, #4
  RCC_OscInitStruct.PLL.PLLQ = 2;
  RCC_OscInitStruct.PLL.PLLR = 2;
  if (HAL_RCC_OscConfig(&RCC_OscInitStruct) != HAL_OK)
 8001f5e:	a807      	add	r0, sp, #28
  RCC_OscInitStruct.PLL.PLLP = RCC_PLLP_DIV4;
 8001f60:	e9cd 1310 	strd	r1, r3, [sp, #64]	; 0x40
  RCC_OscInitStruct.OscillatorType = RCC_OSCILLATORTYPE_HSI;
 8001f64:	9407      	str	r4, [sp, #28]
  RCC_OscInitStruct.PLL.PLLSource = RCC_PLLSOURCE_HSI;
 8001f66:	e9cd 450d 	strd	r4, r5, [sp, #52]	; 0x34
  RCC_OscInitStruct.PLL.PLLR = 2;
 8001f6a:	e9cd 4412 	strd	r4, r4, [sp, #72]	; 0x48
  if (HAL_RCC_OscConfig(&RCC_OscInitStruct) != HAL_OK)
 8001f6e:	f7ff f9fb 	bl	8001368 <HAL_RCC_OscConfig>
  {
    Error_Handler();
  }
  /** Initializes the CPU, AHB and APB busses clocks 
  */
  RCC_ClkInitStruct.ClockType = RCC_CLOCKTYPE_HCLK|RCC_CLOCKTYPE_SYSCLK
 8001f72:	230f      	movs	r3, #15
                              |RCC_CLOCKTYPE_PCLK1|RCC_CLOCKTYPE_PCLK2;
  RCC_ClkInitStruct.SYSCLKSource = RCC_SYSCLKSOURCE_PLLCLK;
 8001f74:	e9cd 3402 	strd	r3, r4, [sp, #8]
  RCC_ClkInitStruct.AHBCLKDivider = RCC_SYSCLK_DIV1;
  RCC_ClkInitStruct.APB1CLKDivider = RCC_HCLK_DIV2;
  RCC_ClkInitStruct.APB2CLKDivider = RCC_HCLK_DIV1;

  if (HAL_RCC_ClockConfig(&RCC_ClkInitStruct, FLASH_LATENCY_2) != HAL_OK)
 8001f78:	4621      	mov	r1, r4
  RCC_ClkInitStruct.APB1CLKDivider = RCC_HCLK_DIV2;
 8001f7a:	f44f 5380 	mov.w	r3, #4096	; 0x1000
  if (HAL_RCC_ClockConfig(&RCC_ClkInitStruct, FLASH_LATENCY_2) != HAL_OK)
 8001f7e:	a802      	add	r0, sp, #8
  RCC_ClkInitStruct.AHBCLKDivider = RCC_SYSCLK_DIV1;
 8001f80:	9504      	str	r5, [sp, #16]
  RCC_ClkInitStruct.APB2CLKDivider = RCC_HCLK_DIV1;
 8001f82:	e9cd 3505 	strd	r3, r5, [sp, #20]
  if (HAL_RCC_ClockConfig(&RCC_ClkInitStruct, FLASH_LATENCY_2) != HAL_OK)
 8001f86:	f7ff f8ed 	bl	8001164 <HAL_RCC_ClockConfig>
  {
    Error_Handler();
  }
}
 8001f8a:	b015      	add	sp, #84	; 0x54
 8001f8c:	bd30      	pop	{r4, r5, pc}
 8001f8e:	bf00      	nop
 8001f90:	40023800 	.word	0x40023800
